:020000040800F2
:10000000B00B002031350008053400080934000821
:1000100000000000000000000000000000000000E0
:100020000000000000000000000000000D34000887
:1000300000000000000000000F3400081134000828
:10004000670A0008000000007B0F0008CF3200089C
:100050003733000885330008F3340008FF34000804
:10006000000000001934000841350008433500083D
:1000700045350008473500084935000800000000F4
:100080004B35000800000000000000002334000889
:10009000000000004D3500084F35000851350008BC
:1000A0005335000855350008573500085935000804
:1000B0005B350008000000000000000000000000A8
:1000C00010B50400002C01D101202AE03D20205C65
:1000D000002805D100203C216054200000F043FCA2
:1000E00002203D216054211D206800F041FA0120CA
:1000F000482160543E2160543F21605440216054A7
:100100004121605442216054432160544421605491
:100110004521605446216054472160543D2160547C
:10012000002010BD10B501003D20085C012801D061
:10013000012027E002203D23C85401200B68DB6822
:1001400003430C68E3600B680F4CA34203D00B68B9
:100150000E4CA34210D10B689B680D4C1C40220032
:10016000062A0ED080235B029A420AD00B681B68D5
:1001700018430B68186004E00B681B6818430B6891
:100180001860002010BD0000002C01400004004059
:100190000700010010B50400002C01D101202AE065
:1001A0003D20205C002805D100203C216054200027
:1001B00000F056FC02203D216054211D206800F013
:1001C000D7F90120482160543E2160543F216054FA
:1001D00040216054412160544221605443216054C5
:1001E00044216054452160544621605447216054A5
:1001F0003D216054002010BD70B504000226206827
:100200000069304000281CD02068C06830400028B9
:1002100017D00220C04321680861012020772068A0
:1002200080698007800F002803D0200000F019FCAF
:1002300005E0200000F016FC200000F015FC002076
:100240002077042520680069284000281CD02068F9
:10025000C0682840002817D00420C04321680861E6
:10026000267720688069C02189000140002903D0D9
:10027000200000F0F6FB05E0200000F0F3FB20007A
:1002800000F0F2FB0020207708262068006930404B
:1002900000281BD02068C0683040002816D00820F5
:1002A000C0432168086125772068C0698007800FF6
:1002B000002803D0200000F0D4FB05E0200000F06F
:1002C000D1FB200000F0D0FB002020771020216817
:1002D0000969014000291CD02168C968084000282C
:1002E00017D01020C0432168086126772068C069B4
:1002F000C02189000140002903D0200000F0B1FB9B
:1003000005E0200000F0AEFB200000F0ADFB002077
:100310002077012021680969014000290BD021685C
:10032000C9680840002806D00120C0432168086140
:10033000200000F0BBFE80252068006928400028CE
:100340000BD02068C0682840002806D08020C04319
:1003500021680861200000F0B2FE20680069C00535
:100360000AD52068C0680540002D05D06E48216878
:100370000861200000F0A4FE4020216809690140C6
:1003800000290BD02168C9680840002806D0402009
:10039000C04321680861200000F093FE20202168FE
:1003A0000969014000290BD02168C968084000286C
:1003B00006D02020C04321680861200000F082FEA2
:1003C00070BD0000F4B505000C00002637003C208D
:1003D000285C012801D10220A5E001203C216854BD
:1003E000009900290AD004291FD0082936D00C29E9
:1003F0004BD0102962D0142977D08FE021002868D3
:1004000000F0EBF8286880690821014328688161C1
:100410002868806904218843296888612868806980
:10042000216901432868816179E02100286800F092
:100430000CF92868806980210901014328688161DD
:100440002868806939490140286881612868806985
:100450002169090201432868816160E02100286860
:1004600000F02AF92868C069082101432868C161A1
:100470002868C069042188432968C8612868C06960
:10048000216901432868C16149E02100286800F022
:1004900048F92868C0698021090101432868C161C1
:1004A0002868C069214901402868C1612868C0697D
:1004B0002169090201432868C16130E021002868F0
:1004C00000F062F92868406D082101432868416501
:1004D0002868406D04218843296848652868406D74
:1004E000216901432868416519E02100286800F06E
:1004F00073F92868406D802109010143286841652E
:100500002868406D09490140286841652868406DA8
:100510002169090201432868416500E007003C2089
:100520002E543800C0B2F2BDFFFEFFFFFFFBFFFFFD
:1005300038B50400A56A686A844202D10120287790
:1005400010E0A86A844202D1022028770AE0E86A13
:10055000844202D10420287704E0286B844201D130
:1005600008202877280000F0AEFD0020287731BD54
:1005700010B503687F4A904202D07F4CA04204D15C
:100580007024A3431C004B68234390420BD07A4C49
:10059000A04208D0794CA04205D0794CA04202D0AC
:1005A0008B4CA04203D1774C1C40CB682343802462
:1005B000A3434C691C4304608B68C3620B6883626D
:1005C000904205D06E4A904202D0814A904201D1B9
:1005D0000A6902630122426110BD70B5026A0123FB
:1005E0009A430262056A426883697A4C1C4003237D
:1005F0009C430B6823430224A5438C682C435D4D28
:10060000A84205D05E4EB04202D0714EB04206D133
:100610000826B4432600CC6834430426B443A842D9
:1006200005D0574DA84202D0694DA84207D17D4D53
:1006300015407F4A2A404D6915438A692A43426022
:1006400083614D684563046270BD70B5026A102312
:100650009A430262036A42688469734D2540494E99
:100660002E400C68240234432025AB438D682D01B5
:100670001D43404B984207D18026B5432E00CD68DC
:100680002D0135434026B543984205D03C4B984256
:1006900002D04F4B984209D1644B1340654A1A402F
:1006A0004B699B0013438A6992001A43426084613C
:1006B0004B688363056270BDF0B5026A594B134005
:1006C0000362046A4268C369424D1D4003239D438F
:1006D0000B682B43564D25408C6824022C43254D36
:1006E000A84206D1534E2640CC68270237434F4CD0
:1006F0003C40A84205D0224DA84202D0344DA84229
:1007000009D14D4D15404D4A2A404D692D011543E3
:100710008A6912012A434260C3614D68C56304625D
:10072000F0BD70B5026A444B13400362036A42682D
:10073000C4693D4D2540134E2E400C6824023443BD
:100740003E4D1D408B681B032B430A4DA84205D02C
:100750000B4DA84202D01E4DA84204D13B4D15407E
:100760004A6992012A434260C4614D68056403628C
:1007700070BD0000002C014000040040002000403B
:1007800000440140FFFCFFFF70B52D4B026A1A4088
:100790000262046A4268456D0E4E2E400D68354374
:1007A000284E26408C6824043443274EB04205D09E
:1007B000274EB04202D0274EB04203D113404A69BF
:1007C00012021A43426045654B688365046270BD3E
:1007D000004801408FFFFEFF30B5026A1E4B1340F8
:1007E0000362046A4268436D0F4D1D400B681B0293
:1007F0002B431A4D25408C6824052C43124DA842EA
:1008000005D0134DA84202D0124DA84204D1144D78
:1008100015404A6992022A43426043654D68C565A6
:10082000046230BDFFFEFFFFFF8FFFFEFFFBFFFFF7
:10083000FFFDFFFFFFF7FFFFFFEFFFFFFFDFFFFF02
:10084000FFFFFEFFFFFFFDFF002C0140FFBFFFFF8A
:100850000044014000480140FFFFEFFFFFFFDFFFC2
:10086000FFFFFBFF81B0012073490A6802430A6061
:100870000968084000900098802040056F490A6888
:1008800002430A60096808400090009801B0704770
:1008900010B586B004001422002101A800F014FC59
:1008A0002068674988421DD18020400362490A6858
:1008B00002430A60096808400090009801206149DD
:1008C0000A6802430A600968084000900098FF2007
:1008D0000190032002900020039001A9A020C005F0
:1008E00000F0FCFB06B010BD38B58CB0040014223B
:1008F000002101A800F0E8FB1822002106A800F062
:10090000E3FB2068504988422BD120200690002527
:10091000089506A800F0F6FC002801D000F02AFB9C
:10092000012048490A6802430A60096808400090AB
:100930000098C020C00001901220029003950495F9
:100940000620059001A9A020C00500F0C7FB80206B
:1009500080033A490A6802430A6009680840009027
:1009600000980DB030BD38B5040020683749884282
:1009700012D180210902304802680A4302600068EF
:1009800001400091009800220021132000F0EFFDAB
:10099000132000F0F6FD2BE020682D49884227D176
:1009A0008021C902244802680A43026000680140AD
:1009B00000910098274D284828602F20686010205B
:1009C000A8600020E86080212961802149006961D8
:1009D0008021C900A961E861C02080012862280047
:1009E00000F0E8FD002801D000F0C4FA6562AC62B6
:1009F00031BD10B586B004001422002101A800F01A
:100A000063FB20681249884213D102200D490A680D
:100A100002430A6009680140009100998021019118
:100A20000290002103910491059001A90B4800F068
:100A300055FB06B010BD0000401002403C100240C3
:100A400000240140341002400054004000200040C7
:100A500000480140EC05002008000240000400505E
:100A6000704770477047FEE710B5040000217548D5
:100A700001F062F801207449086010BD70B4BE4CEA
:100A800005008600A55515008600A61975700D0095
:100A90008600A619B5701D008600A419E57070BC0B
:100AA0007047F8B5002634003000192823DAB2491F
:100AB00082008A18527812048300CB189B781B029C
:100AC000134382008918C97819430D0017210029A2
:100AD0000FD42A00CA40D20704D50D22B14B6700BB
:100AE000DA5303E00622AF4B6700DA53641C491E59
:100AF000EDE7401CD9E73000142806DA3100A94A96
:100B00006300D152641C401CF6E723009BB2A54A47
:100B100000214C4800F026FF4B4801680029FBD01B
:100B20000660F1BDF8B501F073F900F08FF800F040
:100B3000B5F900F091F900F0B9F800F0F4F800F020
:100B400035F900F01BF90123002200210120FFF7F5
:100B500095FFFFF7A6FF944D287AFC2101402972EA
:100B6000002108000C2803DA0A002A54401CF9E787
:100B7000C348FFF7D7FAB74F01F062F93860C14CAC
:100B800001F05EF92060C04E01F05AF9306001F0CA
:100B900057F93968401A15280AD31E230C22290058
:100BA000BA4801F0BDF9BA49087001F049F9386056
:100BB00001F046F92168401AB649884208D38021DD
:100BC0000902B54800F080FB01F03AF92060EFE738
:100BD00001F036F93168401A0B28D8D3287A8007FB
:100BE000800F002805D0022811D009D3032815D082
:100BF0001BE00023002200210020FFF73FFF1AE046
:100C00000023002201210020FFF738FF13E000231A
:100C1000012200210020FFF731FF0CE00123002218
:100C200000210020FFF72AFF05E000230022002119
:100C30000020FFF723FFFFF734FF01F001F93060D8
:100C4000A5E70000E80600209407002018B591B041
:100C50003422002104A800F037FA1022002168464F
:100C600000F032FA8020800001F078FB022004902E
:100C700080204000079000240894402009900B94A5
:100C800004A801F097FB002801D000F073F90720B9
:100C900000900194029403940021684601F0E8FD5D
:100CA000002801D000F066F912B010BD7FB50C220B
:100CB0000021684600F008FAA24CA348206080207A
:100CC000C00560601020A0600025E560256104205B
:100CD000606128002076280060762800A076012632
:100CE000E6612800202160546562A56228002C215D
:100CF000605425636563A56328003C216054E56466
:100D0000200001F061FF002801D000F033F90096C7
:100D1000019502956946200002F098F8002801D05C
:100D200000F028F97FBD10B5584C884820608848ED
:100D300060602420A0600120E060002020616061EC
:100D4000A061E0612062200001F080F8002801D05D
:100D500000F010F90021200002F0D2F9002801D0A3
:100D600000F008F90021200002F0FDF9002801D070
:100D700000F000F910BD00008805002080B5404853
:100D8000744901600F21416000218160724AC26094
:100D900001618161FFF794F9002801D000F0EAF8C1
:100DA00001BD00004C0000208807002038B594B039
:100DB0001C220021684600F087F93422002107A890
:100DC00000F082F9654D6648286000246C60AC60D4
:100DD0001320E8602C616C61AC612800FFF770F9AA
:100DE000002801D000F0C6F82800FFF7D3F900284A
:100DF00001D000F0BFF860200090019402940394A9
:100E00000420049005940694002269462800FFF708
:100E1000D9FA002801D000F0ADF8286880690821CF
:100E20008843296888610794089409940A940B946C
:100E3000802080010C900D94139407A9280000F0E5
:100E400007FF002801D000F095F82800FFF7D1FD3A
:100E500015B030BD9807002080B5012041490A68CF
:100E600002430A60096808400090009800220021AF
:100E7000092000F07CFB092000F083FB01BD00008D
:100E80009C0600209C070020A007002048060020A8
:100E9000A8070020E903000000080050F8B586B05C
:100EA00014220021684600F00FF902212E48026842
:100EB0000A43026002681140059105990421026805
:100EC0000A430260026811400591059901240168F6
:100ED000214301600068204005900598CE25AD00B3
:100EE00000222900214800F0E2F980263602204F36
:100EF00000223100380000F0DAF900950194002555
:100F0000029503956946194800F0E8F800960194A7
:100F1000029503956946380000F0E0F89920000238
:100F20000090019502956946A020C00500F0D6F812
:100F300040200090019502956946380000F0CEF8F7
:100F400007B0F0BD240500200024014000540040FB
:100F50005B3D3000002000400F270000E806002025
:100F60000048014038100240341002400004005094
:100F70000008005000B572B6FEE7FEE7F8B50024A1
:100F8000052C28DA414F424E00226000315AA00061
:100F9000385800F08CF90025052D13DA3D4869001A
:100FA000415A3D48AA00805800F074F9002801D148
:100FB000012000E000203949052262438918485584
:100FC0006D1CE9E701226000315AA000385800F09A
:100FD0006EF9641CD4E7F1BD30B50020010005298D
:100FE0003CDA0200052A37DA2C4B05244C431C1945
:100FF000A45C012C1BD12A4C05254D436419A45C2B
:10100000002C14D113000B43002B09D1254B1C7A63
:10101000FC2525401C7A641CA407A40F2C431C72D9
:101020000123214C05254D436419A35412E00524E6
:101030004C431B199B5C002B0CD1194B05244C43D2
:101040001B199B5C012B05D10300174C05254D4353
:101050006419A354521CC5E7491CC0E730BD30B524
:1010600000200100052910DA0200052A0BDA0B4BDB
:1010700005244C431B199B5C094C05254D43641901
:10108000A354521CF1E7491CECE730BD2C000020B2
:1010900020000020000000200C0000203407002069
:1010A00050070020880700206C07002010B50400BE
:1010B000FFF764FFFFF790FFFFF7D1FF10BD704708
:1010C000704770477047704710B504000800110062
:1010D0000200200002F07CF8200010BDFEB50022C6
:1010E0000B68D340002B00D1D3E001230C681D0016
:1010F000954025400295029C002C00D1C7E00324B6
:101100004D682540012D03D04D682540022D19D191
:10111000866815006F002500BD40AE43CD681700FE
:101120007F00BD4035430195019D856046681D00E7
:101130009540AE434D682D091D40954035430195BE
:10114000019D45604D682540032D0DD0C6681500F2
:101150006F002500BD40AE438D6817007F00BD4085
:1011600035430195019DC5604D682540022D1CD178
:10117000D508AD0045192D6A01951C25019EB44680
:101180000F271600B6002E40B7406646BE43B44651
:101190000E691700BF003D40AE4065462E430196E4
:1011A000D508AD004519019E2E62066815006F0036
:1011B0002500BD40AE434D68254017007F00BD406F
:1011C00035430195019D05604D68C026B6022E404D
:1011D000002E5CD0434D9608B600AE590196019E94
:1011E00000960F27BC461600F70018263E406746BB
:1011F000B740009EBE43A027FF05B84201D100239F
:101200000DE0394FB8420AD0384B984201D1022341
:1012100005E0374B984201D1230000E0052314007C
:10122000E40018272740BB4033439408A4002B5107
:10123000304D2C68029EB4434E68F60202D523005E
:10124000029C1C432C602C4D2B68029EB3434E68BD
:10125000B60202D51C00029B23432B60274D2C684D
:10126000029EB4434E68B60302D52300029C1C4381
:101270002C60234B1D68029EB54301954D68ED031C
:1012800003D5019C029D25430195019C1C60521CC5
:1012900026E7F7BD00B5020010690B009BB21840AD
:1012A000002801D0012000E00020C0B200BD00B540
:1012B0001300DBB2002B03D00B009BB2836102E072
:1012C0000B009BB2836200BD10B442690B009BB25D
:1012D00013401B040C00A4B294431C43846110BC53
:1012E00070470000601802400004005000080050E1
:1012F000000C0050001802400418024084180240FC
:1013000080180240F8B584B00400002007000100F6
:101310006A4611702168890370D56946487080203B
:101320004005584D29680140002909D12968014329
:101330002960296808400390039801206946487095
:10134000514E3068802149000143316000F078FD42
:1013500002903068C00507D400F072FD0299401A6F
:101360000328F6D3032007003800C0B200283BD181
:10137000464E3068C0218900014001910198002843
:1013800012D00198616988420ED03068404901400E
:1013900001913068802149020143316030683D4944
:1013A00001403160019830600198C0070ED500F00F
:1013B00047FD02903068800708D400F041FD029993
:1013C000401A35498842F5D3032007003800C0B2DF
:1013D000002806D130682E4901406069084330601A
:1013E00004E06846077001E0684607706846407888
:1013F000012803D128682949014029602078C007C5
:1014000006D5274801680322914362680A430260B7
:101410002078800606D522480168224A0A40A16841
:10142000114301608020C00121680140002911D0D2
:101430001B490A6892009208236913430B602169D3
:101440008022D205914205D117490A6880235B02A8
:1014500013430B60216809050FD511490A68134B26
:101460001340E2681A430A60E168814205D10E48E0
:101470000168802252020A4302606846007805B083
:10148000F0BD00003C100240007000405C100240C3
:10149000FFFCFFFFFFFFFEFF89130000FFFFFFEFD0
:1014A00054100240FFCFFFFF0C100240FF3FFFFF30
:1014B00000B5010049B2002905D40121C206D20EAF
:1014C0009140364A116000BDF0B5020052B2002AC8
:1014D00017D41822324B040064B2A408A4001C598B
:1014E000FF25C6001640B540AC438D01EDB2C600E5
:1014F000324095402543020052B2920892009D501E
:101500001BE00F22274B182405006DB21540083D43
:10151000AD08AE0005006DB22A40083A920892006C
:101520009A58FF25C7002740BD40AA438D01EDB260
:10153000C7003C40A54015439D51F0BD10B50400C7
:10154000601E80214904884201D301200EE0601E04
:101550001549086003210020C043FFF7B5FF0020B4
:1015600012490860072012490860002010BD70B5BC
:1015700005000C0016002100280040B2FFF7A4FF70
:1015800070BD10B50400200040B2FFF791FF10BD00
:1015900010B504002000FFF7D1FF10BD00E100E00E
:1015A00000E400E01CED00E014E000E018E000E0E2
:1015B00010E000E010B50400002C01D1012050E043
:1015C000206856494018142101F029FE800020644B
:1015D0000220252160542068006875490140206878
:1015E000016020680068A1680143E0680843216940
:1015F000014360690843A1690143E0690843216A26
:10160000014320680160200000F078F9A068802183
:10161000C901884201D10020606020798006800ED7
:10162000616C0860E06CA16C4860606800280CD0B8
:101630006068052809D2200000F07AF90020216DA9
:101640000860A06D616D486003E000202065606562
:10165000A0650020E06301212522A15424216054CB
:10166000002010BDF7B504001F0000200600242153
:10167000615C012901D102204FE0012529002422CB
:10168000A1542521615C012940D102212522A154C8
:10169000E0632068006801218843216808603B00FE
:1016A000029A0199200000F001F9206B002806D071
:1016B000206800680E210143206801600BE020686B
:1016C00000680421884321680860206800680A21B6
:1016D000014320680160606C0068C00306D5606C3F
:1016E0000068802149000143606C0160206D002882
:1016F00006D0206D0068802149000143206D016003
:101700002068006805432068056004E08021E163EB
:10171000242160542E003000C0B2FEBDF8FFFDBF92
:10172000F8B50400002005002521615C022904D0E1
:101730000420E0630120050036E0216809680E22DC
:10174000914322681160216809680122914322684F
:1017500011601949626C12680A40636C1A600126B4
:10176000144A13689C464023E75C1C233B40370027
:101770009F4063461F431760E26CA36C5A60226D62
:10178000002A07D0226D12681140226D1160A16DF0
:10179000626D51602521665424216054A06B00289D
:1017A00002D02000A16B88472800C0B2F2BD000023
:1017B0000F80FFFF04000240FFFEFFFFF8B50400AA
:1017C0004D480568206806681C200421226C0240F0
:1017D0000B0093402B40002B19D00E4217D02268EB
:1017E0001268920605D42268126804239A4323687B
:1017F0001A604E4A1368276C3840814019431160C3
:10180000206B002851D02000216B88474DE0022139
:10181000226C02400B0093402B40002B1FD00E4245
:101820001DD022681268920608D4226812680A2322
:101830009A4323681A6001222523E2543B4A136825
:10184000276C3840814019431160002024216054E6
:10185000E06A002829D02000E16A884725E00821B5
:10186000226C02400B0093402B40002B1DD03140D6
:1018700000291AD0216809680E229143226811605C
:1018800001212A4A1368276C38400F0087401F4304
:101890001760E16325202154002024216054606BEF
:1018A000002802D02000616B8847F1BDF0B5C46C00
:1018B000856C6C60046D002C02D0846D456D6C608D
:1018C0001A4C26680127BC464025475D1C253D4033
:1018D0006746AF4037432760046863608468102C14
:1018E00004D10468A2600468E16003E00468A160B8
:1018F0000468E260F0BD00000000024010B5040082
:10190000206C032188431349401860642078C0B2DA
:101910000838142101F083FC0F49A1640121020061
:10192000D206D20E9140E16410BD000004000240D6
:1019300001798906890E8A00084BD2180265084A87
:10194000426501220B005B1E9B079B0F9A4082653C
:10195000704700000008024080080240FC08024076
:1019600040090240F7B504000D001F000026002DBD
:1019700002D14420205C0BE0042D02D14520205CE4
:1019800006E0082D02D14620205C01E04720205CC3
:10199000022801D10220CEE0002D02D14420205C9B
:1019A0000BE0042D02D14520205C06E0082D02D179
:1019B0004620205C01E04720205C012829D10298C4
:1019C000002803D0380080B2002801D10120B2E005
:1019D000002D04D1022044216054C0B211E0042D36
:1019E00004D1022045216054C0B20AE0082D04D180
:1019F000022046216054C0B203E002204721605417
:101A0000C0B22800002806D0042822D008283ED0E2
:101A10005BE001208FE08248616AC8628148616AA8
:101A200008638148616A48633B009BB220680200FA
:101A300034320299606AFFF715FE002801D00120B8
:101A400079E02068C0688021890001432068C16076
:101A50003DE07348A16AC8627248A16A086372488F
:101A6000A16A48633B009BB22068020038320299A9
:101A7000A06AFFF7F7FD002801D001205BE0206895
:101A8000C0688021C90001432068C1601FE064482C
:101A9000E16AC8626348E16A08636348E16A4863CF
:101AA0003B009BB2206802003C320299E06AFFF7DB
:101AB000D9FD002801D001203DE02068C0688021C8
:101AC000090101432068C16001E0012006003000E7
:101AD000C0B200282DD104222900206800F086F928
:101AE0002068406C8021090201432068416420681D
:101AF0004E49884203D020684D49884213D120685E
:101B000080684C49014000910098062811D0009847
:101B10008021490288420CD02068006801210143DD
:101B20002068016005E02068006801210143206809
:101B300001603000C0B2FEBD70B504000D0000268B
:101B40002800002804D004280CD0082814D01DE058
:101B50002068C068384901402068C160606AFFF7AA
:101B6000DFFD15E02068C068344901402068C1608D
:101B7000A06AFFF7D5FD0BE02068C068304901403E
:101B80002068C160E06AFFF7CBFD01E0012006009C
:101B90003000C0B2002840D100222900206800F0A7
:101BA00025F928482168096A014000290BD12168DC
:101BB000096A254A0A40002A05D12168496C234A4E
:101BC0000A4021684A642168096A084000280BD14C
:101BD0002068006A1C490140002905D1206800687E
:101BE0000121884321680860002D04D1012044218F
:101BF0006054C0B211E0042D04D10120452160548D
:101C0000C0B20AE0082D04D1012046216054C0B2C0
:101C100003E0012047216054C0B23000C0B270BD63
:101C20002D1D000831050008A31D0008002C0140EF
:101C30000004004007000100FFFDFFFFFFFBFFFF66
:101C4000FFF7FFFF1111000044040000FF7FFFFFBA
:101C500030B50200002003003C24145D012C01D1AA
:101C6000022047E001243C255455FF24A343CC68BF
:101C70001C43244D25408B682B43234C1C404B6850
:101C80002343224C1C400B682343214C1C400B690E
:101C90002343194C1C404B6923431E4C1C400B6BC7
:101CA00023431D4D1D408B691C042C43134B1568A9
:101CB0009D4203D1194D2540CC692C4315689D42A6
:101CC00013D10F4D25408C6A24052C43144D25401B
:101CD0000C6A2C43134D25404C6A2C4315689D42D9
:101CE00003D1114B2340CC6A1C4313685C643C2332
:101CF000D054002030BD0000FFDFFFFF002C01406A
:101D0000FFFF0FFFFFFCFFFFFFFBFFFFFFF7FFFFE2
:101D1000FFEFFFFFFFBFFFFFFFFFF0FFFFFFFFEF42
:101D2000FFFFFFFEFFFFFFFDFFFFFFDF38B50400F1
:101D3000A56A686A844208D101202877E1690029F0
:101D400029D144216854C0B225E0A86A844209D14F
:101D500002202877E06900281DD101204521685420
:101D6000C0B218E0E86A844209D104202877E0690B
:101D7000002810D1012046216854C0B20BE0286B26
:101D8000844208D108202877E069002803D1012087
:101D900047216854C0B22800FEF766FE002028776D
:101DA00031BD38B50400A56A686A844205D10120B6
:101DB000287744216854C0B212E0A86A844206D150
:101DC00002202877012045216854C0B208E0E86A63
:101DD000844205D104202877012046216854C0B2EE
:101DE000280001F073FA0020287731BD70B41F235A
:101DF00004240D001D40AC40056AA5430562056A38
:101E00000E00334016009E402E43066270BC7047A1
:101E100010B5002409480168802252000A4302607C
:101E2000032001F055FA002802D00120040001E04F
:101E3000FEF718FD2000C0B210BD000000200240D7
:101E400001480068704700BFA407002010B50400D7
:101E5000002C01D101205BE04120205C002805D14D
:101E60000020402160542000FEF73EFD2420412147
:101E70006054206800680121884321680860606818
:101E80002449014020680161234821688968014094
:101E900022689160E168012906D1A16880221202BE
:101EA0000A4321688A6005E0A168842212020A437D
:101EB00021688A60E168022903D180210901226832
:101EC000516021684968154A0A4321684A602168BF
:101ED000C96808402168C860206961690143A06938
:101EE000000208432168C860E069216A0143206854
:101EF0000160206800680121014320680160002022
:101F0000606420214122A1542063422160540020BA
:101F100010BD0000FFFFFFF0FF7FFFFF0080000209
:101F2000FEB582B004004120205C202800D0D8E01B
:101F30000298002803D068468089002804D18020B8
:101F4000800060640120CDE04020205C012801D1A8
:101F50000220C7E0012040216054FFF771FF01908B
:101F600021204121605420204221605400256564D5
:101F70000298606268468089608565632068406871
:101F8000594901402068416001980090049B00225B
:101F90000821200000F0BEF8002808D02068406822
:101FA0008021090201432068416001209AE008264F
:101FB0002068C661E068022814D101980090049B53
:101FC00000220821200000F0A5F8002808D0206891
:101FD000406880210902014320684160012081E0BE
:101FE0002068C66101980090049B0022802149026C
:101FF000200000F08FF8002808D020684068802179
:10200000090201432068416001206BE0608D0028D7
:102010001AD0019A0499200000F0A8F8002808D0EE
:102020002068406880210902014320684160012046
:1020300058E0606A007821688862606A401C6062CB
:10204000608D401E6085E1E701980090049B0022AE
:102050001021200000F05EF8002808D020684068B9
:102060008021090201432068416001203AE02000FC
:1020700000F03CF810202168C861019A0499200002
:1020800000F0A0F8002808D02068406880210902EC
:10209000014320684160012024E020272068C761B7
:1020A0008026360201980090049B01223100200016
:1020B00000F030F8002806D0206840680643206809
:1020C000466001200EE020684068064320684660B4
:1020D00041202754280042216054402025540020EC
:1020E00000E0022005B0F0BDFF7FFFFF00B50168F2
:1020F0008969890702D5002102689162012102687D
:1021000092690A40002A04D1026892691143026868
:10211000916100BDF4B504000F001D00069E20680B
:1021200080693840B84201D1012000E000206946B2
:102130000978884218D10020C0438542EFD0FFF7CC
:102140007FFE801B854201D3002DE8D12020616CE9
:102150000143616441216054002001004222A154E6
:1021600040216054012000E00020F2BD70B5040061
:102170000D00160020688069800721D432002900F4
:10218000200000F048F8002801D0012019E00020CC
:10219000C0438542EED0FFF753FE801B854201D33A
:1021A000002DE7D12020616C01436164412160541E
:1021B000002001004222A15440216054012000E08F
:1021C000002070BDF8B505000E0017002024286817
:1021D0008069204000281CD13A003100280000F01E
:1021E0001AF8002801D0012014E0FFF729FEC01BD7
:1021F000864201D3002EE9D1686C204368644120F7
:102200002C54002001004222A9544021685401208E
:1022100000E00020F2BDF7B584B00400002720687C
:1022200080690390002506980190102003990140D1
:10223000002953D02168C861202620688069304079
:10224000002840D13800C0B200283CD105980021B8
:10225000C9438842F0D0FFF7F3FD0199401A059970
:10226000814202D305980028E6D18020C001216870
:102270004968014002914221615C6A4611702168FF
:10228000896909040ED5029981420BD06946097803
:10229000202907D021684968084321684860FFF772
:1022A000CFFD01902068806930400028C4D1FFF73D
:1022B000C7FD0199401A1A28F4D3280035000543B8
:1022C00001200700B8E73800C0B2002801D120681B
:1022D000C66128000425054301200700206886699F
:1022E00080204000064204D001210D432268D061C5
:1022F0000F008020C000064206D0290008250D43AB
:102300002168C8610120070080208000064206D0B5
:10231000290002250D432168C8610120070038000B
:10232000C0B2002814D02000FFF7E0FE206840680B
:102330000949014020684160606C284360642020A6
:1023400041216054002001004222A15440216054E8
:102350003800C0B207B0F0BD00E800FE30B50400A0
:102360000F4801680F4A0A40224302608020800023
:10237000844212D10C480068062148430B4900F002
:102380004EFF401C05000A480068400505D5002D99
:1023900001D06D1EF7E7032000E0002030BD0000F3
:1023A00000700040FFF9FFFF4400002040420F0092
:1023B00014700040F8B584B00400002C01D1012055
:1023C00044E201262068304000285CD0B348006811
:1023D000382101400291B24800688007800F0190C7
:1023E0000298102802D10198032802D002980828E8
:1023F00008D1AC480068800345D56068002842D108
:10240000012023E2802040026168814204D1A54975
:102410000A681043086017E06168A022D202914266
:1024200009D1A0490A688023DB0213430B600A68C4
:102430001043086008E09B480168B04A0A40026007
:102440000168AF4A0A400260606800280DD0FFF7BB
:10245000F7FC050093480068800314D4FFF7F0FCF4
:10246000401B6528F6D30320F0E1FFF7E9FC0500E7
:102470008C480068800306D5FFF7E2FC401B652806
:10248000F6D30320E2E12078800776D58348006800
:10249000382101400291824800688007800F019036
:1024A0000298102802D10198022802D00298002830
:1024B0002CD17C490868400504D5E068002801D18A
:1024C0000120C3E1B9480368B94A1A4063691B0295
:1024D000134303600298002810D10868BE4A0240E6
:1024E000206910430860BD480968C90A4A07520FAD
:1024F0003100914000F093FEB9490860B948006886
:1025000000F0E6FE002838D001209FE1E0680028B6
:1025100021D0644F3868B0490140206908433860D1
:1025200038688021490001433960FFF789FC0500C4
:102530003868400506D4FFF783FC401B0328F7D317
:10254000032083E199480168994A0A4061690902B8
:102550001143016011E0534F3868BD4901403960B3
:10256000FFF76EFC05003868400506D5FFF768FCEC
:10257000401B0328F7D3032068E12078000734D5F7
:102580004648006838210140182908D1B148006840
:1025900080072AD5A069002827D1012056E1A0692B
:1025A000002810D0AB4F386830433860FFF748FC44
:1025B00005003868800718D4FFF742FC401B032849
:1025C000F7D3032042E1A34F3868012188433860E4
:1025D000FFF736FC05003868800706D5FFF730FCAA
:1025E000401B0328F7D3032030E10427206838403C
:1025F000002800D18FE00020694608702748006855
:102600003821014020290AD193480068800700D46E
:1026100081E0A068002800D07DE0012016E1802044
:1026200040058E490968014000290AD18B490A6892
:1026300002430A6009680840039003983000694625
:10264000087087480068C00514D485480068802158
:102650004900014382480160FFF7F2FB0500804812
:102660000068C00506D4FFF7EBFB401B0328F6D338
:102670000320EBE0A068012804D1774801680E43ED
:1026800006601AE0A06805280ED1734801680F4360
:10269000076001680E4306600FE000BF08100240AB
:1026A0000C100240001002406B4801680122914367
:1026B00001600168042291430160A06800280ED0E7
:1026C000FFF7BEFB05006448006880071AD4FFF7D7
:1026D000B7FB401B63498842F5D30320B6E0FFF700
:1026E000AFFB05005C48006880070BD5FFF7A8FB2F
:1026F000401B5C498842F5D30320A7E0FFFFFEFFA3
:10270000FFFFFBFF68460078012804D153480168A9
:10271000554A0A400260E069002800D195E053481C
:10272000006838210140102964D0E069022841D1B5
:10273000AE4F3868AE4901403960FFF781FB009029
:102740008026B60438683040002807D0FFF778FBB1
:102750000099401A0328F3D3032077E0A6480168C4
:10276000A44A0A40216A1143626A0A43A16A090223
:102770001143E26A0A43216B1143016039688022E8
:1027800052040A433A600168802252050A430260FB
:10279000FFF756FB050038683040002855D1FFF799
:1027A0004FFB401B0328F6D303204FE004100240E8
:1027B000FF80FFFF8D4E30688D4901403160FFF78B
:1027C0003FFB0500306880010ED5FFF739FB401B49
:1027D0000328F7D3032039E0FFC7FFFF0024F400EC
:1027E000440000204000002083480168834A0A40DA
:1027F00002602AE0E069012801D1012026E07E483C
:102800000068019001988007800F216A88421AD1E0
:10281000019870210140606A814214D10198FE2123
:10282000C9010140A06A000281420CD10198F8213F
:1028300089030140E06A814205D10198400F4007B9
:10284000216B884201D0012000E0002005B0F0BDDE
:10285000FFFEFFFF601002405C1002403C1002408F
:102860000070004089130000FFFFFFEF08100240D6
:10287000F3B581B00400002C01D10120B4E007259C
:102880008C4E306828400299884216D23068072161
:102890008843029901433160FFF7D2FA0090306813
:1028A00028400299884208D0FFF7CAFA0099401AD6
:1028B00081498842F3D3032096E002202168014039
:1028C00000290FD02178490705D57C490A68E02303
:1028D000DB0113430B6079490A68794B1340A26806
:1028E0001A430A602178C90745D56168012905D1D5
:1028F0003E480068800324D4012075E06168022905
:1029000005D13A48006880011BD401206CE0616861
:10291000002905D135480068400512D4012063E044
:102920006168032906D1674909680840002808D171
:10293000012059E0644909680840002801D10120BC
:1029400052E05E4F3868072188436168014339606F
:10295000FFF776FA00903868382101406068C000BF
:10296000814208D0FFF76CFA0099401A5249884218
:10297000F1D3032038E0029831682940884216D20A
:10298000306807218843029901433160FFF758FA04
:102990000090306828400299884208D0FFF750FA2A
:1029A0000099401A44498842F3D303201CE0207860
:1029B000400706D541480168444A0A40E16811438E
:1029C000016000F01DF842493C4A1268120A1207E1
:1029D000120F9200895CC906C90EC8403D490860C3
:1029E0003D48006800F074FCFEBD0000001002408D
:1029F000FFFFFFFE8C80C11F0C100240FCFFFEEFAA
:102A0000FCB538202D490A680240002A0CD101206B
:102A100032490968C90A4907490F88400600304809
:102A2000310000F0FCFB44E00A680240082A01D1B2
:102A30002C483EE00A680240102A2BD12A4F386801
:102A40008007800F0190386800094007400F401C44
:102A50000500019803280AD12248290000F0DFFB75
:102A60003968090A4906490E4843040009E01C4830
:102A7000290000F0D4FB3968090A4906490E484389
:102A800004003868400F401C00902000009900F0BE
:102A9000C6FB0EE00A680240202A02D18020000214
:102AA00007E009680840182802D1FA20C00100E0B8
:102AB0000020F6BD002002408913000008100240EB
:102AC000FFF0FFFF601002405C100240FF8FFFFF2D
:102AD000883300084400002040000020001002401D
:102AE0000024F40000127A000C1002400268334BFC
:102AF00013400B43036070470168E0204004084026
:102B0000704770B40423446907250E001E40B54089
:102B1000AC430D002B4015009D402543456170BC22
:102B2000704710B40422436907200C001440A040F1
:102B300018400A40D04010BC7047F0B41F240F2545
:102B4000866A0F0027402B00BB409E43930E1D401A
:102B50000B001C40A54035438562F0BC7047826A7B
:102B60004B035B0B134383627047826A4B035B0B1F
:102B70009A438262704730B443690C02A3430C024B
:102B800014400F4D25401D43456130BC704781689E
:102B90000C4A0A40802149051143816070478168D1
:102BA0000800C000C00F704781680800C007C00F50
:102BB0007047816808004007C00F7047FFFF3FFE65
:102BC00000FFFF07E8FFFF7FF8B584B0040000278F
:102BD0003800694608703D0001970297002C01D12A
:102BE000012021E13C20205C01282069002803D03D
:102BF0002069802189038842A06D002806D1200029
:102C0000FDF746FEE7653800542160542068FFF761
:102C1000C6FF002811D12068FFF7B9FF844800687B
:102C2000844900F0FCFA401C400002900298002801
:102C300003D00298401E0290F8E72068FFF7AFFF2C
:102C4000002809D1A06D10210143A1650120E16D8B
:102C50000143E165694608702068FFF7AAFF039009
:102C60001026A06D3040002800D0D5E00398002841
:102C700000D0D1E0A06D6D49014002200843A0655D
:102C80002068FFF791FF002800D082E0206B002829
:102C900002D08020400100E038002169002903D5DE
:102CA00021694900490801E080218903A2682A437B
:102CB000237E9B031343627ED2031A43A37E5B03EE
:102CC00013431843E268024311432C20205C450063
:102CD0000D432020205C01280FD1A07E002804D1C4
:102CE000280080256D02054307E0A06D20210143E7
:102CF000A165E06D01210143E165606A002806D00D
:102D0000606AE021490001402943A56A0D4320681B
:102D1000C0684949014029432068C1600198616841
:102D2000890F89070143E06C084301903C20205C37
:102D300001280DD101986168890F89070143206C32
:102D40000843616C0143A06C0843012101430191D8
:102D500020680069394901400198084321680861E9
:102D60006068C0210906884213D060688021C905C7
:102D700088420ED0606880210906884209D0304818
:102D80000268304911406268F0239B0313400B43F3
:102D90000360626B00212068FFF7B3FEA26B2A4933
:102DA0002068FFF7AEFE2069002807D12068806AFE
:102DB0000F21C94301432068816212E0206980210C
:102DC000890388420DD12068806A0F20C043E169E1
:102DD000491E8900C906C90E8840216E014320683A
:102DE000816200212068FFF79CFE616B884207D159
:102DF000E765A06D0221884301210143A16511E02F
:102E0000A06D022188430643A6650120E16D0143C0
:102E1000E1656946087005E0A06D0643A6650120DE
:102E2000694608706846007805B0F0BDFFFEFFFFF8
:102E300044000020400D03000102FEFF02FCFF1FC2
:102E400008270140FFFFC3FF04FFFF07FEB507008F
:102E50000C0000206946087100200290802636068A
:102E60003869B04203D038699B49884200D1FFE7F6
:102E70005420385C012801D102202BE101252800D3
:102E8000542178543868FFF794FE002800D016E1EA
:102E90006068022800D1DEE03869B04203D03869AA
:102EA0008D49884204D121683868FFF758FE86E0D2
:102EB00020684003400B002804D12068800EC00623
:102EC000C00E64E020682840002801D000205EE0A9
:102ED000022021680140002901D0280057E0042287
:102EE00021681140002952D10820216801400029A1
:102EF00001D003204BE0102123680B40002B01D0B0
:102F0000100044E02278920601D505203FE02278A7
:102F1000520601D506203AE02278120601D5072094
:102F200035E02268D20532D42068800501D5092019
:102F30002DE02068400501D50A2028E02068000522
:102F400001D50B2023E02068C00401D50C201EE031
:102F50002068800401D50D2019E02068400401D5C7
:102F60000E2014E02068000401D50F200FE0206837
:102F7000C00301D508000AE02068800301D51120B4
:102F800005E02068400301D5122000E000201F2149
:102F90003A6E0F2365680E002E40B3409A43636873
:102FA0001940884010433866F86961688908491CEF
:102FB000884204D3226861683868FFF7BEFDA268C2
:102FC00021683868FFF7D7FD206800287DD5434D7C
:102FD0002800FFF791FD00902068414988421AD1EE
:102FE0008021090400980840002814D1009801436A
:102FF0002800FFF77BFD3B4800683B4900F00FF9D4
:10300000401C0C2148430290029800285DD0029891
:10301000401E0290F8E72068344988420BD1802195
:10302000490400980840002805D100980143280071
:10303000FFF75CFD49E020682D49884245D1802199
:10304000C9030098084000283FD100980143280098
:10305000FFF74CFD39E03869B04203D038691E49AA
:10306000884203D121683868FFF77FFD2068002877
:103070002BD51A4D2800FFF73FFD00902068184916
:10308000884206D100981B4901402800FFF72EFD19
:103090001BE020681549884206D100981649014076
:1030A0002800FFF723FD10E02068114988420CD169
:1030B0000098124901402800FFF718FD05E0B86D9F
:1030C00020210143B96568460571002054217854D8
:1030D00068460079FEBD000004000080082701401A
:1030E000001000B044000020400D0300004000B874
:1030F000002000B4FFFF7FFFFFFFFFFEFFFFBFFFC9
:1031000010B502004120105C20282AD14020105C1C
:10311000012801D1022025E001200300402413559D
:1031200024234124135513681B680124A343146806
:10313000236013681B68244C1C4013681C601368D0
:103140001B680B431468236013681B6818431368DB
:10315000186020204123D05400204023D054002068
:1031600000E0022010BD10B502004120105C2028B4
:1031700027D14020105C012801D1022022E001204B
:1031800003004024135524234124135513681B685E
:103190000124A3431468236013681B680B4C1C4074
:1031A0000B022343146823601468246820431468C6
:1031B000206020204124105500204024105500207C
:1031C00000E0022010BD0000FFEFFFFFFFF0FFFF57
:1031D0001206130A1A43130C1A4300BF094205D002
:1031E000830705D00270401C491EF9D170470000CA
:1031F0001300103906D330B41400150010393CC048
:10320000FCD230BC490700D30CC000D504C08900F3
:1032100002D30280801C002900D502707047002272
:10322000030A8B420BD203098B4219D243088B420B
:103230002ED2411A00D20146524110467047FF2259
:1032400009023FD012068B4205D3121209028B42AB
:1032500001D31212090203098B4219D300E0090AB3
:10326000C3098B4201D3CB01C01A524183098B425F
:1032700001D38B01C01A524143098B4201D34B0148
:10328000C01A524103098B4201D30B01C01A5241AB
:10329000C3088B4201D3CB00C01A524183088B4232
:1032A00001D38B00C01A524143088B4201D34B001B
:1032B000C01A5241884200D3401A5241CFD201462F
:1032C0001046704708B500F035F808BD7047FEE7B6
:1032D00038B5050000241449087800281ED0FA20CB
:1032E00080000978FFF79BFF010010480068FFF796
:1032F00096FFFEF74DF900280DD1042D08D20022CB
:1033000029000020C043FEF732F90948056007E0B4
:103310000120040004E00120040001E00120040079
:103320002000C0B232BD00BF480000204400002091
:10333000400000207047FEE70080001000084000B9
:10334000000100000000005000000050000000508C
:10335000000800500000005008001000200000018C
:10336000000200000004005000040050000400505F
:103370000004005000040050040000000024F40089
:1033800001000000FEE70000000000000000000057
:10339000000000000000000000000000000000002D
:1033A000000000000000000001000000020000001A
:1033B00003000000040000000600000007000000F9
:1033C000080000000900000070B40123002413E08D
:1033D0000168001D194202D04D466918491E0C6053
:1033E000091D121F042AFAD20D00960701D50C8080
:1033F000AD1C1A4000D02C700268001D002AE7D1D5
:1034000070BC704700B5FEE700B5FEE77047704737
:1034100080B500F00FF801BD80B50448FEF7CEF985
:1034200001BD80B50248FCF7E7FE01BDEC050020B8
:103430009C06002003480168034A1278891801603D
:10344000704700BFA40700204800002030B40122CC
:103450000EE00368C31844680830144202D04D4699
:103460002C19641E1D6825601B1D241D091FF9D120
:103470000168001D0029ECD130BC704710B5074928
:1034800079441831064C7C44163404E0081D0A685F
:10349000891888470100A142F8D110BD080000003A
:1034A0002800000025FFFFFF600700004C000020FF
:1034B0000000000099FFFFFF4C0000007CFEFFFFB2
:1034C000000000200000000000F00DF8002801D0EE
:1034D000FFF7D4FF00BF00BF002000BF00BFFDF713
:1034E00021FB00F002F80120704780B500F002F8DF
:1034F00001BDFEE70746384600F002F8FBE7FEE7AD
:1035000080B500BF00BF024A11001820ABBEFBE728
:10351000260002000548014603B4684680F3098886
:1035200000BF00BF00BF00BFFFF7CEFFA5EDF5FE57
:1035300001488047014800475D35000815350008FF
:10354000FEE7FEE7FEE7FEE7FEE7FEE7FEE7FEE753
:0E355000FEE7FEE7FEE7FEE7FEE7FEE7704758
:0400000508003515A5
:00000001FF
