:020000040800F2
:1000000070730020FD520008D5510008D751000838
:10001000D9510008DB510008DD5100080000000044
:10002000000000000000000000000000DF51000898
:10003000E151000800000000E3510008E55100080C
:1000400015530008195300081D53000821530008D8
:1000500025530008295300082D5300083153000888
:1000600035530008395300083D5300084153000838
:1000700045530008495300084D53000851530008E8
:1000800055530008595300085D5300086153000898
:1000900065530008695300086D5300087153000848
:1000A00075530008795300087D53000881530008F8
:1000B00085530008895300088D53000891530008A8
:1000C00095530008995300089D530008A153000858
:1000D000A5530008A9530008AD530008B153000808
:1000E000B5530008B9530008BD530008C1530008B8
:1000F000C5530008C9530008CD530008D153000868
:10010000D5530008D9530008DD530008E153000817
:10011000E5530008E9530008E9510008ED530008D1
:10012000F1530008F5530008F9530008EF51000897
:10013000FD5300080000000000000000015400080A
:1001400005540008095400080D5400081154000813
:1001500015540008195400081D54000821540008C3
:1001600025540008295400082D5400083154000873
:1001700035540008395400083D54000800000000C0
:1001800000000000415400080000000000000000D2
:100190004554000800000000000000004954000819
:1001A0000000000000000000000000004D540008A6
:1001B0005154000855540008595400085D54000873
:1001C000615400082DE9F0412DED048B0026B04F5D
:1001D0009FEDB08B9FEDB19B8046404601F0B6F895
:1001E00004460D46B0B201F0B1F853EC192B01F002
:1001F000BBF853EC182B01F0B7F841EC100B01F0F1
:10020000A8F953EC102B2046294601F0ADF801F077
:10021000A7F947F8040B761CB0B2B0F5007FDCDB21
:10022000A649A1F80E68BDEC048BBDE8F08130B49E
:1002300000229C4B40F20111044602E08C42FBD3A9
:1002400000241C60521C94B28C4232BF58600024BF
:100250005C60521C95B28D4232BF986000249C6055
:10026000521C95B28D4232BFD8600024DC60521C13
:10027000103394B2B4F5007FE0DB9048A0F80E286C
:1002800030BC704770B400EE100A87480022034665
:10029000B8EE400A40F2FF11DFED840A94B201EE9D
:1002A000104AB8EE411A21EE201A20EE011ABDEED6
:1002B000C11A83ED001A04E08C42EFD10024C0F88B
:1002C000FC47521C95B28D4203D10024C0F8FC4774
:1002D0000CE094B201EE104AB8EE411A21EE201A59
:1002E00020EE011ABDEEC11A83ED011A521C94B220
:1002F0008C4203D10026C0F8FC670BE001EE104AE7
:10030000B8EE411A21EE201A20EE011ABDEEC11AF4
:1003100083ED021A521C94B28C4203D10026C0F81D
:10032000FC670BE001EE104AB8EE411A21EE201AEC
:1003300020EE011ABDEEC11A83ED031A521C1033D0
:1003400094B2B4F5007FB7DB5C48A0F80E2870BC0F
:1003500070470000F0B400EE100AB8EE400A9FEDBE
:10036000541A544920EE011ABDEEC11A40F2011090
:10037000DFED510A81ED001A01220B1D94B201EE4E
:10038000104AB8EE411A21EE201A20EE011ABDEEF5
:10039000C11A11EE104A43F8044B521C94B2521C7D
:1003A00001EE104A95B2521CB8EE411A01EE905A75
:1003B00096B221EE201AF8EE611A02EE106A20EED3
:1003C000011A61EEA01AB8EE422ABDEEC11A60EE23
:1003D000211A22EE202A11EE104AFDEEE11A20EE3B
:1003E000022A521C43F8044B11EE905ABDEEC22A69
:1003F00097B243F8045B12EE106A874243F8046B2D
:10040000BCDB01F2044182B2401CA2F5807283B2CF
:10041000401C01EE102AA3F58073B8EEC11AF7EE66
:10042000001A02EE103A41EE601AB8EEC22AB7EE98
:10043000001A60EE211A02EE601AB7EE002AFDEEF5
:10044000E11A20EE011A11EE902ABDEEC11A41F810
:10045000042B11EE104A82B2A2F5807201EE902AAE
:10046000F8EEE11A01EEE02A20EE022A401CBDEE71
:10047000C22A41F8044B12EE103A84B2B4F5007F60
:1004800041F8043BBFDB0D49A1F80E08F0BC7047F2
:100490000C370020000000000000603F6E861BF05B
:1004A000F92119400C3F00200C4700200000003BC0
:1004B000000000000C4F00200000803B00000020E6
:1004C0002DE9F04FDFF8042CDFF8044C81B02DED5E
:1004D0000A8BD4F82C08D4F82818149FD4F814A840
:1004E00094F90C88B4F80E6809EE900AD4F8200844
:1004F00008EE900A09EE101AD4F81C0804F6180148
:10050000DFED80AA08EE100AC1ED00AA0AEE103A4B
:10051000107A00F00F00401E052800F2D886DFE8B0
:1005200010F0060072044B009F0075008D02DFF88A
:10053000A45BAA465FF00006B0EE480A01F02CF872
:10054000BDEEC00A10EE100A55F820004FEA304008
:10055000C4F81008386038EE2A8AD4F81008786099
:100560009FED690AB4EE408AF1EE10FAA4BFDFED08
:10057000670A38EE208A761C0837B0B2B0F5007FE3
:10058000DADB04F61C0104F6280081ED008A04F68B
:10059000200204F62C01A4F80E6880ED009AC2ED4A
:1005A000008A84F80C88C1ED009AC4F814A8BDEC48
:1005B0000A8B01B0BDE8F08FDFF8685DAA4600261F
:1005C000B0EE480A00F0E8FFBDEEC00A10EE100AD7
:1005D00055F820004FEA3040C4F81008386038EE73
:1005E0002A8AD4F8100878609FED470AB4EE408A52
:1005F000F1EE10FAA4BFDFED450A38EE208A761C32
:100600000837B0B2B0F5007FDADBBAE7DFF8185D83
:10061000AA460026B0EE480A00F0BEFFBDEEC00AB2
:1006200010EE100A55F820004FEA3040C4F81008C8
:10063000386038EE2A8AD4F8100878609FED320AC4
:10064000B4EE408AF1EE10FAA4BFDFED300A38EEC6
:10065000208A761C0837B0B2B0F5007FDADB90E76D
:10066000DFF8C85C00202946002200230A604B60A6
:100670008A60CB60001D1031B0F5007FF6DBC4F856
:1006800030089FEDAACAD4F800082860F4EE4C8A1E
:10069000D4F804186960F1EE10FAD4F80808A860DC
:1006A000C4F80028C4F80428C4F80828DFEDA0AA7C
:1006B00040F2012B9FED9FBADFED9FBA40F2FF1988
:1006C00040F1FE80B0EE680A00F066FFBDEEC00AA1
:1006D00010EE100AB8EEC00A484538EEC00A17D12D
:1006E000F7EE000A70EE200AB0EE001A71EE600A12
:1006F00020EEAB1A21EE201A21EE201A04F600019A
:1007000062E000BF2739BD4100000044000000C482
:10071000B0F5007F22D1B6EE001AF0EE4B0A20EEC3
:10072000011A40EE400A21EE001A04F6000141EEE3
:10073000000AC1ED000AF7EE000A70EE200AF0EEA2
:10074000001A71EEE00A60EEAB1A61EEA01A04F630
:10075000040261EEA01AC2ED001A37E0584535D107
:10076000FFEE000AF6EE001A70EE200AB0EE4B1A09
:1007700060EEA11A00EEE01A61EEA01A04F6000184
:1007800001EEE01A81ED001AF7EE000AF6EE002AFB
:1007900070EE200AB0EE001AB0EE4B2A60EE222A6C
:1007A00071EE600A00EE402A62EE802A04F604022E
:1007B00020EEAB1A02EE802A21EE201A82ED002AEA
:1007C00021EE201A04F6080181ED001A821EB2F50E
:1007D000007FC4F8240816D2F8EE000A70EE200A52
:1007E000B0EE001A05EB800170EE810AA1F108025B
:1007F00060EEAB1A61EEA01A92ED002A083901EE04
:10080000A02A81ED002A421EB2F5007F1AD2FFEE27
:10081000000AF6EE001A70EE200A291FB0EE4B1AFD
:1008200060EEA11A00EEE01A61EEA01A01EB800260
:1008300001EEE01AD2ED000A01EB800171EE200A10
:10084000C1ED000AB0F5007F13D2B6EE001A05EB39
:100850008001F0EE4B0A20EE011A40EE400A21EE34
:10086000001A41EE000AD1ED001A70EEA11AC1ED96
:10087000001A411CB1F5007F18D2F7EE000A70EEA5
:10088000200AB0EE001A291D71EE600A01EB800209
:1008900020EEAB1A15F1040321EE201AD2ED001A56
:1008A00003EB800041EE201AC0ED001A78EEAA8A10
:1008B000F4EE4C8AF1EE10FA3FF504AFB0EE409A38
:1008C0009FED8A0A78EE808ADFF86CCA6146802044
:1008D0009FED870AD5ED000A70EE800AC1ED000A8F
:1008E00095ED011A31EE001A81ED011AD5ED020ADB
:1008F00070EE800AC1ED020A95ED031A31EE001A7E
:1009000081ED031A10351031401EE3D1DFF8303A83
:10091000194662469FED770ADCED000AB0EE601AD8
:1009200009EE801A83ED001A19E000BF0080004430
:10093000CE2BAD41ABAA2A3FABAA2A3E0028EBD072
:100940000D1FD2ED001A95ED001A41EE001AC1ED0F
:10095000001A484504BFD3F8FCE709EE90EA401CB2
:1009600006D1B0EE601A09EE801A83ED001A09E094
:1009700091ED001AD2ED011A41EE001A4845C1ED81
:10098000011A09D0401C0DD1B0EE601A09EE801A90
:1009900083ED001A10E000BFD3F8FCE709EE90EAFF
:1009A000F0E700BF91ED011AD2ED021A41EE001AF4
:1009B0004845C1ED021A09D0401C0DD1B0EE601AB5
:1009C00009EE801A83ED001A14E000BFD3F8FCE7AB
:1009D00009EE90EAF0E700BF91ED021AD2ED031A9A
:1009E00041EE001AC1ED031A484504BFD3F8FCE7F5
:1009F00009EE90EA401C10321031B0F5007F9DDB0B
:100A00003D464FF40077B8EE4AAA994699ED000AA0
:100A10002AEE000A00F0C0FDBDEEC00A10EE100A7A
:100A20004FEA3040C4F81008286009F10409D4F8EE
:100A30001008686008357F1EE8D1A2E50020214635
:100A4000002200230A604B608A60CB60001D1031D9
:100A5000B0F5007FF6DBC4F830089FEDA6CAD4F8E5
:100A60000008D4F804182060F4EE4C8AD4F8080882
:100A70006160F1EE10FAA060C4F80028C4F8042800
:100A8000C4F80828DFED9CAA40F201259FED9BBA2F
:100A9000DFED9BBA40F2FF1940F11681B0EE680A13
:100AA00000F07AFDBDEEC00A10EE100AB8EEC00AE2
:100AB00078EEC00A4FFA88F100EE101A4845B8EEF9
:100AC000C00A19D1B7EE001A30EE811AF0EE001A02
:100AD00031EEC11A61EE2B1A61EE811A61EE811AB4
:100AE00061EE801A04F600016CE000BF000000C453
:100AF00027393DBDA4707D3FB0F5007F26D1F6EECD
:100B0000001AB0EE4B1A60EEA11A00EEE01A61EE88
:100B1000A01A01EEA01A04F6000121EE001AB7EEA9
:100B2000002A81ED001A30EE822AF0EE002A32EE21
:100B3000C21A61EE2B2A62EE812A62EE812A04F645
:100B4000040262EE802AC2ED002A3DE0A8423BD1B9
:100B5000BFEE001AB6EE002A30EE811AF0EE4B1A04
:100B600021EE022AB6EE003A41EE411A22EE012AA7
:100B7000F0EE4B2A20EE833A42EE411AB7EE001A0D
:100B800030EE811A04F6000140EEE02A23EE203A0E
:100B900021EE802AF0EE001A31EEC11A61EE2B1A16
:100BA00043EE202A04F6040261EE811A81ED002A48
:100BB00022EE803A61EE811A82ED003A61EE801AEF
:100BC00004F60801C1ED001A821EB2F5007FC4F8D8
:100BD000240818D2B8EE001A30EE811AF0EE001A8E
:100BE00031EE211A04EB800121EE2B2A22EE012A9C
:100BF000A1F1080222EE012A92ED001A083902EE54
:100C0000001A81ED001A421EB2F5007F1AD2BFEE23
:100C1000001AB6EE002A30EE811A211FF0EE4B1AB0
:100C200021EE022A41EE411A22EE012A01EB800256
:100C300042EE411A92ED001A01EB800101EE801A9A
:100C400081ED001AB0F5007F13D2F6EE001A04EB26
:100C50008001B0EE4B1A60EEA11A00EEE01A61EED0
:100C6000A01A01EEA01A91ED002A01EE002A81EDF2
:100C7000002A411CB1F5007F1AD2B7EE001A30EEFF
:100C8000811AF0EE001A31EEC11A61EE2B1A211D05
:100C900061EE811A01EB800261EE811A14F1040306
:100CA00092ED001A03EB800001EE801A80ED001A2D
:100CB00078EEAA8AF4EE4C8AF1EE10FAC8F1000838
:100CC0003FF5ECAEB0EE609A9FED7B0A78EE808A3D
:100CD000DFF86C36002019464FEA04029FED770AD0
:100CE000D4ED000AB0EE601A09EE801A83ED001A06
:100CF00019E000BF00800044CE2BAD40ABAA2A3FD4
:100D0000ABAA2A3E0028EBD00D1FD2ED001A95EDBC
:100D1000001A41EE001AC1ED001A484504BFD3F88D
:100D2000FCC709EE90CA401C06D1B0EE601A09EE6D
:100D3000801A83ED001A09E091ED001AD2ED011A34
:100D400041EE001A4845C1ED011A09D0401C0DD1F1
:100D5000B0EE601A09EE801A83ED001A10E000BFB1
:100D6000D3F8FCC709EE90CAF0E700BF91ED011A75
:100D7000D2ED021A41EE001A4845C1ED021A09D01F
:100D8000401C0DD1B0EE601A09EE801A83ED001AF6
:100D900014E000BFD3F8FCC709EE90CAF0E700BF2B
:100DA00091ED021AD2ED031A41EE001AC1ED031AB9
:100DB000484504BFD3F8FCC709EE90CA401C103266
:100DC0001031B0F5007F9DDB3D464FF40077B8EE63
:100DD0004AAA994699ED000A2AEE000A00F0DCFBC7
:100DE000BDEEC00A10EE100A4FEA3040C4F81008F9
:100DF000286009F10409D4F81008686008357F1EDE
:100E0000E8D1FFF7BEBB00202146002200230A6084
:100E10004B608A60CB60001D1031B0F5007FF6DBBF
:100E2000C4F830089FEDA5CAD4F80008D4F8041817
:100E30002060F4EE4C8AD4F808086160F1EE10FAF4
:100E4000C4F80800C4F80028C4F80428C4F8082826
:100E5000DFED9BAA40F201259FED9ABADFED9ABA29
:100E600040F2FF1940F11481B0EE680A00F094FBE3
:100E7000BDEEC00A10EE100AB8EEC00A78EEC00A45
:100E80004FFA88F100EE101A4845B8EEC00A17D1A3
:100E9000B7EE001A30EE811AF0EE001A31EEC11AE8
:100EA00061EE2B1A61EE811A61EE811A61EE801AF1
:100EB00004F600016AE000BF000000C4A4707D3F9A
:100EC000B0F5007F26D1F6EE001AB0EE4B1A60EEB8
:100ED000A11A00EEE01A61EEA01A01EEA01A04F6C3
:100EE000000121EE001AB7EE002A81ED001A30EE63
:100EF000822AF0EE002A32EEC21A61EE2B2A62EE4E
:100F0000812A62EE812A04F6040262EE802AC2ED92
:100F1000002A3DE0A8423BD1BFEE001AB6EE002AFF
:100F200030EE811AF0EE4B1A21EE022AB6EE003AAC
:100F300041EE411A22EE012AF0EE4B2A20EE833ACE
:100F400042EE411AB7EE001A30EE811A04F60001A3
:100F500040EEE02A23EE203A21EE802AF0EE001A3D
:100F600031EEC11A61EE2B1A43EE202A04F6040278
:100F700061EE811A81ED002A22EE803A61EE811A3B
:100F800082ED003A61EE801A04F60801C1ED001A04
:100F9000821EB2F5007FC4F8240818D2B8EE001AF9
:100FA00030EE811AF0EE001A31EE211A04EB8001C6
:100FB00021EE2B2A22EE012AA1F1080222EE012ABB
:100FC00092ED001A083902EE001A81ED001A421E55
:100FD000B2F5007F1AD2BFEE001AB6EE002A30EE4C
:100FE000811A211FF0EE4B1A21EE022A41EE411A1E
:100FF00022EE012A01EB800242EE411A92ED001A24
:1010000001EB800101EE801A81ED001AB0F5007F3E
:1010100013D2F6EE001A04EB8001B0EE4B1A60EE2C
:10102000A11A00EEE01A61EEA01A01EEA01A91EDED
:10103000002A01EE002A81ED002A411CB1F5007F53
:101040001AD2B7EE001A30EE811AF0EE001A31EE25
:10105000C11A61EE2B1A211D61EE811A01EB80028B
:1010600061EE811A14F1040392ED001A03EB800083
:1010700001EE801A80ED001A78EEAA8AF4EE4C8A0E
:10108000F1EE10FAC8F100083FF5EEAEB0EE609A4E
:101090009FEDA70A78EE808ADFF8A8520020294643
:1010A0004FEA04029FEDA30AD4ED000AB0EE601AE5
:1010B00009EE801A85ED001A1FE000BF0080004491
:1010C000CE2BAD40ABAA2A3FABAA2A3EE0160020A9
:1010D000000000200C4F00200028E5D00B1FD2EDAF
:1010E000001A93ED001A41EE001AC1ED001A4845AE
:1010F00004BFD5F8FC3709EE903A401C06D1B0EE9B
:10110000601A09EE801A85ED001A09E091ED001AC7
:10111000D2ED011A41EE001A4845C1ED011A09D07D
:10112000401C0DD1B0EE601A09EE801A85ED001A50
:1011300010E000BFD5F8FC3709EE903AF0E700BFA9
:1011400091ED011AD2ED021A41EE001A4845C1EDA7
:10115000021A09D0401C0DD1B0EE601A09EE801AB7
:1011600085ED001A14E000BFD5F8FC3709EE903A7F
:10117000F0E700BF91ED021AD2ED031A41EE001A1A
:10118000C1ED031A484504BFD5F8FC3709EE903A83
:10119000401C10321031B0F5007F9DDBD5F80008FF
:1011A000DFF89C3100EE900A002019464FEA050254
:1011B00095ED001AF0EE411A40EE801AC3ED001AC8
:1011C00011E00028F4D0A1F1040E92ED002ADEED2A
:1011D000001A01EE802A81ED002A484504BFD3F8A9
:1011E000FCE700EE90EA401C06D1F0EE411A40EE1A
:1011F000801AC3ED001A09E0D1ED001A92ED012A20
:1012000001EE802A484581ED012A09D0401C0DD10C
:10121000F0EE411A40EE801AC3ED001A10E000BF54
:10122000D3F8FCE700EE90EAF0E700BFD1ED011A39
:1012300092ED022A01EE802A484581ED022A09D06A
:10124000401C0DD1F0EE411A40EE801AC3ED001A99
:1012500014E000BFD3F8FCE700EE90EAF0E700BF2F
:10126000D1ED021A92ED032A01EE802A81ED032AC4
:10127000484504BFD3F8FCE700EE90EA401C10326A
:101280001031B0F5007F9CDB05F600003D46C0ED57
:10129000000A4FF40077B8EE4AAA994699ED000A81
:1012A0002AEE000A00F078F9BDEEC00A10EE100A2E
:1012B0004FEA3040C4F81008286009F10409D4F856
:1012C0001008686008357F1EE8D1FFF75AB91E4D37
:1012D000AA460026B0EE480A00F05EF9BDEEC00A4C
:1012E00010EE100A55F820004FEA3040C4F81008FC
:1012F000386038EE2A8AD4F8100878609FED0F0A1B
:10130000B4EE408AF1EE10FAA4BFDFED090A38EE20
:10131000208A761C0837B0B2B0F5007FDADBFFF721
:1013200030B900000C4700200C3F00200C57002073
:10133000000000C4A4707D3F0C5F0020000000444A
:101340000C670020500800200C37002050B1B0FA84
:1013500080F18840C91CC1F58461090501EBD021E9
:10136000400570470146704730B540F2FF7C1CEAEB
:1013700011541DBF1CEA1355644565453FE06419CF
:1013800081EA030C6FF35F530CF0004C43F48013BD
:10139000C90241F0004141EA505EC5021100A5FBBF
:1013A000020200284FF00000EEFB01204FF0000188
:1013B000E3FB052118BF42F001024018002149411A
:1013C000E3FB0E01A4F580640D0302D292184041A4
:1013D000494154F1010470DD450872F1004250F1B9
:1013E000000051EB0451A1F5801102D441EA0C0137
:1013F00030BD40F2FF7E4CEA0E51002030BD0CEAB9
:101400001355644518BF654581EA030C0CF0004C88
:1014100041D050EA410E1CBF52EA430E02E0614641
:10142000002030BD24422C441BD15FEA050EF6D0CB
:10143000090302BF01460020AEF1140EB1FA81F596
:10144000AEEB050401FA05FE0C35C5F1200100FAEA
:1014500005F5C8404EEA000E6FF35F5343F4801366
:101460009CE733F00043B3FA83F504BFB2FA82FE7F
:1014700075440B3D641BB5F1200E2FBF02FA0EF32D
:10148000AB40C5F1200E22FA0EFE38BF43EA0E0330
:10149000AA40641C7CE750EA410E14BF52EA430E96
:1014A0006FF000014FF4001515EB430F8EBF194686
:1014B00015EB410F9DE7B4D830BDD4F10104B4F170
:1014C00020050FDAC4F12005520828BF42F00102BE
:1014D00010FA05FE01FA05F57244E2BFE040284328
:1014E000E1400FE0352C9ADCC5F1200452EA4002BD
:1014F00020FA05F218BF42F0010231FA05F0A140CE
:101500000A43002172F1004250F1000051EB0C013E
:1015100030BD30B5016884684218416802EB510360
:10152000C90703D54C4401E0491C08D19A4218BFB1
:1015300012F9011B01D10C3030BD12F8015B0029FA
:1015400004F8015BF0D4491EF7D5EFE741EC100B2E
:1015500001BD80B551EC100B00F03CFAF6E700003D
:10156000C1F30A5340F21E42D31A0CDDCA0283F3C0
:10157000070342EA505242F00042DA4002EBE172C5
:1015800082EAE17070476FEAE17203F2E13008B17C
:1015900082F000407047000010EE100AF44600F0A0
:1015A00003F800EE100A6047C0F3C7527E3A09DD27
:1015B000182A0EDA6FF07F41D140004248BF401830
:1015C00088437047C0421CBF0020CBF6807038BFF4
:1015D00000207047F8B52DED068B174641EC180B2F
:1015E000DFF86023DFF86033FFF7BEFE41EC190B34
:1015F0000C4624F00041DFF85423DFF8543300F0A8
:10160000EBF958D29FEDCD0B51EC100B04F00044D8
:10161000214353EC192B00F0F9F9FFF7A1FF060065
:1016200045D000F01BFB0022CB4BFFF79DFE41ECA9
:10163000190B4FF0A042C94BFFF796FE53EC182B45
:1016400000F0E4F904460D4651EC190B4FF0C0428E
:10165000C34BFFF789FE22462B4600F0D7F904461C
:101660000D4651EC190B4FF00052BE4BFFF77CFEBC
:1016700022462B4600F0CAF904460D4651EC190BE0
:101680000022B94BFFF770FE22462B4600F0BEF950
:1016900004460D4651EC190B4FF00052AD4BFFF7CD
:1016A00063FE22462B4600F0B1F941EC180B06F020
:1016B0000306F719AEE053EC182B590041EAD2713A
:1016C0004815C91710F1010F14D14FF0FF34A14292
:1016D00008BFA04208D11B0343EA12531203002B98
:1016E00008BF002A40F02581BDEC068B20466FF034
:1016F0000041F4BD22F0000033F0004108BF002893
:1017000005D1002F00F015819FED988B11E19FED21
:101710008B0B51EC100B04F00044214353EC192BBC
:1017200000F074F94B0043EAD073420041EC190B0E
:10173000002B08BF002A19D040F23344A4EB5354C5
:10174000352C04DB00F0000001F000410CE0202CFF
:1017500003DD203CE140A14000E001D1002003E096
:10176000002CC4BFE040A04041EC190B51EC190B18
:1017700020F0000231F0004308BF002A43D00022CD
:10178000754BFFF7F1FD41EC1A0B4FF0A042734B84
:10179000FFF7EAFD53EC182B00F038F904460D462C
:1017A00051EC1A0B4FF0C0426D4BFFF7DDFD2246A6
:1017B0002B4600F02BF904460D4651EC1A0B4FF066
:1017C0000052684BFFF7D0FD22462B4600F01EF971
:1017D00004460D4651EC1A0B0022634BFFF7C4FD83
:1017E00022462B4600F012F904460D4651EC1A0B26
:1017F0004FF00052574BFFF7B7FD22462B4600F043
:1018000005F941EC180B51EC190BFFF7A9FE00F09C
:101810000300C71951EC180B21F0004100224FF0D2
:10182000795300F0D9F804D2F8077AD59FED4F8BA1
:1018300077E051EC180B53EC182BFFF795FD41ECBA
:10184000190BF80731D551EC190B4A4A4A4BFFF7EF
:101850008BFD4A4A4A4B00F0D9F853EC192BFFF79D
:1018600083FD484A484B00F0D1F853EC192BFFF7A1
:101870007BFD464A464B00F0C9F853EC192BFFF7A5
:1018800073FD444A444B00F0C1F853EC192BFFF7A9
:101890006BFD6FF05102414B00F0B8F853EC192B7F
:1018A000FFF762FD00223E4B37E051EC180B53EC82
:1018B000192BFFF759FD04460D4651EC190B394A17
:1018C000394BFFF751FD394A394B00F09FF853EC83
:1018D000192BFFF749FD374A374B00F097F853ECC7
:1018E000192BFFF741FD354A354B00F08FF853ECCB
:1018F000192BFFF739FD334A334B00F087F853ECCF
:10190000192BFFF731FD314A314B00F07FF82246A9
:101910002B46FFF729FD53EC182B00F077F841EC2C
:10192000180BB80705D551EC180B81F0004141ECBC
:10193000180B51EC180BBDEC068BF4BD0000000039
:101940000000E03F83C8C96D305FE43F0000A0FFA6
:10195000FFFFDF419A833BBB0000303EFB21B9C152
:10196000B41011C026A651BE5C14D3BC0000000008
:101970000000F03F09260A1039BA213E3BA861C693
:10198000F97D92BE63AC30909F01FA3EF6FB511692
:101990006CC156BFB10255555555A53FFFFFDFBF7E
:1019A0000000F03FB08F2FC310D8E53D8F0C73A11E
:1019B000E1E55ABE4DADE44FE31DC73E3EE3B51928
:1019C000A0012ABFFAF010111111813F425555555F
:1019D0005555C5BF0022FDE541EA030C50EA4C0C09
:1019E00052EA0C0C4FF4001C09D307D01CEB410F3A
:1019F0009CBF1CEB430F8B4208BF824270471CEB1D
:101A0000430FFBD8994208BF9042704770B491EAE7
:101A1000030F4FF0004540F1B7806B40841A71EB23
:101A2000030604D26E40001BB141121973414FF4FA
:101A3000001C1CEB410F34BF7CEB430683E00C0D14
:101A4000A4EB1356362E00F37C80012E45EAC32307
:101A500041DC43EA525312BFD20292025B082405D2
:101A600045EAC12141EA5051D2EBC020994125D429
:101A700007D1B0FA80F610FA06F162D000202036C5
:101A800008E0B1FA81F6B140C6F1200220FA02F274
:101A90001143B0404FEAF474B4EB465434F00106FD
:101AA0004FEA74040AD8D6F50016760D04F0004407
:101AB000F04061FA06F25040F1404840C00A40EA66
:101AC000415021F0004128BF5FEA500550F100006D
:101AD00044EBD12135E0DB0A45EAC121C90AB6F160
:101AE00020050EDD42EA0242120CC5F1200603FA7F
:101AF00006F6EB4042EA06056D42984161F10001AD
:101B00000DE062FA06F5F240554063FA06FC82EAFF
:101B10000C02F3405A406D42904161EB030111F415
:101B2000801F05D1641E620502D06D00404149410D
:101B300021F48011430875F1004350F1000041EB9E
:101B4000045170BC70471CEB410F15D223F00043C9
:101B500052EA43060BD04FEA4C0CBCEB410F04D8C1
:101B60000C0D661E342EB7DDEBE7801A994150EA62
:101B7000410608BF0021E4E708BF1CEB430F28BF64
:101B80006FF00001DDE70000841A71EB030603D259
:101B9000001BB141121973414FF4001C1CEB410FA3
:101BA00034BF7CEB430442E00C0DA4EB1356352EFE
:101BB0004FDC45EAC323DB0A45EAC121C912B6F16D
:101BC00020050DDD63FA05F6EB4086EA03051242B7
:101BD00018BF45F00105C01851F100010CD213E007
:101BE00062FA06F5F2405540F3415A40B340F340E3
:101BF0005A408018594107D349085FEA30005FEA2C
:101C0000350528BF45F0010501F58011420875F141
:101C1000004250F1000041EB04514E0016F5001F48
:101C200070BC38BF70470020090D090570471CEBD8
:101C3000410F10D252EA43060BD0BCEB410F05D83E
:101C40000C0DAB43661E342EB6DD02E0AB438018AC
:101C5000594170BC704770BC7047000010F00041E3
:101C600060B148BF4042B0FA80F29040D21CC2F549
:101C7000846241EA025202EBD02140057047000025
:101C80002DE9F043064681B0307800250024C107D5
:101C9000DFF880760AD5D7F88C00B16B20F0C060F1
:101CA0000843C7F88C00B06B00B901253078810774
:101CB0000AD5D7F88C00F16B20F0C0500843C7F864
:101CC0008C00F06B00B90125307841070FD5D7F8AB
:101CD0008C20306B22F440120243C7F88C20306B0A
:101CE000B0F5801F08BF012501D000B9012430786C
:101CF00001070FD5D7F88C20706B22F44002024305
:101D0000C7F88C20706BB0F5800F08BF012501D09B
:101D100000B901243078810667D500200090396C25
:101D2000DFF8F48541F080513964386C00F0805060
:101D300000900098D8F8001041F48071C8F80010A5
:101D400000F0CEFC4FEA0009D8F80000C10509D424
:101D500000F0C6FCA0EB09000228F5D9032001B071
:101D6000BDE8F083386F10F440701EBF316C01F491
:101D70004071884220D0396FDFF8A0050122C0F8F9
:101D8000D82D0023C0F8D83D21F440713967386F51
:101D9000C10711D500F0A4FC804641F28939386FA3
:101DA000810709D400F09CFCA0EB08004845F6D35D
:101DB000032001B0BDE8F083316C01F44070B0F550
:101DC000407F08D1BA68DFF8580522F4F8120140C4
:101DD0001143B96003E0B86820F4F810B860386FB8
:101DE000316CC1F30B01084338673078C10604D564
:101DF00096F85800DFF82C1508603278100607D5E1
:101E0000D7F89410F06C21F440010143C7F8941006
:101E10003178480607D5D7F89410B06C21F080616E
:101E20000143C7F894103168C8050CD5D7F8941051
:101E3000706D21F000610143C7F89410716DB1F12C
:101E4000006F08BF01243168880507D5D7F89410C2
:101E5000706C21F080510143C7F894103168480537
:101E60000BD5D7F89410306D21F000510143C7F81D
:101E70009410316DB1F1005F05D025B93068B0F52F
:101E8000006F40F09C80DFF894540020286000F040
:101E900027FC80463968080109D500F021FCA0EB39
:101EA00008000228F6D9032001B0BDE8F0833168AC
:101EB000CA0701D5B06B18B1890714D5F06B90B97A
:101EC000D7F88400D7F884107268B36842EA8312A6
:101ED00000F44030104301F070610843716940EA3A
:101EE0000170C7F884003068410703D5326BB2F542
:101EF000801F05D000071FD5716BB1F5800F1BD176
:101F0000D7F88400D7F884107268B36842EA831265
:101F100000F440301043326940EA026001F0E041D1
:101F20000843C7F88400D7F88C00B16A4009491EFD
:101F300041EA4010C7F88C00306841051AD5306D71
:101F4000B0F1005F16D1D7F88400D7F8841072681A
:101F5000B36842EA8312F3685B085B1EC0F301407A
:101F600042EA0342401C42EA406201F0E041114370
:101F7000C7F884103068010510D5F2687068B16840
:101F8000520840EA8110521E316940EA02407269EB
:101F900040EA016040EA0270C7F88400012028602E
:101FA00000F09EFB05463968080108D400F098FB54
:101FB000401B0228F7D9032001B0BDE8F083002CB4
:101FC0005BD0DFF858430020A06000F089FB054695
:101FD0003868810008D500F083FB401B0228F7D940
:101FE000032001B0BDE8F08331684A0701D5306BAA
:101FF00018B1090719D5706BB8B9D7F88800B1695D
:10200000F26941EA821100F440300843716A40EA03
:102010000160C7F88800D7F88C00F16A20F4F85006
:10202000491E40EA0120C7F88C003068C10513D56D
:10203000706DB0F1006F0FD1D7F88800336AB169C5
:10204000F2695B0841EA82115B1E41EA034100F03C
:1020500070600843C7F888000120A06000F040FBD2
:1020600004463868810008D400F03AFB001B0228BF
:10207000F7D9032001B0BDE8F083002001B0BDE82E
:10208000F08300000021401E0728DFF8382600F208
:10209000F780DFE800F081A6F504F5F5F504D2F845
:1020A000880010F4700014D0B0F5801F32D0B0F565
:1020B000001F50D0B0F5401F00F0A380B0F5800F96
:1020C00028D0B0F5000F46D0B0F5400F60D00846DC
:1020D00070471068410254BFDFF8EC05DFF8EC05EB
:1020E000D2F88410D2F8843001F03F01B0FBF1F156
:1020F000D2F88400D2F88820C0F388104143C3F39B
:102100000360B1FBF0F0C2F30421491CB0FBF1F114
:10211000084670471068410254BFDFF8AC05DFF88D
:10212000AC05D2F88010D2F8803001F03F01B0FB4E
:10213000F1F1D2F88000D2F88820C0F38810414332
:10214000C3F3036002F01F02B1FBF0F0521CB0FBBE
:10215000F2F1084670471068410207D41368DFF8AF
:10216000680503F03F03B0FBF3F106E01168DFF808
:102170005C0501F03F01B0FBF1F113681068C0F39A
:1021800088104143C3F30270B1FBF0F10846704779
:10219000106841026ED471E0D2F8880010F0C0607F
:1021A0000AD0B0F1007F2CD0B0F1806F42D0B0F1F6
:1021B000C06F5CD008467047106841024CBFDFF822
:1021C0000C05DFF80405D2F8801001F03F01B0FBE8
:1021D000F1F1D2F88000C0F388104143D2F88000BA
:1021E0003FE0D2F8880010F0C0500ED0B0F1006F80
:1021F00007D0B0F1805F1DD0B0F1C05F37D0084686
:102200007047DFF8CC1408467047106841024CBF95
:10221000DFF8B804DFF8B004D2F8801001F03F0115
:10222000B0FBF1F1D2F88000C0F388104143D2F83E
:10223000800016E01168480207D51368DFF88C1497
:1022400003F03F03B1FBF3F106E01168DFF8780417
:1022500001F03F01B0FBF1F11068C0F38810414379
:102260001068C0F30270B1FBF0F1084670471168C6
:10227000480203D5DFF8541408467047DFF84814C5
:102280000846704730B5DFF83C44606800F00C0049
:10229000042806D0082807D00C2823D0DFF828040B
:1022A00030BDDFF8280430BD2268206800234102D9
:1022B00002F03F0205D52568DFF81014C5F3881039
:1022C00004E02068DFF80014C0F38810A1FB0001CF
:1022D00000F00CFA2168C1F30141491C4900B0FB30
:1022E000F1F030BD0023226820684102206802F02E
:1022F0003F02C0F388104CBFDFF8D013DFF8C813DB
:10230000A1FB000100F0F2F92168C1F30271B0FBFA
:10231000F1F030BD003802400070004068004742D4
:10232000FFFCFF0FE01147422DE9F041040082B0AD
:1023300000F0BF812078DFF89C63C1071BD5B0682F
:1023400000F00C0004280FD0B06800F00C00082842
:1023500002D17068410207D4B06800F00C000C286C
:102360004AD17068410247D53068810303D560685F
:10237000002800F09E812178880721D5B16811F0EE
:102380000C0F0FD0B06800F00C00082802D1706864
:10239000410207D5B06800F00C000C2867D17068C6
:1023A000410264D43068810703D5E068012840F019
:1023B00080813168206921F0F80141EAC001316073
:1023C0002178080740F190806069DFF80C1300283D
:1023D00079D00122C1F8802E00F082F90546706F95
:1023E000810700F1818000F07BF9401B0228F6D9BB
:1023F000032002B0BDE8F0816068B0F5803F04D1F1
:10240000306840F48030306011E0B0F5A02F3068C3
:1024100006D140F480203060316841F4803105E01D
:1024200020F480303060316821F4802131606068B0
:1024300070B100F055F90546306881039BD400F077
:102440004FF9401B6528F7D3032002B0BDE8F081A7
:1024500000F046F90546306881038CD500F040F95C
:10246000401B6528F7D3032002B0BDE8F081E06887
:102470009949C0B101220A6000F032F9054630687E
:10248000810708D400F02CF9401B0228F7D903205B
:1024900002B0BDE8F0813068216920F0F80040EA20
:1024A000C10030608CE7086000F01AF90546316819
:1024B000880785D500F014F9401B0228F7D90320BE
:1024C00002B0BDE8F081C1F8800E00F009F90546C0
:1024D000706F810708D500F003F9401B0228F7D977
:1024E000032002B0BDE8F0812078410768D5306C48
:1024F0000025C1000BD4002000900125316C41F073
:1025000080513164306C00F0805000900098734F1F
:102510003868C10513D4386840F48070386000F022
:10252000DFF880463868C10509D400F0D9F8A0EB7F
:1025300008000228F6D9032002B0BDE8F081A068A7
:10254000012803D1306F40F001000FE00528306F03
:1025500006D140F004003067306F40F0010005E024
:10256000400840003067306F20F00400306741F2CF
:102570008937A06878B100F0B3F88046306F8107E2
:1025800019D400F0ADF8A0EB0800B842F6D3032050
:1025900002B0BDE8F08100F0A3F88046306F8107FB
:1025A00009D500F09DF8A0EB0800B842F6D303204F
:1025B00002B0BDE8F0811DB1306C20F08050306475
:1025C000A069002879D0B16801F00C01082947D032
:1025D0000228414D33D10020286600F081F80746DB
:1025E0003068810108D500F07BF8C01B0228F7D9BC
:1025F000032002B0BDE8F081E069216A626A084305
:10260000A16A490840EA8210491E40EA0140E16A95
:10261000226B40EA016040EA027070600120286687
:1026200000F05EF804463068810146D400F058F8A6
:10263000001B0228F7D9032002B0BDE8F08100207A
:10264000286600F04DF804463068810135D500F069
:1026500047F8001B0228F7D9032002B0BDE8F0813B
:10266000012826D07068E26900F48001914202BF1F
:1026700000F03F01226A914201BF47F6C07101405C
:10268000626AB1EB821F14D1A26A00F4403101F5F5
:1026900080315208B1EB024F02BF00F07061E26A74
:1026A000B1EB026F02BF00F0E040216BB0EB017FA5
:1026B00003D0012002B0BDE8F081002002B0BDE8E7
:1026C000F0810000043802400024F40000127A0077
:1026D0000080BB000038024000004742007000400C
:1026E00001484068704700BFFC360020BBBBE1B129
:1026F000B2F5803F80F07E80022A1ED98C46B1FB65
:10270000F2F102FB11C31B0443EA1043B3FBF2FCDA
:1027100002FB1C3380B240EA0343B3FBF2F002FB3E
:10272000103240EA0C4000237047022A05D9844643
:10273000B0FBF2F002FB10C270474AB105D100F0C5
:10274000010249085FEA3000704700220023704709
:1027500000F0E4B80B000200002100207047904216
:1027600071EB030CF6D3B3F5803F2FD2F0B5B3FA7B
:1027700083F7B1FA81F4A7F10F0E3D1B5340CEF160
:10278000200602FA0EF2F3415340B5F10F0746D886
:102790000F3C2C444140C4F12006A040F14141408F
:1027A000B1FBF3F603FB1611A2FB0645001BA94182
:1027B00002D2761E8018594180EA010221FA0EF3F6
:1027C00062FA0EF200215A403046F0BD30B4B1FB3F
:1027D000F3FC03FB1C11A2FB0C45001BA94103D217
:1027E000ACF1010C8018594130BC02460B466046E2
:1027F00000217047B2F1807F65D3F0B5B2FA82F75D
:10280000B1FA81F4C7F10F063D1B22FA06F307F176
:10281000110EF24120355A40B5F10F07B8D94140A9
:10282000C4F12006A040F1414140B1FBF3FC03FBA1
:102830001C11A2FB0C45001BA94103D2BCF1010CE9
:10284000801859410F2F12D30F3FC90341EA50415D
:10285000B1FBF3F603FB1611A2FB0645D4EBC03027
:10286000A94102D2761E8018594146EACC3C07B3F2
:102870004140C7F12006B840F1414140B1FBF3F6B9
:1028800003FB1611A2FB0645001BA94102D2761ECE
:102890008018594180EA010221FA0EF3C7F12004A1
:1028A00062FA0EF20CFA07F05A402CFA04F13043A7
:1028B000F0BD80EA010221FA0EF3002162FA0EF265
:1028C00060465A40F0BD8C46B1FBF2F102FB11C3E9
:1028D0001B0243EA1063B3FBF2FC02FB1C331B0236
:1028E0004CEA002043EA1063B3FBF2FC02FB1C330A
:1028F0001B024CEA002043EA1063B3FBF2FC02FB2C
:102900001C331B024CEA002043EA1063B3FBF2FCC9
:1029100002FB1C324CEA0020002370477047000085
:10292000F0B5040081B026D094F83D0028B900210C
:1029300084F83C10204600F052FB242184F83D101E
:10294000206802685208520002602068016841F461
:10295000004101602068026822F40042026000F039
:102960005FFD01466068DFF82026904206D2DFF85E
:102970001C36994206D2012001B0F0BDDFF81006E6
:102980008142F8D32068DFF80C564668A1FB055356
:10299000DB0CB60943EA8616466025682E6A606835
:1029A000904208D34FF4967010FB03F3DFF8E8056C
:1029B000A3FB00C77B0A5B1CB60943EA86132B62A4
:1029C000491E2368DD696668964209D27600B1FB2C
:1029D000F6F1491CC1F30B01042919D2042117E0B7
:1029E000A06838B906EB4606B1FBF6F1491CC1F305
:1029F0000B0108E019204643B1FBF6F1491CC1F375
:102A00000B0141F4804108050CBF012141F4004154
:102A1000DFF8880505400D43DD6122681368E16930
:102A2000206A23F0C0030B43034313602268DFF8DE
:102A30007005936821690340E0680B43034393608A
:102A40002268D368A16960691B0A41EA0323034332
:102A5000D3602068016841F001010160002020641A
:102A6000202184F83D102063002184F83E1001B03D
:102A7000F0BD00002DE9F04182B005460E46144637
:102A80009846FFF72DFE074695F83D00202815D102
:102A900029688869810715D5FFF722FEC01B1A280F
:102AA000F6D300202863202185F83D1085F83E00EC
:102AB000296C41F02001296485F83C00022002B015
:102AC000BDE8F08195F83C000128F7D0012185F898
:102AD0003C1028680268D10705D4286802680146BE
:102AE00042F001020A6010212868026822F40062A4
:102AF0000260222085F83D0085F83E100020286401
:102B00006C62A5F82A80688D2885DFF89804E86251
:102B1000E96A2A68136843F4806313600829089CF3
:102B200018BF012904D081421CBF286B112804D191
:102B30002868016841F48071016028684169CA070A
:102B40001ED414F1010FF8D0FFF7CAFDC01B844258
:102B500001D3002CF1D100202863202185F83D10FD
:102B600085F83E00296C41F02001296485F83C007D
:102B700029680A68D0052FD4012002B0BDE8F08191
:102B80002969B1F5804F2ED146F00106F6B20661F3
:102B900029684869820700F1A8804869410540F129
:102BA000978028680268014642F400720A606FF458
:102BB00080602A68506100212963202085F83D004B
:102BC00085F83E10286C40F00400286485F83C101D
:102BD000012002B0BDE8F0814FF40070286402B01B
:102BE0000120BDE8F081F10901F0060848F0F0018C
:102BF0000161286841690A071DD440694105D0D4A4
:102C000014F1010FF5D0FFF76BFDC01B844201D317
:102C1000002CEED100202863202185F83D1085F896
:102C20003E00296C41F02001296485F83C0002B087
:102C30000120BDE8F081F6B2066129684869820783
:102C40000DD448694105ACD414F1010FF5D0FFF75C
:102C500047FDC01B8442DDD3002CEED1DAE7002211
:102C600000924B69009389690091009829680A686D
:102C7000084642F48072026028684169CA0722D47B
:102C800014F1010FF8D0FFF72BFDC01B844201D3D4
:102C9000002CF1D100202863202185F83D1085F813
:102CA0003E00296C41F02001296485F83C00296828
:102CB0000A68D0057FF560AF4FF4007129640120E8
:102CC00002B0BDE8F08148F0F108C0F810805FE77D
:102CD00014F1010F3FF45CAFFFF702FDC01B84420B
:102CE00098D3002C7FF454AF94E7288D08B9009056
:102CF0000AE0012814D108460246016821F48061E7
:102D000011600020009029684A6900928969009149
:102D1000009829680A68084642F40072026029E0B7
:102D200002280DD108460246016821F48061116035
:102D30002868016841F4006101600020009006E00D
:102D40000A68084642F48062026000210091296806
:102D50004A6900928969009100980BE00169686AEC
:102D60000170696A4A1C288D6A62411E2985688D36
:102D7000411E6985288D002800F0F980042880F024
:102D8000AD80012831D1286841694A06E6D44169FD
:102D9000CA0607D4FFF7A4FCC01B844214D3002C3E
:102DA000F1D111E06FF01001416100202863202172
:102DB00085F83D1085F83E00296C296485F83C00B3
:102DC00002B00120BDE8F08100212963202085F8B0
:102DD0003D0085F83E10286C40F02000286485F8FE
:102DE0003C10012002B0BDE8F081022829D12868FA
:102DF000416948070BD414F1010FF8D0FFF770FCBC
:102E0000C01B8442FFF406AF002CF0D102E7296812
:102E100008680A4640F40070106029680869696A09
:102E20000870686A421C288D6A62411E2985688D77
:102E3000411E69852A681069696A0870686A421CBF
:102E400091E72868416948070BD414F1010FF8D0C5
:102E5000FFF746FCC01B8442FFF4DCAE002CF0D12F
:102E6000D8E6296808680A4620F48060106029685E
:102E70000869696A0870686A421C288D6A62411E86
:102E80002985688D411E69852868416948070BD4EA
:102E900014F1010FF8D0FFF723FCC01B8442FFF4AC
:102EA000B9AE002CF0D1B5E6296808680A4640F4AE
:102EB0000070106029680869696A0870686A421CB5
:102EC000288D6A62411E2985688D411E69852A68A0
:102ED0001069696A0870686A421C44E72868416999
:102EE0004A062DD44169CA0607D4FFF7F9FBC01B77
:102EF000844214D3002CF1D111E06FF01001416134
:102F000000202863202185F83D1085F83E00296CBB
:102F1000296485F83C0002B00120BDE8F081002161
:102F20002963202085F83D0085F83E10286C40F08C
:102F30002000286485F83C10012002B0BDE8F08133
:102F40000069696A0870686A421C288D6A62411EBD
:102F50002985688D411E6985286841694A077FF582
:102F600009AF0069696A0870686A421CFBE62020A4
:102F700085F83D00002185F83E10002085F83C00D2
:102F800002B0BDE8F0810000A186010080841E002F
:102F900000093D0006BD3786986E12830030FFFFA2
:102FA000007CFFFF0000FFFF81B0002000900022A6
:102FB000DFF82003416841F480414160416801F439
:102FC0008041009100990092036843F080530360B0
:102FD000006800F080500090009801B0704710B574
:102FE00086B004461422002101A800F039FA2168B5
:102FF000DFF8E402814226D10022DFF8E0420092AD
:103000001222206840F002002060216801F00201D5
:103010000091C0210098DFF8C802019102920021BE
:103020000391032204210591049201A900F022FAE0
:1030300000200090216941F400112161206900F411
:1030400000100090009806B010BD30B59DB0044649
:103050001422002101A800F003FA5C22002106A836
:1030600000F0FEF920689F49884270D13221089112
:10307000022204210692099207910B920A920021E2
:1030800001221092159106A8FEF7FAFD08B100F092
:103090009BFD0020009000229048934D416941F42F
:1030A00080514161416901F4805100910099009281
:1030B000036843F001030360016801F0010100911E
:1030C00000990092B021036843F0040303600222D8
:1030D000006800F00400009000988448019102927A
:1030E0000021039104910521059101A900F0C2F985
:1030F00000220392049210200221019002910522E5
:10310000059201A97A4800F0B5F97A4828604FF095
:10311000C0610020E86069604FF400604FF4806196
:10312000686129614FF480704FF40051E861A96132
:10313000002040224FF440316862AA60296228468C
:1031400000F04AFD08B100F03FFDA563AC631DB07F
:1031500030BD00686849884200D0704700B581B032
:1031600000225C480092016841F0100101600021DA
:10317000006800F0100000900098362000F0F9FE82
:1031800001B05DF804EB362000F01FBF10B586B02B
:1031900004461422002101A800F062F92068574972
:1031A000884224D10020009000224C48416941F01F
:1031B00010014161416901F01001009100990092F4
:1031C0004FF4C061036843F001030360022200680A
:1031D00000F0010000900098444801910292002103
:1031E0000391032207210591049201A926E0444995
:1031F000884225D10020009000223848016941F41E
:1032000080210161016901F48021009100990092FF
:103210004FF48461036843F00403036002220068F2
:1032200000F00400009000983148019102920021C2
:103230000391032207210591049201A900F01AF9D4
:1032400006B010BD10B59EB004461422002101A89E
:1032500000F006F95C22002106A800F001F92068C0
:10326000B0F1A04F34D14FF48071002206911B922F
:1032700006A8FEF705FD08B100F0A6FC0020174CDB
:1032800000900222216841F0010121604FF4C051F9
:10329000206800F00100009000981448019102920B
:1032A0000021039103220A210591049201A900F053
:1032B000E1F8606840F08000606000210091606982
:1032C00040F480406061606900F4804000900098A4
:1032D0001EB010BD4038024000540040303802405B
:1032E00000040240003001400C6F0020000002404A
:1032F00000080240586402400010004000100140E5
:10330000004800402DE9F04104000E4661D04E4DCA
:10331000D5F8000400F00F00B04207D285F8006431
:10332000D5F8000400F00F00B04252D120688107A8
:1033300012D5400703D5A96841F4E051A96020786F
:10334000010703D5A86840F46040A860A968A06898
:1033500021F0F0010143A9602178C8072BD56068EE
:10336000012802D129688A0305E0022818BF032832
:1033700005D129688A0105D40120BDE8F0812968BA
:103380008A0726D5A968890840EA8100A86041F229
:103390008938FFF7A5F90746A868616800F00C00B6
:1033A000B0EB810F07D0FFF79BF9C01B4045F3D36B
:1033B0000320BDE8F081D5F8000400F00F0086423C
:1033C0000AD285F80064D5F8000400F00F00B0427E
:1033D00002D00120BDE8F0812078410705D5AA6818
:1033E000E06822F4E0520243AA602178080706D57B
:1033F000A968206921F4604141EAC001A960FEF793
:1034000041FFAA681149124BC2F30312895CC840FC
:1034100018601048006800F001FE0020BDE8F0814F
:103420000B480D4A006813680C49C3F38222895C7B
:10343000C84070470648084A006813680749C3F344
:103440004232895CC8407047003802408852000808
:103450000837002004370020083802400C530008C9
:1034600010B5044610460A460146204600F0FAFD13
:10347000204610BD2DE9F04F03460C464FF00008E2
:1034800081B0C146C2466B486B490F2201252668B0
:1034900005FA08F505EA060EAE4540F0B9800326A8
:1034A00006FA09F66FEA060C666806F00307012FB4
:1034B0001CBF06F00306022E11D19E68E7680CEAD5
:1034C000060607FA09F73E439E605E6826EA050590
:1034D0006668C6F3001606FA08F635435D6025797E
:1034E00005F00305032D1DD0DD68A6680CEA05056F
:1034F00006FA09F63543DD60257905F00305022D4E
:1035000010D14FEAD80503EB85050AF01C062F6A97
:1035100002FA06FB27EA0B07D4F810B00BFA06F6FE
:103520003E432E621D680CEA0506257905F0030569
:1035300005FA09F545EA060CC3F800C0656815F4FC
:10354000403F65D0002500954FEA980C0E6846F480
:1035500080460E600D68394E05F480450095009D4B
:1035600056F82C600AF00C0502FA05F7BE43344FFA
:10357000BB4214D0334FBB4213D0334FBB4212D0A7
:10358000324FBB4211D0324FBB4210D0314FBB4201
:103590000FD0314FBB4214BF072706270AE0002790
:1035A00008E0012706E0022704E0032702E00427E1
:1035B00000E0052707FA05F53543204E46F82C5064
:1035C0006FEA0E0C856866680CEA0505F70248BFCD
:1035D0004EEA05058560C56866680CEA0505B70210
:1035E00048BF4EEA0505C560456866680CEA0505F2
:1035F000B70348BF4EEA0505456005680CEA050CAF
:103600006568EE0348BF4EEA0C0CC0F800C000BF6E
:1036100008F10108B8F10F0F0AF1040A09F10209D3
:103620007FF634AF01B0BDE8F08F000002B90904A5
:1036300081617047003C0140443802400838014035
:10364000000002400004024000080240000C02405A
:103650000010024000140240001802402DE9F04121
:1036600094B000F033FD342106A800F04BFD01A812
:103670000021002200230EC006C0DFF82085009143
:10368000D8F8100040F08050C8F81000D8F81000AA
:1036900000F0805000900098DFF8040500910121AF
:1036A000026861F38F3202600321006800F4404039
:1036B00000904FF480320098069107920121102269
:1036C00009910A9202214FF480020C910D9204217B
:1036D00048220E910F920221032210911192129111
:1036E00006A8FEF721FE08B172B6FEE70F20019092
:1036F0000021029103910491059101A8FFF702FEB8
:1037000008B172B6FEE701A80021002200230EC016
:1037100006C00091D8F80000DFF88854DFF888442C
:10372000DFF8886440F08000C8F80000D8F8001086
:1037300001F080010091002100980091D8F800204C
:1037400042F00402C8F80020D8F8000000F004009D
:10375000009000980091D8F8002042F00102C8F8CB
:103760000020D8F8000000F00100009000980091BF
:103770004FF48051D8F8002042F00202C8F800202F
:103780000022D8F8000000F00200009000982846BF
:10379000FFF74CFF4FF4805101910122002103916A
:1037A0000491029201A92846FFF764FE00200090D0
:1037B0000022D8F8001041F48001C8F80010002160
:1037C000D8F8000000F48000009000983B2000F042
:1037D000D0FB3B2000F0F9FB04F54060C6F80C0577
:1037E0000020DFF8CC13C6F81405C6F810154FF406
:1037F00080400021C6F81C05C6F81815C6F820152B
:10380000C6F82415C6F82815C6F82C1506F20C5073
:10381000FFF786F808B172B6FEE7DFF89803C6F83E
:10382000600505211020C6F86805C6F86C154BF632
:103830008030C6F8740500214FF40077C6F878157B
:10384000C6F87C15C6F88015C6F86475C6F870759C
:1038500006F5AC6000F05AFC08B172B6FEE728210C
:1038600007A800F04FFC68460021002200230EC08C
:103870000EC0D8F8101041F48041C8F81010D8F8E4
:10388000100000F4804006900698D8F8001041F02F
:103890000401C8F80010D8F8002002F004020692D3
:1038A0000698D8F80010DFF8100341F00201C8F8BC
:1038B0000010D8F8002002F00202069202220699B7
:1038C00000920192032100220392049202910722A6
:1038D0000592694600F0B4FD022201924FF4806126
:1038E0000091002203920492032102910522059285
:1038F0006946284600F0A4FD4FF4404107914FF47B
:10390000827208924FF40061099100220A920B9290
:103910000E920F920C9718210D910A22109207A96E
:10392000DFF89872384600F0FBFD7868DFF89012F7
:1039300020F010007860C6F8A8150020C6F8B00581
:10394000C6F8B405C6F8B8050C21C6F8C005C6F817
:10395000C4054FF4E138C6F8BC15C6F8AC8506F5C9
:10396000B56000F00FFE08B172B6FEE74FF0A04060
:1039700030600621002002223061F0613062706206
:10398000F06230637160F260B261304600F09AFE1E
:1039900008B172B6FEE70021C6F8F815C6F8F405BE
:1039A0000C21C6F80016C6F8FC05C6F8040600216E
:1039B000C6F80816C6F8EC45C6F8F08506F2EC50D5
:1039C00000F0E0FD08B172B6FEE700210022CDE96B
:1039D00000120F20C6F8340642F20F70DFF8E4112F
:1039E000C6F83C06C6F83016C6F83826C6F848268B
:1039F00006F5C66000F042FF08B172B6FEE700218E
:103A00000091019106F5C660694601F07DF808B1A4
:103A100072B6FEE701224FF480512846FFF706FEFA
:103A200038680FF2A81840F04000386006240022E1
:103A30004FF480512846FFF7F9FDB8688107FCD59F
:103A4000B8F80000F860B8688107FCD5B8680106CE
:103A5000FCD4022001F0A2F801224FF48051284644
:103A6000FFF7E4FD0A2001F099F8641E08F102084E
:103A7000DDD10A2001F092F8042086F87C060121AD
:103A80006FF0004086F87B1686F87D16C6F888062B
:103A9000FCF798FBD6F88806FCF7F4FBD6F8880606
:103AA000FCF758FCD6F88806FCF7C1FB06F5D56094
:103AB0000090D6F8883696F87B2696F87D1696F80C
:103AC0007C06FCF7FDFC4FF4006206F5D56106F5B7
:103AD000AC6000F0ADFB86F87806002086F8790629
:103AE000FEF7FEFDC6F88406FEF7FAFDD6F884164A
:103AF000401A0A28F8D996F87906012802D0022837
:103B000005D009E006F5D36226210D2308E006F270
:103B1000A5622821022303E006F28C6224210C23F3
:103B20001E20009086F87A36A6F87E16C6F8802603
:103B300006F20C50FEF79EFF86F8780696F8790696
:103B40000228ACBF0020401CC8E700B581B0DFF8F8
:103B50005C00D0F8883690F87B2600F5D56100919E
:103B600090F87D1690F87C06FCF7AAFC01B000BD29
:103B700000B581B0DFF83400D0F8883690F87B26A5
:103B800041F2A8610144009190F87D1690F87C06FE
:103B9000FCF796FC01B000BD000000003038024088
:103BA0000070004000040240004800405410002013
:103BB000A0860100003001400008024000380040AB
:103BC000001001400010004072B6FEE7FF10FF1128
:103BD000001200130514001630B581B00446FEF73C
:103BE0007FFD054614B9012001B030BD022084F8E4
:103BF0003500002184F83410206802685208520011
:103C0000026022681068C1070CD5FEF769FD401BF1
:103C10000628F6D320206065032184F835100320A0
:103C200001B030BD1368DFF8181360680B40A1685D
:103C30000343E0680B432169034360690B43A169B7
:103C40000343E0690B43216A0343606A1943042874
:103C500003D1E06A0843216B0143116023685A696C
:103C6000606AD208042840EAC2020AD1A56AE16A61
:103C70002A4331B1A069C0B9002D18BF022D29D047
:103C80001DD35A612068DFF8BC320FF2C42500F062
:103C9000FF011039A1FB03321209800AA95CE1651A
:103CA0008002042A1FD3001D1DE0B0F5005F0AD179
:103CB000032DE6D8DFE805F0100E1003E1E7B1F1BF
:103CC000C07FDED108E0032DDBD8DFE805F0050575
:103CD0000503D6E7C801D4D540216165012084F8E9
:103CE000350001B030BDA0653F20A26D00FA01F1A2
:103CF000916000206065012184F8351001B030BD6D
:103D0000F0B490F83460856D0024012E08BF0220C5
:103D10003AD0012680F8346090F83570012F2FD109
:103D2000022680F83560002747650668D6F800C08F
:103D30002CF4802CC6F800C0066873608368402BA2
:103D400004D10668B2600268D16003E0036899603C
:103D50000168CA603F22C16D8A40AA6001680A6892
:103D600042F016020A60016C21B101680A6842F053
:103D700008020A600068016841F00101016002E088
:103D800080F8344002242046F0BC7047F0B581B082
:103D9000044600206C496D4B0090A66D0A68376898
:103DA000A2FB0330450BE06D082101FA00F0074249
:103DB0000ED02068026853070AD5026822F0040278
:103DC0000260E06D8140B160616D41F001016165AB
:103DD000E06D27FA00F1CA070BD521684A69110680
:103DE00007D5012202FA00F0B060606D40F00200D9
:103DF00060650421E06D81400F4208D022681068A0
:103E0000830704D5B160606D40F004006065102147
:103E1000E06D81400F421BD022681068030717D560
:103E2000B160206801684A0307D5006801030BD51B
:103E3000A16C69B1204688470AE00168CA0503D42D
:103E4000016821F008010160216C09B12046884712
:103E5000E06D202181400F424BD022681068C306DC
:103E600047D5B160206894F83510052925D102683E
:103E700022F0160202602068416921F08001416150
:103E8000206C002804BFA06C002804D020680168C2
:103E900021F0080101603F22E06D8240B260012103
:103EA00084F835100020216D84F83400002943D0B7
:103EB000204601B0BDE8F040084701684A0307D535
:103EC0000068010311D4616C99B12046884710E065
:103ED0000168CA0509D4016821F0100101600120C0
:103EE00084F83500002184F83410E16B09B12046D4
:103EF0008847606D00B3606DC10716D5052084F852
:103F0000350020680168490849000160206800996F
:103F1000491C8D42009102D30168CA07F7D40120E1
:103F200084F83500002184F83410E16C21B120467A
:103F300001B0BDE8F040084701B0F0BD000000004E
:103F40003F8010F0ABAAAAAA08370020A80D74DAA7
:103F500000061016000610162A4B19684FF6FF02CD
:103F60000002114000F4E06008432749084318604C
:103F7000704770B4234B1C68C4F30224C4F10705D6
:103F8000052D28BF0F2504D20125C4F107039D404C
:103F90006D1E261D072E34BF0024E41E2940A140BB
:103FA000012303FA04F4641E2240114309010200B4
:103FB00003D41648815470BC7047154B02F00F02B1
:103FC0001A4402F8041C70BC7047010007D4012297
:103FD00000F01F010F4B8A40400943F82020704732
:103FE000401EB0F1807F01D3012070470A4948602C
:103FF000F02081F8130D00228A600720086000205D
:10400000704700000CED00E00000FA0500E400E05D
:1040100018ED00E000E100E010E000E030B50F4DE9
:104020000F4B2A7804464FF47A711868B1FBF2F20C
:1040300081B0B0FBF2F0FFF7D3FF58B9102C09D2D2
:10404000002221464FF0FF30FFF793FFAC600020C5
:1040500001B030BD012001B030BD00BFFC360020F2
:104060000837002062F30F2262F31F42401810F05D
:10407000030308D0C91A1FD3DB0748BF00F8012D7E
:1040800028BF20F8022D130030B41446154610390D
:1040900028BF20E93C00FAD8490728BF20E90C00D6
:1040A00048BF40F8042D890028BF20F8022D48BFE2
:1040B00000F8012D30BC7047C91818BF00F8012D59
:1040C000CB0728BF00F8012D7047000000B50C4851
:1040D00081B0016841F400710160026842F48062BD
:1040E0000260016841F4807101600320FFF734FF32
:1040F0000F20FFF793FFFEF757FF002001B000BD30
:10410000003C0240002200F05FBD000070B50400DA
:1041100061D094F8410040B9002184F840100FF2BA
:10412000192060632046FEF790FF022084F84100CA
:104130003B4D2068C1692940C1610220226810629C
:10414000606902283ED0E06800280CBF10262026B7
:10415000A068212838BF76002068324988421BBFFA
:10416000314A904201200220FDF78CFF2169B1F510
:10417000007F14D16269E16841B1B600B0FBF6F08E
:1041800000EB80014900B1FBF2F010E0F600B0FB5B
:10419000F6F000EB80014900B1FBF2F007E0B0FB64
:1041A000F6F000EB800261695000B0FBF1F0401DB9
:1041B0001E4BA0FB0332D10801F00100091A490887
:1041C000000201E0022100208A1EFE2A05D3606C55
:1041D00040F010006064012070BD01432069226836
:1041E000014311622268D06961680540A0680D43EF
:1041F000E1680543A0690D43054345F40065D561B9
:10420000A068302818BFB02804D12068C16941F4E3
:104210008051C16100206064012184F8411070BDAB
:1042200040F0FFFF00380040003C0040CDCCCCCC3B
:1042300010B5044609B1100001D1012010BD94F859
:104240004000012809D0012084F8400094F8413052
:10425000012B04D0002084F84000022010BD032070
:1042600084F841000023636461622068C06900F043
:104270000700032814BF0528520022856285A16B20
:104280000FF285000864A16B0FF25D00C863A16B9B
:104290000FF27D00C864238D2068616A00F10C0272
:1042A000A06BFFF72DFD58B1606C40F00800606412
:1042B000012184F84110002084F84000012010BD45
:1042C0002068C1694A0503D4C16941F48061C161B4
:1042D000206841688A0703D4416841F002014160C7
:1042E000002084F8400010BD816BC06948B908689F
:1042F000426822F00202426000204885012281F8D3
:1043000041200846FFF734BC806BFFF71EBC00005D
:10431000806B01684A68920892004A6000214185DA
:1043200000224286012180F84110426C42F00802CE
:10433000426400F062BC000010B5044682B0206800
:104340008168009194F84120042A38D10099CA0765
:1043500018D541684A0615D5C068E16A0880E06A48
:10436000821CE262608E411E6186608E50B92068B8
:10437000416821F060014160012284F8412020461B
:1043800000F03CFC0098410619D5206841688A0677
:1043900015D5416821F0600141600020019021683D
:1043A000CA680192896801910121019884F841103D
:1043B000606C40F002006064204600F01EFC94F83F
:1043C000410003283AD10098810719D52068416837
:1043D0000A0615D5616A0A88C260606A811C61623A
:1043E000608D411E6185608D50B92068416821F063
:1043F000A0014160012084F841002046FFF7B8FB8E
:10440000009801071AD5206841688A0616D54168C8
:1044100021F0A00141600020009021688868009090
:104420000120009984F841002046616C41F00401AC
:10443000616402B0BDE8104000F0DFBB02B010BD07
:104440002DE9F0410246086890FAA0F3B3FA83FE22
:104450000F2730FA0EF04FF0010C5DD00B680CFA0C
:104460000EF0184008D108680EF1010E30FA0EF077
:10447000F4D10020BDE8F08190FAA0F3B3FA83F301
:104480005C000325A5404E68ED43012E12D18E68D5
:10449000D2F8088005EA0808A64046EA08069660B1
:1044A0005668D1F80C80864308FB00F848EA0606F7
:1044B000566001E0022EEAD00E69D2F80C8005EABF
:1044C0000808A64046EA0806D6604E68022E07D0C5
:1044D000486813681D4000FA04F42C431460C2E7D6
:1044E0004E69082B09D2106A9B0007FA03F820EAEC
:1044F00008009E4006431662EAE7000A90FAA0F020
:10450000B0FA80F0536A800007FA00F823EA080343
:1045100086401E435662DBE70020BDE8F0810000C4
:1045200070B4036801225D0623D40668144C0A683F
:104530004B68264016438A681E43CB6816430A69B7
:104540001E434B6916438A691E43CB6916430A6AA8
:104550001E431643066043684A6923F0040343EA96
:10456000124343600A6AB2F5005F04BF898C01619F
:104570000022C16921F40061C161104670BC70471E
:104580004000FFFF70B5040001D1012070BD94F818
:104590003D0028B9002184F83C102046FEF7F6FDC6
:1045A000242084F83D002068C16821F40051C160D6
:1045B00021680A69E06822F4405202430A61DFF888
:1045C000F4002268D368A168034020690B43616945
:1045D0000343E0690B430343D36021684A69A06940
:1045E00022F4407202434A612068DFF8CC1088420E
:1045F0001CBFDFF8C820904202D0FEF711FF01E097
:10460000FEF718FFE2691921B2F5004F6268A1FBBD
:1046100000016FF0630519D1D30F5200FEF766F861
:10462000DFF89C60DFF89820A0FB0661890905FB94
:104630000105ED003235A5FB02208009430003F49B
:10464000F87303EB011300F0070017E0930F9200DB
:10465000FEF74CF8DFF86830DFF86420A0FB033188
:10466000890905FB01052D013235A5FB02208009D2
:1046700000F0F00303EB011300F00F002168C018F5
:1046800088602068016921F49041016120684169D6
:1046900021F02A0141612068C16841F40051C160E4
:1046A00000202064202184F83D10202084F83E0062
:1046B000002070BDF369FFFF0010014000140140AD
:1046C0003E0AD7A330B504008BB000F0C380256844
:1046D00094F8BD0428B9002184F8BC142046FEF7E4
:1046E000B1FD032084F8BD04E96BC8055CBF00215F
:1046F0002161206800F0F5FA83B0211D684634225C
:1047000000F0EEFC0EBC206800F07AFA002840F0C1
:104710009E802068002100F0EAFA606800210028ED
:1047200000F0458001EBC10204EB8200012380F818
:104730003D3080F83C10A0F844100022002380F89F
:1047400040208364C2644365491C6068C9B28142E9
:104750002DD201EBC10204EB8200012380F83D3031
:1047600080F83C10A0F844100022002380F840207C
:104770008364C2644365491C6068C9B2814216D231
:1047800001EBC10204EB8200012380F83D3080F888
:104790003C10A0F844100022002380F840208364DD
:1047A000C2644365491C6068C9B28142BAD360687B
:1047B0000021002800F0408001EBC10204EB8200E0
:1047C000002380F87C1280F87D3280F88032C0F8B7
:1047D0008832C0F88C32C0F89432491C6068C9B283
:1047E000814229D201EBC10204EB820080F87C12E5
:1047F00080F87D3280F88032C0F88832C0F88C3280
:10480000C0F89432491C6068C9B2814214D201EBED
:10481000C10204EB820080F87C1280F87D3280F8BF
:104820008032C0F88832C0F88C32C0F89432491C0B
:104830006068C9B28142BFD383B0211D684634226B
:1048400000F04EFC0EBC206800F082FA28B1022075
:1048500084F8BD0401200BB030BD84F8380001217C
:1048600084F8BD14606A012804BF204600F07CFC77
:10487000206800F025FC00200BB030BD30B581B0C1
:10488000040008BF012000F0818094F83D0028B9A1
:10489000002184F83C102046FEF75BFC022084F8DF
:1048A0003D002168DFF8E8200B68914218BFB1F1A4
:1048B000804F0FD0DFF8DC0081421CBFDFF8D850FA
:1048C000A94207D0DFF8D40081421CBFDFF8D450E2
:1048D000A94213D123F07000A3680343914218BF8B
:1048E000B1F1804F25D0DFF8AC0081421FBFDFF867
:1048F000A850A942DFF8A40081421AD0DFF8A450E2
:10490000A9421CBFDFF89800814212D0DFF898500E
:10491000A9421CBFDFF8940081420AD0DFF8905012
:10492000A9421FBFDFF88C008142DFF88C50A942FA
:1049300003D123F4407023690343A06923F080036B
:1049400003430B609142E368CB626068886219BFE1
:10495000DFF8502091426069086301224A6101201A
:1049600084F84600012184F83E1084F83F0084F862
:10497000401084F8410084F8421084F8430084F821
:10498000441084F8450084F83D10002001B030BD8B
:10499000000001400004004000080040000C0040FE
:1049A0000040014000040140004401400048014033
:1049B00000180040001C00400020004010B50446D4
:1049C000206801698A0716D5C1688A0713D56FF078
:1049D0000201016101222277806910F0030F204655
:1049E00002D000F0D4FB04E000F0D2FB204600F03F
:1049F000D0FB00202077206801694A0716D5C168DE
:104A00004A0713D56FF00401016102222277806901
:104A100010F4407F204602D000F0B9FB04E000F023
:104A2000B7FB204600F0B5FB002020772068016925
:104A30000A0716D5C1680A0713D56FF0080101618E
:104A400004222277C06910F0030F204602D000F044
:104A50009EFB04E000F09CFB204600F09AFB002047
:104A6000207720680169CA0616D5C168CA0613D521
:104A70006FF01001016108222277C06910F4407FB5
:104A8000204602D000F083FB04E000F081FB2046CA
:104A900000F07FFB0020207720680169CA0708D555
:104AA000C168CA0705D56FF001010161204600F019
:104AB00071FB206801690A0608D5C1680A0605D598
:104AC0006FF080010161204600F065FB20680169FC
:104AD0004A0608D5C1684A0605D56FF04001016154
:104AE000204600F059FB206801698A060AD5C16892
:104AF0008A0607D56FF0200101612046BDE810400D
:104B000000F04BBB10BD000030B490F83C20012AEF
:104B100008BF022032D0012280F83C20022380F816
:104B20003D3004686568A3680A6825F07005154380
:104B300065600268124CA24218BFB2F1804F11D0DA
:104B4000104CA2421CBF104DAA420BD00F4CA242E7
:104B50001CBF0F4DAA4205D00E4CA2421CBF0E4DE9
:104B6000AA4204D1496823F080030B4393600122D9
:104B700080F83D20002180F83C10002030BC7047B8
:104B8000000001400004004000080040000C00400C
:104B900000040140004001400018004030B581B0E1
:104BA0000446FDF79DFD14F1010F054602D00548AE
:104BB00001786418FDF794FD401BA042FAD301B0C0
:104BC00030BD00BFFC36002000B500BF1300964684
:104BD0009446103928BFA0E80C50FAD85FEA417C0F
:104BE00028BF0CC048BF40F8042BC90728BF20F8D5
:104BF000022B48BF00F8012B00BD70477047000032
:104C00000EB481B0DFF8B0240699012931D1816B4F
:104C100021F480318163C368DFF8A0140B40C360C6
:104C2000C36823F44013C3600D99012903D1C168FF
:104C300041F48011C160002100910099491C00914C
:104C40000099914213D20369002BF6D500230093FB
:104C5000016941F0010101610099491C009100992D
:104C6000914204D20369D907F6D400222BE0032233
:104C700029E0C16841F04001C16000230093009920
:104C8000491C00910099914213D20369002BF6D57B
:104C900000230093016941F0010101610099491C61
:104CA00000910099914204D20369D907F6D40022F9
:104CB00000E003220A990029816B0CBF41F4803186
:104CC00021F4803181630499012907D1816841F081
:104CD00006018160816841F020018160104604B0C6
:104CE000704781684908490081600020704730B5ED
:104CF000044681B0E068002520F0C0400129E06052
:104D000011D1E06840F00050E0600120FFF746FF5D
:104D100060696D1CC10701D4322DF6D3322D14D138
:104D2000012001B030BD69B9E06840F08040E0602A
:104D30000120FFF733FF60696D1CC107EED5322DEE
:104D4000F6D3EBE7012001B030BD002001B030BD4B
:104D50000EB42DE9F04F024681B00020C2F80401E4
:104D60000023C2F80831C2F80C01C2F81031C2F8B1
:104D70001401C2F81831C2F81C01C2F82031C2F87F
:104D80002401C2F82831C2F82C01C2F83031C2F82F
:104D90003401C2F83831C2F83C014FF000091498D0
:104DA00002F5006380B9586840F002005860906BCB
:104DB00020F400109063156845F0400515601068F8
:104DC00040F08000106003E0906B40F400109063AE
:104DD00002F5606500202860D3F800A0C3F800A0A9
:104DE0000F98012808D10C9808B9196807E01868CD
:104DF00040F00100186003E0196841F003011960F8
:104E000000250095DFF8B012009D6D1C0095009DF7
:104E10008D4212D210690028F6D5CA46CDF800A0FE
:104E20004FF484651561009D6D1C0095009D8D42B9
:104E300003D210698506F6D401E04FF00109002580
:104E40000095009D6D1C0095009D8D4212D2106949
:104E50000028F6D54FF0000ACDF800A01025156106
:104E6000009D6D1C0095009D8D4203D21069C50602
:104E7000F6D401E04FF001090020186100215961CA
:104E8000D8610A99002900F0ED800E4602F5106401
:104E900016F00301A0464FF67F354FF0904A4FF0D1
:104EA000006B16D0A64674462768002F06D500284A
:104EB00014BFC4F800A0C8F800B001E000272760C4
:104EC0000027401C2761491EA5600EF1200EEAD183
:104ED0007446B608B646714612D10A99002002F50A
:104EE000306C11F00301E04660D064462668002E65
:104EF00052D5002814BFC4F800A0C8F800B04DE097
:104F000026463768002F06D5002814BFC6F800A033
:104F1000C8F800B001E00027376000273761B560AE
:104F200004F12006401C3768002F06D5002814BF66
:104F3000C6F800A0C8F800B001E0002737600027DD
:104F40003761B56004F14006401C3768002F06D574
:104F5000002814BFC6F800A0C8F800B001E0002780
:104F6000376000273761B56004F16006401C376880
:104F7000002F06D5002814BFC6F800A0C8F800B05E
:104F800001E0002737600027401C3761491EB560EB
:104F900004F18004B4D1A0E7002626600027401C5D
:104FA0002761491EA5600CF1200C9ED15FEA0E011D
:104FB00058D0E646DEF80040002C06D5002814BF85
:104FC000CEF800A0C8F800B002E00024CEF80040FF
:104FD0000026CEF81060CEF808500CF1200E401CD0
:104FE000DEF80040002C06D5002814BFCEF800A043
:104FF000C8F800B002E00024CEF80040CEF81060FF
:10500000CEF808500CF1400E401CDEF80040002C99
:1050100006D5002814BFCEF800A0C8F800B003E001
:105020005FF00004CEF80040CEF81060CEF80850D3
:105030000CF1600E401CDEF80040002C06D5002864
:1050400014BFCEF800A0C8F800B002E00024CEF8EB
:105050000040401CCEF81060491ECEF808500CF1FC
:10506000800CA6D1186920F480701861002191612C
:105070006FF0804050610D9818B9906940F01000B1
:1050800090619169DFF8540001439161109818B163
:10509000906940F0080090611498012805D190694A
:1050A00040F0804040F004009061484601B0BDE807
:1050B000F00F5DF810FB0000410D0300BFFFBDFFC6
:1050C00000F5606100F500600A68920892000A60CD
:1050D000416841F0020141600020704700383C8087
:1050E000103A07D330B4B1E83810103AA0E83810BD
:1050F000F9D230BC530724BFB1E80810A0E808106B
:1051000044BF51F8043B40F8043BD20724BF31F8B8
:10511000022B20F8022B44BF0B7803707047121F3C
:1051200017D35B0009D151F8043B20F8023B1B0C5C
:10513000121F20F8023BF6D20BE051F8043B00F8B6
:10514000013B1B0A20F8023B1B0C121F00F8013B1D
:10515000F3D238BF121D521E24BF11F8013B00F8D4
:10516000013BF8D870470000016801220023C0F815
:10517000002580F8F434886940F000608861486D4B
:1051800040F0805040F003004865002070477047B1
:1051900070477047704770477047704730B40025BC
:1051A00012E050F8042BD30744BF4A44521E091F93
:1051B000042942F8045BFAD213468C0744BF1580D9
:1051C0009B1CC90748BF1D7050F8041B0029E8D17B
:1051D00030BC7047FEE7FEE7FEE7FEE7FEE77047FC
:1051E0007047704700F00AB80248FFF7E7BB024873
:1051F000FEF7CCBD841600200C6F002002484168E9
:1052000002788A1842607047FC36002010B50749C2
:1052100079441831064C7C44163404E00A68081DB1
:10522000114488470146A142F8D110BD2C0000006E
:10523000480000004EF68851CEF20001086840F4A4
:1052400070000860BFF34F8FBFF36F8F4FF0017096
:10525000E1EE100A7047000045FFFFFF60380000D4
:105260000C37002000000000ABC2FFFFF801000077
:10527000F8010000000000200248016841F47001BC
:105280000160704788ED00E00000000000000000B1
:10529000010203040607080900F00DF8002801D0F8
:1052A000FFF7B4FFAFF300800020AFF30080FEF7FC
:1052B000D5F900F002F80120704700F001B80000B5
:1052C0000746384600F002F8FBE7000080B5AFF370
:1052D0000080024A11001820ABBEFBE72600020046
:1052E0000548014603B4684680F30988AFF300809F
:1052F000FFF7A0FFFFF7D0FFA5EDF5FE01488047BF
:105300000148004779520008E152000800000000FF
:1053100001020304FFF7FEBFFFF7FEBFFFF7FEBF6A
:10532000FFF7FEBFFFF7FEBFFFF7FEBFFFF7FEBFB1
:10533000FFF7FEBFFFF7FEBFFFF7FEBFFFF7FEBFA1
:10534000FFF7FEBFFFF7FEBFFFF7FEBFFFF7FEBF91
:10535000FFF7FEBFFFF7FEBFFFF7FEBFFFF7FEBF81
:10536000FFF7FEBFFFF7FEBFFFF7FEBFFFF7FEBF71
:10537000FFF7FEBFFFF7FEBFFFF7FEBFFFF7FEBF61
:10538000FFF7FEBFFFF7FEBFFFF7FEBFFFF7FEBF51
:10539000FFF7FEBFFFF7FEBFFFF7FEBFFFF7FEBF41
:1053A000FFF7FEBFFFF7FEBFFFF7FEBFFFF7FEBF31
:1053B000FFF7FEBFFFF7FEBFFFF7FEBFFFF7FEBF21
:1053C000FFF7FEBFFFF7FEBFFFF7FEBFFFF7FEBF11
:1053D000FFF7FEBFFFF7FEBFFFF7FEBFFFF7FEBF01
:1053E000FFF7FEBFFFF7FEBFFFF7FEBFFFF7FEBFF1
:1053F000FFF7FEBFFFF7FEBFFFF7FEBFFFF7FEBFE1
:10540000FFF7FEBFFFF7FEBFFFF7FEBFFFF7FEBFD0
:10541000FFF7FEBFFFF7FEBFFFF7FEBFFFF7FEBFC0
:10542000FFF7FEBFFFF7FEBFFFF7FEBFFFF7FEBFB0
:10543000FFF7FEBFFFF7FEBFFFF7FEBFFFF7FEBFA0
:10544000FFF7FEBFFFF7FEBFFFF7FEBFFFF7FEBF90
:10545000FFF7FEBFFFF7FEBFFFF7FEBFFFF7FEBF80
:10546000FFF7FEBF81008100810081008100810083
:105470008100810081008100810081008100810024
:1054800081008100E4000001EA000040F50000BF57
:105490008100810081008100810081008100810004
:1054A00081008100810081008100810081008100F4
:1054B000CD0000BF8100810081008100810081005A
:1054C0008100810081008100810081008100F7005E
:1054D0000004810081008100810081008100810041
:1054E00081008100810081008100810081008100B4
:1054F00081008100810081008100810081008100A4
:105500008100810081008100810081008100810093
:105510008100810081008100810081008100810083
:105520008100810081008100810081008100810073
:105530008100810081008100810081008100810063
:105540008100810081008100810081008100810053
:10555000810095000001F9000010FC000224F40015
:04000005080052E1BC
:00000001FF
