:020000040800F2
:10000000600D0020E92A0008C1290008C329000862
:10001000C5290008C7290008C929000800000000F8
:10002000000000000000000000000000CB290008D4
:10003000CD29000800000000CF290008D1290008C0
:10004000012B0008052B0008092B00080D2B0008C8
:10005000112B0008152B0008192B00081D2B000878
:10006000212B0008252B0008292B00082D2B000828
:10007000312B0008352B0008392B0008D529000842
:100080003D2B0008412B0008452B0008492B000898
:100090004D2B0008512B0008552B0008592B000848
:1000A0005D2B0008612B0008652B0008692B0008F8
:1000B0006D2B0008712B0008752B0008792B0008A8
:1000C0007D2B0008812B0008852B0008892B000858
:1000D0008D2B0008912B0008952B0008992B000808
:1000E0009D2B0008A12B0008A52B0008A92B0008B8
:1000F000AD2B0008B12B0008B52B0008B92B000868
:10010000BD2B0008C12B0008C52B0008C92B000817
:10011000CD2B0008D12B0008D52B0008D92B0008C7
:10012000DD2B0008E12B0008E52B0008DB29000887
:10013000E92B00080000000000000000ED2B000883
:10014000F12B0008F52B0008F92B0008FD2B000807
:10015000012C0008052C0008092C00080D2C0008B3
:10016000112C0008152C0008192C00081D2C000863
:10017000212C0008252C0008292C00080000000074
:10018000000000002D2C000800000000000000000E
:10019000312C00080000000000000000352C000891
:1001A000000000000000000000000000392C0008E2
:1001B0003D2C0008412C0008452C0008492C000863
:1001C0004D2C00082DE9FC47064600253078DFF865
:1001D000B875C107A84608D5B868B16B20F0C060F3
:1001E0000843B860B06B00B901253078810708D5A5
:1001F000B868F16B20F0C0500843B860F06B00B9EC
:100200000125307841070ED5BA68306B22F44012D0
:100210000243BA60306BB0F5801F08BF012502D0E1
:1002200008B94FF00108307801070ED5BA68706B35
:1002300022F440020243BA60706BB0F5800F08BF31
:10024000012502D008B94FF001083078DFF83C45AD
:1002500081065FD500200090216CDFF8349541F0D5
:1002600080512164206C00F0805000900098D9F8F3
:10027000001041F48071C9F8001000F043FC824680
:10028000D9F80000C10507D400F03CFCA0EB0A003F
:100290000228F5D9032052E1206F10F440701EBFF0
:1002A000316C01F4407188421BD0206FDFF81418C4
:1002B00001220A6000230B6020F440702067206F49
:1002C000C1070ED500F01EFC8146206F810708D4BF
:1002D00000F018FCA0EB090041F289318842F4D308
:1002E000D8E7316C01F44070B0F5407F08D1A268C6
:1002F000DFF8D40722F4F81201401143A16003E0B3
:10030000A06820F4F810A060206F316CC1F30B01DD
:10031000084320673078C10604D596F85800DFF806
:10032000BC1708603278100605D53969F06C21F4E5
:100330004001014339613178480605D53969B06C0F
:1003400021F08061014339613168C8050BD53969F5
:10035000706D21F0006101433961716DB1F1006F81
:1003600008BF4FF001083168880505D53969706C00
:1003700021F08051014339613068DFF8649741050D
:1003800009D53A69306D22F0005202433A61316D6D
:10039000B1F1005F04D01DB93068B0F5006F7AD1BB
:1003A0000021C9F8001000F0ADFB054620680101EE
:1003B00005D500F0A7FB401B0228F7D96AE7316892
:1003C000CA0701D5B06B18B189070AD5F06B40B9DF
:1003D00000F0B7F801F070610843716940EA0170FC
:1003E00038603068410703D5326BB2F5801F05D005
:1003F000000713D5716BB1F5800F0FD100F0A1F894
:10040000326940EA026001F0E04108433860B868B0
:10041000B16A4009491E41EA4010B86030684105A0
:1004200017D5306DB0F1005F13D138683968F568C1
:100430007268B3686D0842EA83126D1EC0F3014012
:1004400042EA0542401C42EA406201F0E0411143A9
:100450003960306801050FD5F2687068B1685208DC
:1004600040EA8110521E316940EA0240726940EA56
:10047000016040EA027038600120C9F8000000F015
:1004800041FB05462168080105D400F03BFB401BF9
:100490000228F7D9FEE6B8F1000F4FD00020C9F8C6
:1004A000080000F02FFB05462068810005D500F00C
:1004B00029FB401B0228F7D9ECE631684A0701D531
:1004C000306B18B1090715D5706B98B97868B169A8
:1004D000F26941EA821100F440300843716A40EA4F
:1004E00001607860B868F16A20F4F850491E40EA6B
:1004F0000120B8603068C10511D5706DB0F1006F92
:100500000DD17868336AB169F2695B0841EA8211FA
:100510005B1E41EA034100F07060084378600120EF
:10052000C9F8080000F0EEFA05462068810005D4FD
:1005300000F0E8FA401B0228F7D9ABE60020BDE83E
:10054000F687386839687268B36842EA831200F443
:1005500040301043704730B500210128DFF82822D1
:10056000DFF88045DFF88055DFF8803562D002285B
:100570006DD0042818BF082815D1906810F47000B9
:1005800012D0B0F5801F25D0B0F5001F3AD0B0F5DD
:10059000401F6AD0B0F5800F1CD0B0F5000F31D0ED
:1005A000B0F5400F42D092E01868410203D4516880
:1005B00000F09BF802E0516800F092F85368506830
:1005C00000F087F8B1FBF0F0C2F30421491CB0FB46
:1005D000F1F17CE01868410205D4136803F03F0391
:1005E000B4FBF3F102E0116800F07AF813681068C8
:1005F00000F06FF802F01F02B1FBF0F0521CB0FBEC
:10060000F2F164E01868410205D41A6802F03F0272
:10061000B4FBF2F102E0196800F062F81A68186899
:10062000C0F388104143C2F3027047E018684102EA
:100630004AD44BE0906810F0C06019D0B0F1007F50
:1006400013D0B0F1806F25D0B0F1C06F0BE090688F
:1006500010F0C0500CD0B0F1006F06D0B0F1805F48
:1006600018D0B0F1C05F2CD031E0DFF884142EE058
:100670001868410205D5136803F03F03B5FBF3F199
:1006800002E0116800F031F81068C0F388104143AF
:10069000106811E01968480206D51A68294602F068
:1006A0003F02B1FBF2F102E0196800F01EF8186891
:1006B000C0F3881041431868C0F30270B1FBF0F139
:1006C00005E01968480201D5294600E021460846A0
:1006D00030BD9268C0F388104143C3F30360704794
:1006E00001F03F01B5FBF1F1704701F03F01B4FBB0
:1006F000F1F170470020086000F004BA2DE9504184
:10070000DFF8E843DFF8DC636068DFF8DC8300F0E3
:100710000C00042804D0082804D00C2815D027E0A9
:10072000404626E000F027F847BFC0F38816A8FB34
:100730000601C0F38818A6FB080100F0E9F921685A
:10074000C1F30141491C49000FE000F014F847BF14
:10075000C0F38816A8FB0601C0F38818A6FB0801A1
:1007600000F0D6F92168C1F30271B0FBF1F000E0AE
:100770003046BDE85081002322682068410220688D
:1007800002F03F0270470000843802400038024007
:10079000007000402DE9F84304001BD02078DFF8FA
:1007A0005463C10718D500F091F904280DD000F06A
:1007B0008DF9082802D17068410206D400F086F94C
:1007C0000C2845D17068410242D53068810303D5B9
:1007D0006068002800F070812078DFF81C738107C2
:1007E0001FD5B06810F00C0F0DD000F06FF908287D
:1007F00002D17068410206D500F068F90C285CD17E
:100800007068410259D43068810703D5E068012837
:1008100040F052813168206921F0F80141EAC001BD
:1008200031602178080779D56069DFF8D012002897
:1008300068D001220A6000F065F90546706F8107F3
:100840006CD400F05FF9401B0228F7D9032036E191
:100850006068B0F5803F04D1306840F4803030608B
:1008600011E0B0F5A02F306806D140F48020306050
:10087000316841F4803105E020F480303060316827
:1008800021F480213160606858B100F03BF90546E1
:1008900030688103A0D400F035F9401B6528F7D3F8
:1008A000D4E700F02FF905463068810394D500F0B5
:1008B00029F9401B6528F7D3C8E7E068A8B10121F2
:1008C000396000F01FF905463068810705D400F053
:1008D00019F9401B0228F7D9B8E73068216920F0E0
:1008E000F80040EAC10030609BE7386000F00AF988
:1008F00005463168880794D500F004F9401B0228AA
:10090000F7D9A3E7FFF7F7FE0546706F810705D516
:1009100000F0F8F8401B0228F7D997E72078410744
:1009200060D5306C0025C1000BD40020009001255B
:10093000316C41F080513164306C00F08050009097
:100940000098DFF8BC81D8F80000C10513D4D8F8AE
:10095000000040F48070C8F8000000F0D3F8814631
:10096000D8F80000C10506D400F0CCF8A0EB0900CF
:100970000228F5D96AE7A068012805D00528306F5C
:1009800006D140F004003067306F40F0010005E010
:10099000400840003067306F20F00400306741F2BB
:1009A0008938A06860B100F0ADF88146306F8107EA
:1009B00013D400F0A7F8A0EB09004045F6D345E7B3
:1009C00000F0A0F88146306F810706D500F09AF854
:1009D000A0EB09004045F6D338E71DB1306C20F09C
:1009E00080503064A069002868D0B16801F00C0123
:1009F000082938D002282AD100F06CF80546306862
:100A0000810105D500F07EF8401B0228F7D91DE7CB
:100A1000E069216A626A0843A16A490840EA8210D3
:100A2000491E40EA0140E16A226B40EA016040EA67
:100A300002707060012000F04EF8044630688101B9
:100A40003CD400F05FF8001B0228F7D9FEE600F066
:100A500041F804463068810130D500F053F8001B9E
:100A60000228F7D9F2E6012826D07068E26900F47E
:100A70008001914202BF00F03F01226A914201BF12
:100A800047F6C0710140626AB1EB821F14D1A26ABD
:100A900000F4403101F580315208B1EB024F02BF42
:100AA00000F07061E26AB1EB026F02BF00F0E0405B
:100AB000216BB0EB017F01D0012000E00020BDE8F8
:100AC000F2830000400E4742FFFCFF0FB06800F0C9
:100AD0000C0070470020386600F014B8E01147425F
:100AE000680047420024F40000127A0004380240F3
:100AF0000080BB000038024000004742800E4742A1
:100B00000070004001484068704700BF5C02002050
:100B1000D3BBD9B1B2F5803F5BD2022A1ED98C4635
:100B2000B1FBF2F102FB11C31B0443EA1043B3FB18
:100B3000F2FC02FB1C3380B240EA0343B3FBF2F049
:100B400002FB103240EA0C4000237047022A05D90C
:100B50008446B0FBF2F002FB10C270474AB105D1E7
:100B600000F0010249085FEA3000704700220023CC
:100B7000704700F08FB80B00020000210020704782
:100B8000F7D3002200237047904271EB030CF2D39D
:100B900070B5B1FA81F4B3FA83F52C1BA340C4F10C
:100BA000200532FA05F63343A2405FF00046E640E6
:100BB00002E05B085FEA3202841A71EB030524BF8E
:100BC000204629467641F4D302000B003000002174
:100BD00070BD70B5B1FA81F4B2FA82F5C4F12004A7
:100BE0006419B4F12006DAD3B2405FF00044F44057
:100BF000002502E052085FEA3303C61A71EB020EC9
:100C000024BF3046714664416D41F3D302000B00AE
:100C10002000290070BDF0B40246106895681318D2
:100C2000506803EB5004C00748BF4D44A3422DD089
:100C300013F8016B16F0030004BF13F8010BC01C7E
:100C400031090F2907D113F8011B0F3103E013F805
:100C5000017B05F8017B401EF9D10029E6D013F88D
:100C6000010BC6F38106032E08BF13F8016B00EBDE
:100C70000620404228440026B71E8F421EBF10F8AF
:100C8000017B05F8017B761CF6D1CFE7F0BC02F1C1
:100C90000C0070477047000081B0002000900022D7
:100CA000DFF86C03416841F480414160416801F420
:100CB0008041009100990092036843F080530360E3
:100CC000006800F080500090009801B0704710B5A7
:100CD00086B000F0FDF82168DFF83803814220D1AA
:100CE0000022DFF8344300921222206840F0020014
:100CF0002060216801F002010091C0210098DFF816
:100D00001C0300F034F9042100F037F900200090B2
:100D1000216941F400112161206900F40010009064
:100D2000009806B010BD30B59DB000F0D1F800F0CD
:100D300062F92068DFF8E81288425CD1322108911C
:100D4000022204210692099207910B920A92002135
:100D500001221092159106A8FFF734FA08B100F0AD
:100D6000EFFA002000900022AB48DFF8B85241694A
:100D700041F480514161416901F4805100F0A4F8CF
:100D8000036843F001030360016801F0010100F012
:100D90009BF8B02100F0E2F800F032F9049105214F
:100DA000059101A900F0DAFA0022039204921020C2
:100DB0000221019002910522059200F081F89A48E3
:100DC00028604FF0C0610020E86069604FF4006067
:100DD0004FF48061686129614FF480704FF40051D5
:100DE000E861A9610020402200F062F808B100F03B
:100DF000A7FAA563AC631DB030BD38B586B000F06E
:100E000067F821688B48814250D1002282488A4D80
:100E10000092016941F480410161016901F480415E
:100E200000F052F8036843F004030360016801F026
:100E3000040100F049F80221036843F00203036053
:100E40000322006800F002000090009801910291D6
:100E50000492002103910721059100F031F802214D
:100E60000291002203924FF4A050032101900491BB
:100E70000522059201A9694800F070FA0021696015
:100E8000E9604FF480616D48286029614FF400608B
:100E900068614FF40051A96100204022E86100F030
:100EA00007F808B100F04CFAA564AC6307B030BD98
:100EB0004FF400316862AA602962284600F048BBFE
:100EC00001A95B4800F04ABA00910099009270476E
:100ED00004461422002101A800F0EEBC10B586B033
:100EE000FFF7F6FF2168564A4B48914219D100217D
:100EF0000091426942F0100242610022416901F012
:100F00001001FFF7E1FF4FF4C061036843F00103F4
:100F100003600222006800F001000090009843483E
:100F200015E0484A914217D100210091026942F42C
:100F3000802202610022016901F48021FFF7C4FFD1
:100F40004FF4846100F00AF800900098384800F0EF
:100F50000EF8072100F011F806B010BD036843F049
:100F6000040303600222006800F00400704701914E
:100F7000029200210391032270470591049201A976
:100F800000F0ECB918B59DB0FFF7A2FF00F033F800
:100F90002068B0F1A04F2CD14FF48071002206914F
:100FA0001B9206A8FFF70EF908B100F0C9F900205E
:100FB000194C00900222216841F0010121604FF498
:100FC000C051206800F0010000F01AF803220A2145
:100FD000FFF7D3FF606840F080006060002100915F
:100FE000606940F480406061606900F48040009076
:100FF00000981EB010BD5C22002106A800F05CBC69
:1010000000900098094801910292002103917047D5
:101010004038024000540040303802400004024092
:10102000003001409C08002058640240000002404B
:101030000008024000380040FC08002070600240B8
:10104000001001400048004010B5B24CBDA10A2379
:10105000012200F020F80A235FF00102BAA100F09B
:101060001AF80A235FF00102B8A100F014F80A236D
:101070005FF00102B6A100F00EF80A235FF0010252
:10108000B4A100F008F82046BDE810400A23012270
:10109000B1A100F076BC204600F073BC9D4800F181
:1010A0005C01816570472DE9FC4100F0CFFD00F047
:1010B000E0F800200090984C9848016841F08001C9
:1010C000016004F20C55026802F0800200920022D6
:1010D00000990092036843F004030360016801F083
:1010E000040100F0C1F843F001030360016801F05E
:1010F000010100F0B9F843F002030360016801F058
:10110000020100F0B1F843F480030360016801F4C8
:1011100080010091009900920021036843F40013BC
:101120000360006800F40010009000980F2000F0A9
:10113000C1FD0F2000F0DBFD002200213B2000F06C
:10114000B9FD3B2000F0D3FD754976486960286001
:1011500000224FF48041AA60EA6029616A61AA61B5
:10116000EA612A62284600F0EDFD08B100F0E8F8D7
:101170006D48686500214FF40070A8656866E965F0
:101180004FF47A502966A866E9662967696704F50D
:10119000AC65284600F080FE08B100F0D1F85D4E45
:1011A000624830604FF482714FF40060F06071600B
:1011B000002000217061F06130627062B0623161C4
:1011C0000A204FF400424FF48021F062B260B16116
:1011D000304600F07BFB08B100F0B2F804F5B567CB
:1011E0005348386000210C2078614FF4E138B96031
:1011F000F9603961B961F961C7F80480384600F0D7
:10120000DBFF08B100F09CF84FF0A0402060062101
:10121000002002222061E06120626062E0622063BF
:101220006160E260A261204601F068F808B100F058
:1012300087F84048786400210C20B865F964396566
:101240007965F9653966C7F8488004F2EC5000F01A
:10125000B3FF08B100F074F8FFF7F6FEB16D01229C
:10126000284600F0A4FEFEE7009100990092036872
:10127000704700B593B03422002106A800F01CFB93
:101280001422002101A800F017FB002000902A483A
:10129000016841F0805101600021006800F0805039
:1012A00000900098254800910121026861F38F3277
:1012B00002600321006800F4404000904FF4803247
:1012C0000098069107920121102209910A920221A9
:1012D0004FF480020C910D92042148220E910F923E
:1012E0000221032210911192129106A8FFF752FADF
:1012F00008B100F025F80F20019000210291039120
:101300000491059101A801F067F808B100F018F800
:1013100013B000BD000000206C02002030380240F5
:10132000A086010000540040003001400038004019
:10133000001001400048004040380240007000406A
:1013400072B6FEE7FF100000FF110000001200005F
:101350000013000004140000001600002DE9F84FEF
:101360000D4600267049714A0F23044601202F685C
:10137000B04000EA0708804540F0CF804FEA460CB5
:10138000032707FA0CF76FEA070E6F6807F00309E7
:10139000B9F1010F1CBF07F00307022F12D1A76894
:1013A000D5F80C900EEA070709FA0CF949EA070785
:1013B000A760676827EA00006F68C7F30017B740A7
:1013C00038436060B0002F7907F00307032F21D066
:1013D000E768D5F808900EEA070709FA0CF949EA18
:1013E0000707E7602F7907F00307022F12D1F708EC
:1013F00004EB870700F01C09D7F820A003FA09FBCB
:101400002AEA0B0AD5F810B00BFA09F949EA0A09D9
:10141000C7F8209027680EEA070E2F7907F0030718
:1014200007FA0CF747EA0E0CC4F800C06F6817F40F
:10143000403F72D04FF0000ECDF800E04FEA960C1E
:10144000176847F48047176000F00C00D2F800E0FE
:10145000374F0EF4804ECDF800E0DDF800E057F88D
:101460002CE003FA00F72EEA070E324FBC4208BF09
:1014700000271DD0304FBC4208BF012718D02F4F86
:10148000BC4208BF022713D02D4FBC4208BF032720
:101490000ED02C4FBC4208BF042709D02A4FBC42B3
:1014A00008BF052704D0294FBC420CBF06270727D9
:1014B00007FA00F040EA0E00DFF874E04EF82C0066
:1014C0006FEA0800D1F808C06F6800EA0C0CFF0250
:1014D00048BF48EA0C0CC1F808C0D1F80CC06F68CE
:1014E00000EA0C0CBF0248BF48EA0C0CC1F80CC063
:1014F000D1F804C06F6800EA0C0CBF0348BF48EA8B
:101500000C0CC1F804C0D1F800C06F6800EA0C00F0
:10151000FF0348BF48EA00000860761C0F2E7FF6E4
:1015200025AFBDE8F18F0000003C01404438024087
:101530000838014000000240000402400008024058
:10154000000C02400010024000140240001802404B
:1015500070B50446FFF7D6FA06460CB9012070BDF7
:1015600004F13405022068700021297020680268A7
:1015700052085200026022681068C1070AD5FFF7BE
:10158000C1FA801B0628F6D3202028620321697047
:10159000032070BD1368DFF8A41260680B40A168D7
:1015A0000343E0680B432169034360690B43A1696E
:1015B0000343E0690B43216A0343606A194304282B
:1015C00003D1E06A0843216B0143116023685A6923
:1015D000606AD208042840EAC2020AD1A66AE16A17
:1015E000324331B1A06988B9002E18BF022E1FD036
:1015F00016D35A61204600F047F9A96A3F228A4073
:101600008260002028620121697070BDB0F5005F22
:101610000AD1032EEDD8DFE806F00D0B0D03E8E745
:10162000B1F1C07FE5D105E0022E03D9F61EE0D16D
:10163000C801DED5402129620120687070BDF8B56F
:10164000044604F1340600253078776A012801D178
:101650000220F2BD0120307096F801C0BCF1010FEC
:101660001FD102207070AC46C6F820C0204600F0A2
:10167000FBF8B06A3F2101FA00FCC7F808C02068F7
:10168000016841F016010160F06820B1206801682E
:1016900041F0080101602068016841F0010101602A
:1016A00001E0357002252846F2BD2DE9FC410446D3
:1016B00004F134060020624900904FF41650776A16
:1016C0000A683D68B2FBF0F8B06A082101FA00F040
:1016D00005420ED02068026853070AD5026822F03E
:1016E00004020260B06A8140B960316A41F00101D0
:1016F0003162B06A25FA00F1CA070BD521684A6940
:10170000110607D5012202FA00F0B860306A40F0F5
:10171000020030620421B06A81400D4208D0226884
:101720001068830704D5B960306A40F00400306265
:101730001021B06A81400D421BD022681068030757
:1017400017D5B960206801684A0307D5006801030E
:101750000BD5716969B1204688470AE00168CA055E
:1017600003D4016821F008010160F16809B1204645
:101770008847B06A202181400D423FD0226810681E
:10178000C3063BD5B9602068717805291CD1026871
:1017900022F01602026000F055F8F068002804BF3D
:1017A0007069002801D000F059F83F22B06A8240E9
:1017B000BA60012171700020F1693070002939D0C0
:1017C0002046BDE8FC41084701684A0307D5006888
:1017D00001030FD4316989B1204688470EE00168C2
:1017E000CA0507D4016821F0100101600120707062
:1017F00000213170B16809B120468847306AC8B10C
:10180000306AC10710D50520707000F021F80098EB
:10181000401C8045009003D320680168CA07F6D4B5
:101820000120707000213170B16919B12046BDE806
:10183000FC410847BDE8F381000000003F8010F044
:10184000680200202068416921F0800141617047F1
:1018500020680168490849000160704720680168F4
:1018600021F008010160704730B50468256825F44F
:101870008025256063608068402802D1A260E16015
:1018800030BDA160E26030BD30B501461823086864
:1018900007A400F0FF02103AB2FBF3F2800AA55C45
:1018A000CD658002042A28BF001D886530BD000078
:1018B000000610160006101610B5044610460A461B
:1018C0000146204600F02EFE204610BD38B504002B
:1018D00001D1012032BD606A30B96068B0F5827F05
:1018E00005D00021E16102E000202061606100205C
:1018F000A06204F15005687820B9002129702046C3
:10190000FFF77BFA0220687000F008F96068A168B0
:10191000E26800F4827001F404410843217C02F47F
:1019200000621043227D01F002010843A16902F028
:1019300001021043227F01F40071084394F8201043
:1019400002F038021043A26A01F0800108432168C6
:1019500002F4005210430860A06994F82410226831
:10196000000C00F0040001F01001084350602068F2
:10197000C16921F40061C1610020686001216970C2
:1019800032BD2DE9F843054605F1500700263878A9
:101990000C4691469846012808BF022000F08F802F
:1019A00001203870FFF7AEF87978012918BF0226B8
:1019B0004DD1002C18BFB9F1000F7DD003217970F3
:1019C00000237B602C63A5F83490A5F836900021A5
:1019D000A963AB87E9876B642964AB68B3F5004FF3
:1019E00009D129680B6823F040030B6029680C6853
:1019F00044F480440C6029680B685C0603D40B68CF
:101A000043F040030B604446E968B1F5006F696834
:101A100021D1002918BFB9F1010F00F073F88046F9
:101A200004E0296B0A88C26000F051F8E88E0028B3
:101A300033D0286881688A07F3D4FFF763F8A0EBF6
:101A40000800A04204D314F1010FEFD0032634E0C4
:101A5000002CEBD1FAE7002918BFB9F1010F00F013
:101A600045F8804606E0296B0A780273286B411C12
:101A700000F02FF8E88E80B1286881688A07F2D4D8
:101A8000FFF740F8A0EB0800A04203D314F1010FC8
:101A9000F0D0DBE7002CEDD1D8E7424621462846BE
:101AA00000F0A2F808B120207860A86810B900F012
:101AB00015F8009A786800B1012600F002F8BDE838
:101AC000F283012078700021397030467047286B0E
:101AD000811C2963E88E411EE98670470021009130
:101AE0002968CA68009289680091704709D1296BFA
:101AF0002B680A781A73296B4A1C2A63E98E4A1EDE
:101B0000EA86704709D1296B2B680A88DA60296B4D
:101B10008A1C2A63E98E4A1EEA867047206801689B
:101B200021F04001016070472DE9F843089C05460B
:101B30000E4690461F46FEF7E5FF381A2418FEF7BA
:101B4000E1FF81463F4801684901090D6143009169
:101B500005E0009800B900240098401E0090286815
:101B600081683140B1420CBF01200020404532D095
:101B700017F1010FF3D0FEF7C5FFA0EB0900A0425B
:101B800001D2002CE5D12868416821F0E0014160D4
:101B90006868B0F5827F08D1A868B0F5004F18BF1B
:101BA000B0F5806F01D100F019F8A86AB0F5005FB8
:101BB00009D12868016821F4005101602868026891
:101BC00042F40052026005F15000012141700022F0
:101BD0000270032000E00020BDE8F283286801685D
:101BE00021F04001016070477CB504461548164E4F
:101BF0000B4601681825B1FBF5F5B5FBF6F64FF479
:101C00007A70464300966168B1F5827F09D10092EF
:101C1000802100222046FFF787FF58B100F00CF822
:101C200076BD009830B10098401E00902168886809
:101C30000106F6D4002076BD606D40F0200060659E
:101C4000032070476802002040420F0080B50B4817
:101C5000016841F400710160026842F48062026030
:101C6000016841F480710160032000F016F80F2034
:101C700000F08CFCFFF710F8002002BD003C024091
:101C80000901020002D4284881547047274B02F012
:101C90000F021A4402F8041C7047254B19684FF6CE
:101CA000FF020002114000F4E060084321490843AC
:101CB0001860704770B51E4B1C68C4F302230124E2
:101CC000C3F10705052D2EBF0F2504FA05F56D1E7E
:101CD0001E1D072E34BF0023DB1E2940994004FA45
:101CE00003F3BDE870405B1E1A401143C8E70100D2
:101CF00007D4012200F01F010F4B8A40400943F82E
:101D000020207047401EB0F1807F01D30120704732
:101D10000A490B4A48600023F02010708B600720AE
:101D2000086000207047000000E400E018ED00E0CB
:101D30000CED00E00000FA0500E100E010E000E03A
:101D400023ED00E0F8B5040025D004F13C056978E6
:101D500021B9002028702046FEF7B9FF24216970C0
:101D6000206802685208520002602068016841F44D
:101D7000004101602068026822F40042026000F025
:101D8000B1FB01466068DFF8F820904205D2DFF829
:101D9000F430994205D20120F2BDDFF8EC00814217
:101DA000F9D32068DFF8E4304668B1FBF3F3B609F5
:101DB00043EA861646602668376A6068904206D312
:101DC0004FF4967043434FF47A70B3FBF0F35B1C0F
:101DD000BF0943EA87133362491E2368DE696768D7
:101DE000974206D27F0000F044F8042913D2042160
:101DF00011E0A06820B907EB470700F03AF805E0CA
:101E00001920474300F035F841F4804108050CBF24
:101E1000012141F40041DFF8780006400E43DE6105
:101E200022681368E169206A23F0C0030B4303436F
:101E300013602268DFF85C00936821690340E06862
:101E40000B43034393602268D368A16960691B0A4E
:101E500041EA03230343D3602068016841F0010194
:101E60000160002068602021697020630021A97052
:101E7000F2BDB1FBF7F1491CC1F30B017047000043
:101E8000A186010080841E0000093D0040420F0031
:101E90000030FFFF007CFFFFF8B5040058D004F1CC
:101EA0004005687838B9002129700FF20520606379
:101EB0002046FEF738FF02206870374E2068C1695F
:101EC0003140C1610220226810626069022836D068
:101ED000E06800280CBF10272027A068212838BF01
:101EE0007F0020682D4988421BBF2D4A9042012067
:101EF0000220FEF730FB21690A22B1F5007F0ED1E6
:101F00006369E16821B1BF00B0FBF7F0424303E031
:101F1000FF00B0FBF7F14A43B2FBF3F005E0B0FB82
:101F2000F7F042436069B2FBF0F0401D0A21B0FBBC
:101F3000F1F101F00100091A4908000201E0022153
:101F400000208A1EFE2A05D3686840F010006860F1
:101F50000120F2BD01432069226801431162226819
:101F6000D06961680640A0680E43E1680643A06935
:101F70000E43064346F40066D661A068302818BFB9
:101F8000B02804D12068C16941F48051C1610020AA
:101F9000686001216970F2BD40F0FFFF0038004029
:101FA000003C0040C16941F48061C161704738B5AF
:101FB000054691B3100030D005F140042078012887
:101FC00006D0012020706378012B03D00020207000
:101FD000022032BD0323637000206060696200F05C
:101FE00030F814BF052852002A856A85A96B0FF2C4
:101FF00091000864A96B0FF26900C863A96B0FF226
:102000008900C8642B8D2868696A00F10C02A86BEE
:10201000FFF715FB18B100F01AF8012032BD28684F
:10202000C1694A0501D4FFF7BDFF286841688A07E6
:1020300003D4416841F002014160FFE700202070B5
:1020400032BD2968C86900F007000328704760683E
:1020500040F008006060012161700020207070472E
:10206000816BC06948B90868426822F00202426088
:1020700000204885012281F841200846FFF70EB86C
:10208000806B00F0A3BA0000806B01684A68920878
:1020900092004A600021418500224286012180F899
:1020A0004110426C42F00802426400F090BA000015
:1020B0001CB5044620688168009194F84120042AE8
:1020C00032D10099CA0712D541684A060FD5C068B7
:1020D00000F069F8608E50B92068416821F0600115
:1020E0004160012284F84120204600F071FA0098F6
:1020F000410619D5206841688A0615D5416821F046
:1021000060014160002001902168CA6801928968DD
:1021100001910121019884F84110606C40F00200A7
:102120006064204600F053FA94F84100032839D146
:102130000098810719D5206841680A0615D5616A9B
:102140000A88C260606A811C6162608D411E61857F
:10215000608D50B92068416821F0A00141600120E4
:1021600084F841002046FEF799FF0098010719D531
:10217000206841688A0615D5416821F0A0014160B8
:10218000002000902168886800900120009984F860
:1021900041002046616C41F004016164BDE81640D5
:1021A00000F015BA13BDE16A0880E06A821CE262A1
:1021B000608E411E6186704738B5040001D1012050
:1021C00032BD00F019F808B900F01AF800F01DF857
:1021D00000F025F8FFE7416100F001F832BD20680A
:1021E000C16841F40051C16000206860202169701D
:1021F0002020A8700020704704F13C0568787047E3
:10220000002129702046FEF769BE242068702068EE
:10221000C16821F40051C160204600F00AB820686E
:10222000016921F4904101612068416921F02A018E
:10223000704770B5044622681169E06821F4405186
:1022400001431161D3682748A168034020690B430B
:1022500061690343E0690B430343D3605169A0699B
:1022600021F44071014351611F498A421CBF1F483C
:10227000824202D100F03EF901E000F033F96268D9
:102280002568E4691921B4F5004FA1FB00016FF046
:10229000630612D1D30F5200FEF73AFC00F028F883
:1022A000F60032366420B6FBF0F0420002F4F87219
:1022B00002EB011200F0070010E0930F9200FEF70E
:1022C00027FC00F015F8360132366420B6FBF0F03A
:1022D00000F0F00202EB011200F00F008018A8607D
:1022E00070BD0000F369FFFF0010014000140140C1
:1022F0006421B0FBF1F106FB0106704770B50400E4
:102300008AB04BD0266804F2BC45687820B9002119
:1023100029702046FEF736FE03206870F16BC80571
:102320005CBF00212161206800F090F983B000F0CB
:102330004EF80EBC206800F04DF900282CD1206822
:10234000002100F089F90021242000260AE000FB8A
:1023500001F222443C320123537011701181002399
:1023600000F02EF862689142F1D3002109E000FBF1
:1023700001F2224402F51F7200231170537000F025
:102380001FF862689142F2D383B000F020F80EBCCF
:10239000206800F08DF918B10220687001200DE06E
:1023A00084F8380001216970606A012804BF204662
:1023B00000F0B6FA206800F074FA00200AB070BD90
:1023C000491C1671D36016619361C9B27047211D13
:1023D0006846342200F0B8BA2DE9F04104000F46F7
:1023E00054D0494E306800F00F00B84202D200F0DD
:1023F00073F84BD12068454D810712D5400703D5AE
:10240000A96841F4E051A9602078010703D5A868C4
:1024100040F46040A860A968A06821F0F001014381
:10242000A9602178C80729D56068012802D12968E8
:102430008A0305E0022818BF032803D129688A010E
:1024400003D423E029688A0720D5A968890840EACF
:102450008100A860FEF756FB8046A868616800F01E
:102460000C00B0EB810F09D0FEF74CFBA0EB08008D
:1024700041F289318842F0D303202BE0306800F02C
:102480000F00874204D200F027F801D0012021E09C
:102490002078410705D5AA68E06822F4E05202439B
:1024A000AA602178080706D5A968206921F460414F
:1024B00041EAC001A960FEF721F9AA681449154B49
:1024C000C2F30312895CC84018601348006800F02A
:1024D0005DF80020BDE8F0813770316801F00F0130
:1024E000B94270470B480D4A006813680C49C3F3A2
:1024F000822206E00748094A006813680849C3F3C6
:102500004232895CC8407047003C024000380240BB
:10251000742A000868020020640200200838024083
:10252000F82A000862F30F2262F31F42401810F0ED
:10253000030308D0C91A1FD3DB0748BF00F8012DD9
:1025400028BF20F8022D130030B414461546103968
:1025500028BF20E93C00FAD8490728BF20E90C0031
:1025600048BF40F8042D890028BF20F8022D48BF3D
:1025700000F8012D30BC7047C91818BF00F8012DB4
:10258000CB0728BF00F8012D7047000038B50D4D6E
:102590000D4B2A7804464FF47A711868B1FBF2F2B9
:1025A000B0FBF2F0FFF7AEFB50B9102C08D20022BE
:1025B00021464FF0FF30FFF77DFBAC60002032BDBD
:1025C000012032BD5C020020680200207047704785
:1025D000704700000EB418B504460898012817D1BA
:1025E000A06B20F48030A063E168DFF8180301409D
:1025F000E160E16821F44011E1600F98012803D106
:10260000E06840F48010E060204600F058F90FE0E8
:10261000E06840F04000E060204600F050F90C997E
:102620000029A16B0CBF41F4803121F48031A163FA
:102630000699012907D1A16841F00601A160A168AE
:1026400041F02001A16012BC5DF810FB81684908CF
:10265000490081600020704738B504460025E068D5
:1026600020F0C0400129E0600FD1E06840F0005048
:10267000E060012000F074F960696D1CC10701D4AD
:10268000322DF6D3322D11D10EE069B9E06840F059
:102690008040E060012000F063F960696D1CC107B3
:1026A000F0D5322DF6D3EDE7012032BD002032BD4A
:1026B0000EB42DE9F043064604464FF00008002111
:1026C000002004EB8102491C0F29C2F80401F8D351
:1026D000119D06F5006785B9786840F002007860C2
:1026E000A06B20F40010A063216841F0400121603C
:1026F000206840F08000206003E0A06B40F40010F0
:10270000A06306F56061002008603A683A600C98A2
:10271000012805D1099A002A14BF0121002100E0F7
:102720000321204600F0B5F81021204600F06EF895
:1027300008B14FF00108204600F08AF808B14FF0C8
:1027400001080020386100217961F8614FF67F337C
:102750004FF0904C4FF0006E3246814605E0002667
:102760000E60C1F810908B60401C079988420FD210
:1027700002EB401101F510610E68002EEFD5002824
:1027800006BF02F51066C6F800E0C1F800C0E8E731
:10279000002005E000260E60C1F810908B60401C00
:1027A000079988420FD202EB401101F530610E68A3
:1027B000002EEFD5002806BF02F53066C6F800E00F
:1027C000C1F800C0E8E7386920F480703861002162
:1027D000A1616FF0804060610A9800F095F8DFF821
:1027E00038010143A1610D9818B1A06940F00800BB
:1027F000A061012D05D1A06940F0804040F00400A7
:10280000A0614046BDE8F0035DF810FB18B500225A
:102810000092DFF80821009B5B1C0093009B934211
:1028200012D20469002CF6D500248901009441F0ED
:10283000200101610099491C00910099914203D245
:1028400003699906F6D401E0032012BD002012BDF1
:1028500081B000210091DFF8C410009A521C009250
:10286000009A8A4210D20369002BF6D50023009308
:1028700010220261009A521C0092009A8A4203D2EE
:102880000369DA06F6D401E0032000E0002001B07D
:10289000704700F5006002681143FFE70160002007
:1028A000704700F5606100F500600A6892089200C8
:1028B0000A60416841F0020141600020704781B028
:1028C00000210091DFF85410009A521C0092009AE7
:1028D0008A4212D20369002BF6D5002300930269C5
:1028E00042F001020261009A521C0092009A8A4250
:1028F00003D20369DA07F6D401E0032000E00020E8
:1029000001B07047BFFFBDFF18B9A06940F01000CB
:10291000A061A1697047000000383C80410D0300B0
:10292000016800F2F44001220023C260037088694C
:1029300040F000608861486D40F0805040F0030036
:1029400048650020704700004AB1000011F8013BC3
:10295000521E00F8013B1CBF11F8013BF8E770471D
:1029600038B50446FEF7CEF814F1010F054602D043
:10297000044801786418FEF7C5F8401BA042FAD35A
:1029800031BD00BF5C02002030B4002512E050F8D9
:10299000042BD30744BF4A44521E091F042942F89E
:1029A000045BFAD213468C0744BF15809B1CC907F1
:1029B00048BF1D7050F8041B0029E8D130BC704797
:1029C000FEE7FEE7FEE7FEE7FEE770477047704769
:1029D00000F00AB80248FEF768BE0248FEF765BE7E
:1029E000FC0800209C0800200248416802788A18F0
:1029F000426070475C02002010B5074979441831E5
:102A0000064C7C44163404E00A68081D11448847CB
:102A10000146A142F8D110BD2C0000004800000082
:102A20004EF68851CEF20001086840F4700008604C
:102A3000BFF34F8FBFF36F8F4FF00170E1EE100ABD
:102A40007047000045FFFFFFF00600006C02002009
:102A500000000000C3E1FFFFF80100006E0300006A
:102A6000000000200248016841F4700101607047D5
:102A700088ED00E0000000000000000001020304F7
:102A80000607080900F00DF8002801D0FFF7B4FF91
:102A9000AFF300800020AFF30080FEF704FB00F0EE
:102AA00002F80120704700F001B8000007463846E0
:102AB00000F002F8FBE7000080B5AFF30080024AA7
:102AC00011001820ABBEFBE72600020005480146B6
:102AD00003B4684680F30988AFF30080FFF7A0FFD6
:102AE000FFF7D0FFA5EDF5FE0148804701480047FC
:102AF000652A0008CD2A0008000000000102030436
:102B0000FFF7FEBFFFF7FEBFFFF7FEBFFFF7FEBFF9
:102B1000FFF7FEBFFFF7FEBFFFF7FEBFFFF7FEBFE9
:102B2000FFF7FEBFFFF7FEBFFFF7FEBFFFF7FEBFD9
:102B3000FFF7FEBFFFF7FEBFFFF7FEBFFFF7FEBFC9
:102B4000FFF7FEBFFFF7FEBFFFF7FEBFFFF7FEBFB9
:102B5000FFF7FEBFFFF7FEBFFFF7FEBFFFF7FEBFA9
:102B6000FFF7FEBFFFF7FEBFFFF7FEBFFFF7FEBF99
:102B7000FFF7FEBFFFF7FEBFFFF7FEBFFFF7FEBF89
:102B8000FFF7FEBFFFF7FEBFFFF7FEBFFFF7FEBF79
:102B9000FFF7FEBFFFF7FEBFFFF7FEBFFFF7FEBF69
:102BA000FFF7FEBFFFF7FEBFFFF7FEBFFFF7FEBF59
:102BB000FFF7FEBFFFF7FEBFFFF7FEBFFFF7FEBF49
:102BC000FFF7FEBFFFF7FEBFFFF7FEBFFFF7FEBF39
:102BD000FFF7FEBFFFF7FEBFFFF7FEBFFFF7FEBF29
:102BE000FFF7FEBFFFF7FEBFFFF7FEBFFFF7FEBF19
:102BF000FFF7FEBFFFF7FEBFFFF7FEBFFFF7FEBF09
:102C0000FFF7FEBFFFF7FEBFFFF7FEBFFFF7FEBFF8
:102C1000FFF7FEBFFFF7FEBFFFF7FEBFFFF7FEBFE8
:102C2000FFF7FEBFFFF7FEBFFFF7FEBFFFF7FEBFD8
:102C3000FFF7FEBFFFF7FEBFFFF7FEBFFFF7FEBFC8
:102C4000FFF7FEBFFFF7FEBFFFF7FEBFFFF7FEBFB8
:102C5000F2460001106D5C000020800083008600B9
:102C600089008C008F009200950098009C009F00C6
:102C7000A200A500A800AB00AE00B000B300B600F3
:102C8000B900BC00BF00C100C400C700C900CC002F
:102C9000CE00D100D300D500D800DA00DC00DE0081
:102CA000E000E200E400E600E800EA00EB00ED00EE
:102CB000EF00F000F200F300F400F600F700F80077
:102CC000F900FA00FB021001FC00FD0232FE02B224
:102CD000FF022112211C12FC0212FB2E12F93612E5
:102CE000F73E12F5441001F200F1521001EE00EC33
:102CF0005C146BE900E700E500E300E100DF00DDC4
:102D000000DB00D900D700D400D200CF00CD00CA2C
:102D100000C800C500C300C000BD00BA00B800B5BF
:102D200000B200AF00AC00A900A600A300A0009D67
:102D3000009A009700940091008E008A008700841A
:102D40000081007E007B007800750071006E006BD2
:102D50000068006500080005000200090006000385
:102D600079700307000400010E211CC1081206201F
:102D7000B2020A120934210C120338210E32081053
:102D8000320512120322120218D601D32112320187
:102D90001C12032812042E12063612083E705D0B18
:102DA000000C000D000F0010001200140015001799
:102DB0000019001B001D001F002100230025002713
:102DC000002A002C002E0031003300360038003B72
:102DD000003E0040004300460049004C004F0051B7
:102DE00000540057005A005D006000630067006AED
:102DF000006D0070007300760079007C007F8A22ED
:072E00001008000124F4009A
:0400000508002ACDF8
:00000001FF
