:020000040800F2
:10000000004D00200D550008DD530008DF530008A7
:10001000E1530008E3530008E55300080000000026
:10002000000000000000000000000000E75300088E
:10003000E953000800000000EB530008ED530008EE
:10004000495500084D550008515500085555000800
:10005000595500085D5500086155000865550008B0
:10006000695500086D550008715500087555000860
:10007000795500087D550008815500088555000810
:10008000895500088D5500089155000895550008C0
:10009000995500089D550008A1550008A555000870
:1000A000A9550008AD550008B1550008B555000820
:1000B000B9550008BD550008C1550008C5550008D0
:1000C000C9550008CD550008D1550008D555000880
:1000D000D9550008DD550008E1550008E555000830
:1000E000E9550008ED550008F1550008F5550008E0
:1000F000F9550008FD55000801560008055600088E
:10010000095600080D56000811560008155600083B
:10011000195600081D560008F5530008215600081E
:1001200025560008295600082D560008FF530008E0
:10013000315600080000000000000000355600089D
:10014000395600083D56000841560008455600083B
:10015000495600084D5600085156000855560008EB
:10016000595600085D56000861560008655600089B
:10017000695600086D56000871560008000000001E
:10018000000000007556000800000000000000009C
:100190007956000800000000000000007D560008AD
:1001A0000000000000000000000000008156000870
:1001B00085560008895600088D560008915600089B
:1001C000955600082DE9F04F85B005005FF0000B53
:1001D00000240020019000200090002600200490C0
:1001E0000020039000275FF000082878C0070CD596
:1001F000DFF810190A6832F0C062A86B02430A6087
:10020000A86B002801D101200700287880070CD5B1
:10021000DFF8F0180A6832F0C052E86B02430A6057
:10022000E86B002801D1012007002878400712D58B
:10023000DFF8D0180A6832F44012286B02430A60D3
:10024000286BB0F5801F01D101200700286B002822
:1002500001D1012080462878000712D5DFF8A418C4
:100260000A6832F44002686B02430A60686BB0F5BA
:10027000800F01D101200700686B002801D1012007
:1002800080462878800673D500200290DFF8780831
:10029000016851F080510160006810F080500290B8
:1002A0000298DFF86898D9F8000050F48070C9F817
:1002B000000000F065FE8346D9F80000C00507D4B1
:1002C00000F05EFEB0EB0B000328F5D30320CBE17A
:1002D000DFF83C98D9F8000010F440700400002CBE
:1002E00026D0286C10F44070844221D0D9F8000048
:1002F00030F440700400DFF81C0801210160002187
:100300000160C9F80040D9F80000C00710D500F01E
:1003100037FE8346D9F80000800709D400F030FE8C
:10032000B0EB0B0041F289318842F3D303209BE10B
:10033000286C10F44070B0F5407F0BD1DFF8D8077F
:10034000026832F4F8122B6CDFF8D0171940114311
:10035000016005E0DFF8C007016831F4F8110160C1
:10036000D9F80000296C0905090D0843C9F80000F7
:100370002878C00604D595F85800DFF8A41708605F
:100380002878000607D5DFF89C170A6832F4400287
:10039000E86C02430A602878400607D5DFF8841726
:1003A0000A6832F08062A86C02430A602868C005BF
:1003B0000DD5DFF870170A6832F00062686D0243ED
:1003C0000A60686DB0F1006F01D101208046286895
:1003D000800507D5DFF84C170A6832F08052686C48
:1003E00002430A60286840050DD5DFF838170A680F
:1003F00032F00052286D02430A60286DB0F1005FB0
:1004000001D101200700012F04D02868B0F5006F4A
:1004100040F0B980DFF810970020C9F8000000F024
:10042000AFFD0290DFF804A7DAF80000000107D55D
:1004300000F0A6FD0299401A0328F3D3032013E12C
:100440002878C00702D5A86B002805D02878800737
:100450001ED5E86B00281BD1DFF8D4060168C1F374
:100460000141491C490001910168C1F303610091F8
:100470006968AA6851EA8211019A5208521E51EA2B
:100480000241009A51EA02616A6951EA027101600F
:100490002878400703D5286BB0F5801F06D0287850
:1004A000000727D5686BB0F5800F23D1DFF88006F1
:1004B0000168C1F30141491C490001910168C1F380
:1004C00002710E006968AA6851EA8211019A520805
:1004D000521E51EA02412A6951EA026151EA06714B
:1004E0000160DFF82006016849094901AA6A521E25
:1004F00011430160286840051ED5286DB0F1005FEA
:100500001AD1DFF82C060168C1F30141491C4900EA
:1005100000910168C1F302710E006968AA6851EA8E
:100520008211EA685208521E51EA0241009A51EAC9
:10053000026151EA067101602868000511D56868FA
:10054000A96850EA8110E9684908491E50EA01404B
:10055000296950EA0160696950EA0170DFF8D01535
:1005600008600120C9F8000000F00AFD8346DAF8AF
:100570000000000107D400F003FDB0EB0B000328DE
:10058000F5D3032070E0B8F1010F6CD1DFF8A4A51A
:100590000020CAF8000000F0F3FC0290DFF88C9510
:1005A000D9F80000800007D500F0EAFC0299401A53
:1005B0000328F3D3032057E02878400702D5286B9F
:1005C000002805D02878000721D5686B00281ED1A7
:1005D000DFF864050168C1F30141491C4900049139
:1005E000A969EA6951EA8211049A5208521E51EA35
:1005F00002416A6A51EA02610160DFF80805016898
:1006000031F4F851EA6A521E51EA02210160286869
:10061000C00516D5686DB0F1006F12D1DFF818056E
:100620000168C1F303610391A969EA6951EA821182
:100630002A6A5208521E51EA0241039A51EA0261A3
:1006400001600120CAF8000000F09AFC8346D9F846
:100650000000800007D400F093FCB0EB0B000328EF
:10066000F5D3032000E0002005B0BDE8F08FF0B521
:1006700001000022002000230024002500260F0096
:10068000012F00F0CC80022F00F04481042F02D013
:10069000082F40F0B881DFF86C74D7F800C01CF464
:1006A000700C6446A446BCF1000F14D0BCF5801F4A
:1006B00046D0BCF5001F78D0BCF5401F00F09D80EF
:1006C000BCF5800F3CD0BCF5000F6ED0BCF5400FE0
:1006D00000F09780A2E0DFF874C8DCF800C05FEAA1
:1006E0004C2C0BD4DFF86CC8DFF84CE4DEF800E0EB
:1006F0001EF03F0EBCFBFEFC63460AE0DFF850C86C
:10070000DFF834E4DEF800E01EF03F0EBCFBFEFC38
:100710006346DFF824E4DEF800C0CCF3036CDEF8B7
:1007200000E0CEF3881E0EFB03FEBEFBFCFE3F681E
:10073000C7F304277F1C3A00BEFBF2F738006DE0D8
:10074000DFF808C8DCF800C05FEA4C2C0BD4DFF8F7
:1007500004C8DFF8DCE3DEF800E01EF03F0EBCFB6F
:10076000FEFC63460AE0DFF8E8C7DFF8C4E3DEF822
:1007700000E01EF03F0EBCFBFEFC6346DFF8B0E37A
:10078000DEF800C0CCF3036CDEF800E0CEF3881E88
:100790000EFB03FEBEFBFCFE3F6817F01F077F1C2D
:1007A0003A00BEFBF2F7380038E0DFF8A077D7F860
:1007B00000C05FEA4C2C09D4DFF898C7D7F800E0F6
:1007C0001EF03F0EBCFBFEFC634608E0DFF880C76E
:1007D000D7F800E01EF03F0EBCFBFEFC6346D7F8E6
:1007E00000C0CCF3027C62463F68C7F3881707FB62
:1007F00003F7B7FBF2F7380010E0DFF85C7738005A
:100800000CE0DFF848773F687F0203D4DFF84477D5
:10081000380002E0DFF838773800FFE7F3E0DFF870
:10082000E4723F6817F0C0673D002F00002F0DD025
:10083000B7F1007F06D0B7F1806F33D0B7F1C06F4A
:1008400058D064E0DFF81077380062E0DFF8FC761B
:100850003F687F020BD5DFF8F876DFF8D4C2DCF80A
:1008600000C01CF03F0CB7FBFCF73B000AE0DFF8D0
:10087000E476DFF8BCC2DCF800C01CF03F0CB7FB2C
:10088000FCF73B00DFF8A872D7F800C0CCF3881C57
:100890000CFB03FC66463F68C7F30277B6FBF7F72D
:1008A000380036E0DFF8A476D7F800C05FEA4C2CB9
:1008B00009D5DFF89CC6D7F800E01EF03F0EBCFB60
:1008C000FEFC634608E0DFF88CC6D7F800E01EF0B7
:1008D0003F0EBCFBFEFC6346D7F800C0CCF3881C7F
:1008E0000CFB03FC66463F68C7F30277B6FBF7F7DD
:1008F00038000EE0DFF854763F687F0203D5DFF85A
:100900005076380002E0DFF84C76380001E000272E
:10091000380078E07B4F3F6817F0C0573D002F004C
:10092000002F0DD0B7F1006F06D0B7F1805F33D044
:10093000B7F1C05F58D064E0DFF81C76380062E0A1
:10094000DFF808763F687F020BD5DFF80476DFF822
:10095000E0C1DCF800C01CF03F0CB7FBFCF73B002B
:100960000AE0DFF8F075DFF8C8C1DCF800C01CF061
:100970003F0CB7FBFCF73B00DFF8B471D7F800C0C1
:10098000CCF3881C0CFB03FC66463F68C7F3027778
:10099000B6FBF7F7380036E0DFF8B075D7F800C0DF
:1009A0005FEA4C2C09D5DFF8A8C5D7F800E01EF0A7
:1009B0003F0EBCFBFEFC634608E0DFF898C5D7F8A5
:1009C00000E01EF03F0EBCFBFEFC6346D7F800C003
:1009D000CCF3881C0CFB03FC66463F68C7F3027728
:1009E000B6FBF7F738000EE0DFF860753F687F026E
:1009F00003D5DFF85C75380002E0DFF85875380081
:100A000001E000273800F0BD2DE9F0430024002567
:100A1000002600275FF000083F48006810F00C0037
:100A2000002806D0042807D0082808D00C2836D083
:100A300063E0DFF8200562E0DFF814055FE0DFF82F
:100A40000C95D9F8000010F03F000400D9F8000020
:100A500040020DD5D9F80000C0F38810DFF8F0147B
:100A6000A1FB00012200002300F090FA05000CE039
:100A7000D9F80000C0F38810DFF8D814A1FB0001FA
:100A80002200002300F082FA0500D9F80000C0F32C
:100A90000140401C40000600B5FBF6F02FE0DFF8F7
:100AA000AC94D9F8000010F03F000400D9F8000021
:100AB00040020DD5D9F80000C0F38810DFF890147B
:100AC000A1FB00012200002300F060FA05000CE009
:100AD000D9F80000C0F38810DFF87814A1FB0001FA
:100AE0002200002300F052FA0500D9F80000C0F3FC
:100AF00002700700B5FBF7F001E0DFF85804BDE82D
:100B0000F08300008C380240403802400070004002
:100B100070380240400E474208380240FFFCFF0F89
:100B2000E0114742943802406800474200380240D2
:100B30008438024070004742883802402DE9F8436B
:100B40000400002C01D10120FEE12078C00769D506
:100B5000DFF81404016811F00C01042913D00168B6
:100B600011F00C01082904D1DFF8E01309684902EB
:100B700009D4006810F00C000C280ED1DFF8CC036B
:100B80000068400209D5DFF8D8030068800349D522
:100B90006068002846D10120D6E16068B0F5803F4A
:100BA00006D1DFF8BC03016851F48031016018E020
:100BB0006068B0F5A02F0AD1DFF8A403016851F4F2
:100BC00080210160016851F48031016009E0DFF8A3
:100BD0009003016831F480310160016831F48021B3
:100BE0000160606800280ED000F0CAF90500DFF847
:100BF00070030068800315D400F0C2F9401B65281B
:100C0000F5D30320A0E100F0BBF90500DFF85003A5
:100C10000068800306D500F0B3F9401B6528F5D3C2
:100C2000032091E1207880075BD5DFF83C03016861
:100C300011F00C0F12D0016811F00C01082904D139
:100C4000DFF808130968490208D5006810F00C00A5
:100C50000C2815D1BD480068400211D4DFF800030C
:100C60000168890704D5E168012901D001206BE101
:100C7000016831F0F801226951EAC201016030E0F7
:100C8000E06800281AD00120DFF8E012086000F0C8
:100C900077F90500DFF8C8020168890706D400F07B
:100CA0006FF9401B0328F5D303204DE1016831F0B3
:100CB000F801226951EAC201016012E00020DFF868
:100CC000AC12086000F05CF90500DFF894020068DF
:100CD000800706D500F054F9401B0328F5D3032004
:100CE00032E12078000727D56069002812D0012062
:100CF000DFF87C12086000F043F90500DFF86402B9
:100D00000068800718D400F03BF9401B0328F5D396
:100D1000032019E10020DFF85812086000F030F9D4
:100D2000050090480068800706D500F029F9401BAF
:100D30000328F6D3032007E1207840077CD500275D
:100D4000DFF83082D8F80000C0000FD400200090F7
:100D5000D8F8000050F08050C8F80000D8F8000023
:100D600010F080500090009801200700DFF80892F2
:100D7000D9F80000C00513D4D9F8000050F48070F1
:100D8000C9F8000000F0FCF80500D9F80000C00523
:100D900006D400F0F5F8401B0328F6D30320D3E077
:100DA000A068012805D16D48016851F0010101607A
:100DB00015E0A068052809D16848016851F00401D0
:100DC0000160016851F00101016008E063480168B9
:100DD000490849000160016831F004010160A06820
:100DE00000280FD000F0CCF805005C4800688007B0
:100DF00018D400F0C5F8401B41F289318842F4D381
:100E00000320A1E000F0BCF805005448006880070A
:100E100008D500F0B5F8401B41F289318842F4D37F
:100E2000032091E03800C0B2012805D1D8F80000B5
:100E300030F08050C8F80000A069002800F08380DE
:100E40004948006810F00C0008284AD0A069022820
:100E500036D14A4F0020386000F092F88046DFF823
:100E60000091D9F80000800107D500F089F8B0EBB7
:100E700008000328F3D3032066E0E169206A0143F8
:100E8000606A51EA8011A06A4008401E51EA0041A0
:100E9000E06A51EA0061206B51EA00712B48016061
:100EA0000120386000F06CF80500D9F800008001DE
:100EB00049D400F065F8401B0328F6D3032043E033
:100EC00000202E49086000F05BF805002448006807
:100ED000800138D500F054F8401B0328F6D30320D6
:100EE00032E0A069012801D101202DE017480068F7
:100EF0000600A069012824D016F48000E169884228
:100F00001FD116F03F00216A88421AD147F6C070FF
:100F10003040616AB0EB811F13D116F44030A16AF2
:100F20004908491EB0EB014F0BD116F07060E16A21
:100F3000B0EB016F05D116F0E040216BB0EB017F03
:100F400001D0012000E00020BDE8F2830438024017
:100F500000127A000024F4000080BB0070380240C8
:100F6000003802407438024008380240000047420E
:100F7000800E474240380240007000406000474207
:100F800001480068704700BFEC480020BBBBE1B1DE
:100F9000B2F5803F80F07E80022A1ED98C46B1FBDC
:100FA000F2F102FB11C31B0443EA1043B3FBF2FC52
:100FB00002FB1C3380B240EA0343B3FBF2F002FBB6
:100FC000103240EA0C4000237047022A05D98446BB
:100FD000B0FBF2F002FB10C270474AB105D100F03D
:100FE000010249085FEA3000704700220023704781
:100FF00000F0E4B80B00020000210020704790428E
:1010000071EB030CF6D3B3F5803F2FD2F0B5B3FAF2
:1010100083F7B1FA81F4A7F10F0E3D1B5340CEF1D7
:10102000200602FA0EF2F3415340B5F10F0746D8FD
:101030000F3C2C444140C4F12006A040F141414006
:10104000B1FBF3F603FB1611A2FB0645001BA941F9
:1010500002D2761E8018594180EA010221FA0EF36D
:1010600062FA0EF200215A403046F0BD30B4B1FBB6
:10107000F3FC03FB1C11A2FB0C45001BA94103D28E
:10108000ACF1010C8018594130BC02460B46604659
:1010900000217047B2F1807F65D3F0B5B2FA82F7D4
:1010A000B1FA81F4C7F10F063D1B22FA06F307F1EE
:1010B000110EF24120355A40B5F10F07B8D9414021
:1010C000C4F12006A040F1414140B1FBF3FC03FB19
:1010D0001C11A2FB0C45001BA94103D2BCF1010C61
:1010E000801859410F2F12D30F3FC90341EA5041D5
:1010F000B1FBF3F603FB1611A2FB0645D4EBC0309F
:10110000A94102D2761E8018594146EACC3C07B369
:101110004140C7F12006B840F1414140B1FBF3F630
:1011200003FB1611A2FB0645001BA94102D2761E45
:101130008018594180EA010221FA0EF3C7F1200418
:1011400062FA0EF20CFA07F05A402CFA04F130431E
:10115000F0BD80EA010221FA0EF3002162FA0EF2DC
:1011600060465A40F0BD8C46B1FBF2F102FB11C360
:101170001B0243EA1063B3FBF2FC02FB1C331B02AD
:101180004CEA002043EA1063B3FBF2FC02FB1C3381
:101190001B024CEA002043EA1063B3FBF2FC02FBA3
:1011A0001C331B024CEA002043EA1063B3FBF2FC41
:1011B00002FB1C324CEA00200023704770470EE00F
:1011C00002684368024408305FEAC37C44BF4B4472
:1011D0005B1E52F804CB43F804CB091FF9D150F839
:1011E000041B0029ECD1704770B50400002C01D11C
:1011F0000120E1E094F83D00002805D1002084F8AA
:101200003C00200000F00BFC242084F83D00206806
:10121000006840084000216808602068006850F4B9
:101220000040216808602068006830F400402168B0
:10123000086000F040FE0100DFF878046268824236
:1012400008D2DFF87424914201D2012200E000228A
:10125000D2B207E0DFF86424914201D2012200E01B
:101260000022D2B2012A01D10120A5E0DFF85024EA
:10127000B1FBF2F223685B689B099B01134325686D
:101280006B6023681B6A6568854201D2551C08E0C3
:101290004FF4967505FB02F54FF47A76B5FBF6F53B
:1012A0006D1C9B099B012B4325682B622368DB691E
:1012B0006568854214D2481E65686D00B0FBF5F084
:1012C000401C0005000D042801D204253EE0481E04
:1012D00065686D00B0FBF5F56D1C2D052D0D35E035
:1012E000A068002809D14D1E666803204643B5FB5F
:1012F000F6F0401C0005000D0AE04D1E666819203E
:101300004643B5FBF6F0401C0005000D50F480404C
:10131000000501D1012519E0A068002809D14D1E62
:10132000666803204643B5FBF6F56D1C2D052D0DB3
:101330000AE04D1E666819204643B5FBF6F56D1CA4
:101340002D052D0D55F4804555F40045DFF8740347
:1013500003402B432068C3612068036833F0C00357
:10136000E0690343206A03432068036020688368C0
:10137000DFF85403034020690343E0680343206817
:1013800083602068C3681B0A1B02A069034360696D
:1013900003432068C3602068006850F001002368A0
:1013A000186000202064202084F83D000020206385
:1013B000002084F83E00002070BD2DE9FC470400A9
:1013C0000D0016001F00DDF82880FFF7D9FD8146CB
:1013D00094F83D00202840F06981CDF80090192351
:1013E0000122DFF8E812200000F019FA002801D0ED
:1013F00002205CE194F83C00012801D1022056E172
:10140000012084F83C0020680068C00705D42068EB
:10141000006850F00100216808602068006830F41E
:10142000006021680860222084F83D00102084F8C4
:101430003E000020206466626785608D2085DFF8AD
:101440009002E0624B464246290089B2200000F03B
:1014500043F9002801D0012029E1208D00280FD177
:10146000002000902068406900902068806900900A
:1014700000982068006850F400702168086040E01F
:10148000208D012815D12068006830F48060216823
:101490000860002000902068406900902068806902
:1014A000009000982068006850F40070216808607F
:1014B00027E0208D022815D12068006830F4806074
:1014C000216808602068006850F4006021680860A6
:1014D000002000902068406900902068806900909A
:1014E00000980EE02068006850F480602168086071
:1014F000002000902068406900902068806900907A
:101500000098208D002800F0C680208D042880F0EF
:101510009980208D012816D14A464146200000F0CE
:1015200027FA002801D00120C1E020680069616A23
:101530000870606A401C6062208D401E2085608DAE
:10154000401E6085DDE7208D02282DD1CDF800906A
:1015500043460022DFF87C11200000F060F90028EB
:1015600001D00120A3E02068006850F400702168D9
:10157000086020680069616A0870606A401C6062E7
:10158000208D401E2085608D401E6085206800698A
:10159000616A0870606A401C6062208D401E208570
:1015A000608D401E6085ACE7DFF828A1CDF8009083
:1015B000434600225146200000F031F9002801D0B6
:1015C000012074E02068006830F4806021680860C1
:1015D00020680069616A0870606A401C6062208D42
:1015E000401E2085608D401E6085CDF800904346EA
:1015F00000225146200000F012F9002801D00120FD
:1016000055E02068006850F4007021680860206888
:101610000069616A0870606A401C6062208D401E2B
:101620002085608D401E608520680069616A0870B1
:10163000606A401C6062208D401E2085608D401EC7
:1016400060855EE74A464146200000F091F9002897
:1016500001D001202BE020680069616A0870606A8F
:10166000401C6062208D401E2085608D401E60857C
:101670002068406940077FF544AF20680069616ACF
:101680000870606A401C6062208D401E2085608D5D
:10169000401E608535E7202084F83D00002084F856
:1016A0003E00002084F83C00002000E00220BDE85D
:1016B000F6870000A186010080841E0000093D001D
:1016C00040420F000030FFFF007CFFFF02001000CF
:1016D0000000FFFF040001002DE9FC4104000D00A3
:1016E00016001F00D4F82C802068006850F4806039
:1016F00021680860B8F1080F06D0B8F1010F03D0D7
:10170000DFF86002804506D12068006850F48070E0
:101710002168086008E0206B112805D12068006866
:1017200050F48070216808600097330000225FF059
:101730000111200000F073F8002808D0206800682C
:10174000C00502D54FF400702064032065E02069D5
:10175000B0F5804F05D155F00100C0B22168086195
:101760004FE0280080B2C00910F0060050F0F000F1
:10177000C0B2216808613B003200DFF8EC112000A4
:1017800000F092F8002801D0012046E02800C0B205
:10179000216808613B003200DFF8D011200000F022
:1017A00083F8002801D0012037E000200090206855
:1017B0004069009020688069009000982068006867
:1017C00050F48070216808600097330000225FF0B9
:1017D0000111200000F023F8002808D020680068DC
:1017E000C00502D54FF400702064032015E02800E6
:1017F00080B2C00910F0060050F0F100C0B22168BC
:1018000008613B003200DFF86411200000F04CF862
:10181000002801D0012000E00020BDE8F6812DE97C
:10182000F04105000E0017001C00DDF818803000A4
:10183000000CC0B201280AD128684069304080B24B
:10184000B1B2884201D101200BE0002009E02868F4
:101850008069304080B2B1B2884201D1012000E0FD
:1018600000203900C9B288421BD114F1010FDED02B
:10187000FFF786FBB0EB0800844201D3002CD6D1E1
:1018800000202863202085F83D00002085F83E00D8
:10189000286C50F020002864002085F83C000120CE
:1018A00000E00020BDE8F081F8B505000E0014004E
:1018B0001F003000000CC0B201280AD1286840691E
:1018C000304080B2B1B2884201D101200BE000204B
:1018D00009E028688069304080B2B1B2884201D105
:1018E000012000E00020002839D128684069400527
:1018F0001AD52868006850F40070296808607FF4E1
:1019000080602968486100202863202085F83D0018
:10191000002085F83E00286C50F004002864002068
:1019200085F83C0001201BE014F1010FC1D0FFF746
:1019300027FBC01B844201D3002CBAD100202863AE
:10194000202085F83D00002085F83E00286C50F0EE
:1019500020002864002085F83C00012000E00020E1
:10196000F2BD00000000FFFF0800010002000100BE
:1019700070B505000C0016002868406940062ED49A
:1019800028684069C00612D57FF0100029684861B8
:1019900000202863202085F83D00002085F83E00C7
:1019A000286C2864002085F83C00012018E0FFF72F
:1019B000E7FA801B844201D3002CDDD1002028638C
:1019C000202085F83D00002085F83E00286C50F06E
:1019D00020002864002085F83C00012000E0002061
:1019E00070BD000081B000200090DFF84C0301685A
:1019F00051F480410160006810F48040009000982C
:101A000000200090DFF83403016851F0805101603C
:101A1000006810F080500090009801B0704710B539
:101A200086B004001422002101A800F069FA2068A1
:101A3000DFF80C13884228D100200090DFF804035F
:101A4000016851F002010160006810F0020000908E
:101A50000098C020019012200290002003900320E3
:101A600004900420059001A9DFF8DC0200F052FA8E
:101A700000200090DFF8C402016851F400110160F9
:101A8000006810F400100090009806B010BD30B54A
:101A90009DB004001422002101A800F031FA5C225C
:101AA000002106A800F02CFA2068A849884279D1C4
:101AB000022006903220089002200990042007900E
:101AC00002200B9002200A90012010900020159017
:101AD00006A8FEF777FB002801D000F0A5FE002045
:101AE00000909548016851F480510160006810F43D
:101AF000805000900098002000909248016851F0BA
:101B000001010160016811F00101009100990021BB
:101B10000091016851F004010160006810F00400B8
:101B200000900098B02001900220029000200390C5
:101B3000002004900520059001A9854800F0EAF9ED
:101B400010200190022002900020039000200490B9
:101B50000520059001A97F4800F0DCF97E4D7F4803
:101B600028605FF0C06068604020A8600020E860E6
:101B70004FF4806028614FF4006068614FF40050BA
:101B8000A8614FF48070E8615FF440302862002063
:101B90006862280000F04AFE002801D000F044FEF0
:101BA000A563AC631DB030BD1CB5040020686C4952
:101BB000884213D1002000906048016851F0100164
:101BC0000160006810F010000090009800220021D1
:101BD000362001F0E5F8362001F0F7F813BD10B516
:101BE00086B004001422002101A800F089F92068C1
:101BF0005C49884227D1002000904F48016851F08D
:101C000010010160006810F01000009000980020A2
:101C100000904C48016851F001010160006810F02B
:101C20000100009000984FF4C060019002200290E3
:101C300000200390032004900720059001A9444848
:101C400000F068F92AE020684749884226D1002040
:101C500000903A48016851F480210160006810F456
:101C6000802000900098002000903648016851F0D4
:101C700004010160006810F00400009000984FF427
:101C800084600190022002900020039003200490C1
:101C90000720059001A92F4800F03CF906B010BDBF
:101CA00018B59DB004001422002101A800F028F905
:101CB0005C22002106A800F023F92068B0F1A04FB3
:101CC00037D14FF48070069000201B9006A8FEF7D5
:101CD00079FA002801D000F0A7FD002000901948F3
:101CE000016851F001010160006810F001000090EE
:101CF00000984FF4C0500190022002900020039001
:101D0000032004900A20059001A9114800F002F96F
:101D10001648016851F080010160002000900648DB
:101D2000016851F480410160006810F48040009027
:101D300000981EB010BD00004438024040380240F8
:101D4000005400403038024000040240003001409E
:101D50000000024000080240E846002058640240AB
:101D6000001000400010014000480040343802409C
:101D70002DE9F04104000D00002C01D1012095E077
:101D8000584F386810F00F00A84207D23D703868ED
:101D900010F00F00A84201D0012087E020788007D2
:101DA00016D52078400704D54F48016851F4E0511A
:101DB00001602078000704D54B48016851F4604168
:101DC000016049490A6832F0F002A06802430A60E3
:101DD0002078C00738D56068012805D143480068DD
:101DE000800313D4012061E06068022802D060689B
:101DF000032805D13D480068800107D4012055E043
:101E00003A480068800701D401204FE0DFF8D8800D
:101E1000D8F800108908890060680143C8F80010EC
:101E2000FFF7AEF80600D8F8000010F00C0061686B
:101E3000B0EB810F08D0FFF7A3F8801B41F2893186
:101E40008842F0D3032031E0386810F00F0085425B
:101E500007D23D70386810F00F00A84201D0012071
:101E600024E02078400706D51F490A6832F4E05282
:101E7000E06802430A602078000707D51A48016825
:101E800031F46041226951EAC2010160FEF7BCFDF4
:101E90001749154A1268C2F30312895CC8401549F4
:101EA00008601548006800F0ADFF0020BDE8F08133
:101EB00010480068704780B5FFF7FAFF0F490A4ADB
:101EC0001268C2F38222895CC84002BD80B5FFF768
:101ED000EFFF0A49044A1268C2F34232895CC840E3
:101EE00002BD0000003C02400838024000380240B9
:101EF000FC540008D4010020D00100204055000807
:101F000010B5044610460A460146204600F0A0FFE0
:101F1000204610BDF8B50023002400250026102E11
:101F200080F0F380012717FA06F213000A681A40BE
:101F300014009C4240F0E7800A7912F00302012A63
:101F400004D00A7912F00302022A1BD1D0F808C08B
:101F50005FF0030E72001EFA02FE3CEA0E0CD1F88E
:101F60000CE072001EFA02FE5EEA0C0CC0F808C01B
:101F70004268B740BA434F68C7F30017B7403A43C7
:101F8000150045600A7912F00302032A10D0C768D1
:101F90005FF0030C72001CFA02FC37EA0C07D1F860
:101FA00008C072001CFA02FC5CEA07073D00C5602D
:101FB0000A7912F00302022A1AD13200D20800EB89
:101FC0008202126A0F275FEA860C1CF01C0C17FABB
:101FD0000CF7BA430F695FEA860C1CF01C0C17FA69
:101FE0000CF73A4315003200D20800EB820215626A
:101FF00007685FF0030C72001CFA02FC37EA0C075A
:1020000091F804C01CF0030C72001CFA02FC5CEA9C
:1020100007073D0005604A6812F4403F73D0002274
:102020000092414A176857F480471760126812F40B
:1020300080420092009A3D4F3200920857F82220C9
:102040005FF00F0C5FEA860E1EF00C0E1CFA0EFC01
:1020500032EA0C02DFF8D8C0604501D100251EE04D
:10206000344DA84201D1012519E0334DA84201D1D8
:10207000022514E0314DA84201D103250FE0304D77
:10208000A84201D104250AE02E4DA84201D1052520
:1020900005E02D4DA84201D1062500E00725EDB24F
:1020A0005FEA860C1CF00C0C15FA0CF52A4335007F
:1020B000AD0847F82520254F3D68A543D1F804C059
:1020C0005FEACC2C00D525433D60214F3A68A243FE
:1020D000D1F804C05FEA8C2C00D522433A601D4D34
:1020E0002F68A743D1F804C05FEA8C3C00D5274392
:1020F0002F60194A1568A543D1F804C05FEACC3CAB
:1021000000D525431560761C09E7F1BD1300DBB24D
:10211000002B03D00B009BB2836103E00B009BB24A
:102120001B048361704700004438024008380140B6
:10213000000002400004024000080240000C02407F
:10214000001002400014024000180240083C014008
:102150000C3C0140043C0140003C0140016851F04E
:10216000400101607047426832F010020A43426049
:1021700070470A0092B2C260704781B0DFF824163F
:102180000A6802430A60096801400091009901B0A1
:10219000704781B0DFF810160A6802430A600968C8
:1021A00001400091009901B070472DE9F84300F01B
:1021B00083FE00F0BDF800F049FA00F031FA00F0BB
:1021C00013F900F030F900F04CF900F0D2F900F00A
:1021D00008FA00F0EAF900F0A3F901224FF4805167
:1021E000DFF8C805FFF792FF00F07BFADFF8C05573
:1021F00004202870DFF8BC65DFF8BC45207A10F0B9
:1022000003003070DFF8B475607E3870DFF8B08599
:102210007FF00040C8F80000D8F8000000F06EFE23
:10222000D8F8000000F0BEFED8F8000000F0ECFE88
:10223000D8F8000000F095FEDFF88895CDF8009002
:10224000D8F8003032783978287800F021FFDFF8AC
:1022500078554FF400624946DFF8700501F044F903
:102260002870DFF86C6500203070DFF86875FEF7C5
:1022700087FE3860FEF784FE3968401A0B28F9D3D0
:102280003078002803D002281BD00CD327E0DFF8D9
:10229000480504602420DFF8441508800C20DFF88E
:1022A0004015087026E014F10C00DFF82C150860CA
:1022B0002620DFF8281508800D20DFF82415087087
:1022C00018E014F11900DFF8101508602820DFF875
:1022D0000C1508800220DFF8081508700AE0DFF806
:1022E000F80404602420DFF8F41408800C20DFF8E0
:1022F000F01408701E200090DFF8E40403789BB20D
:10230000DFF8D4040268DFF8D4040188DFF8D404CD
:10231000FFF753F828703078022802DB0020307075
:1023200002E03078401C3070FEF72AFE3860A1E7EA
:1023300018B593B03421002206AC200000F088FDCF
:102340001421002201AC200000F082FD002000904A
:10235000DFF85404016851F080510160006810F00A
:1023600080500090009800200090DFF87C0401214C
:10237000026861F38F320260006810F44040009000
:102380000098032006905FF48030079001200990A8
:1023900010200A9002200C905FF480000D90042021
:1023A0000E9048200F9002201090032011900220E0
:1023B000129006A8FEF7C2FB002801D000F034FA04
:1023C0000F20019000200290002003900020049034
:1023D00000200590002101A8FFF7CAFC002801D0C9
:1023E00000F022FA14B010BD80B5DFF8F803DFF872
:1023F000FC130160DFF8F8134160002181600021C7
:10240000C1604FF48041016100214161002181617F
:102410000021C16100210162FEF7E6FE002801D023
:1024200000F002FA01BD80B5DFF8A003DFF8C413A5
:1024300001604FF400714160102282600522C26089
:1024400001614BF680314161002181610021C16150
:102450000021016200F098FF002801D000F0E4F9AB
:1024600001BD10B590B02821002206AC200000F07C
:10247000EFFC182100226C46200000F0E9FC4FF42C
:102480008040FFF786FE0420FFF777FE0220FFF76B
:1024900074FE022000900220019003200290002090
:1024A000039000200490072005906946DFF8480358
:1024B00001F0CCF94FF480600090022001900320DD
:1024C00002900020039000200490052005906946AA
:1024D000DFF8D80201F0BAF94FF4404006904FF40B
:1024E000827007904FF4006008900020099000204F
:1024F0000A904FF400700B9018200C9000200D9063
:1025000000200E900A200F90DFF8F04206A920006C
:1025100001F0EDF900212000FFF725FE10B010BDFD
:102520001CB5082100226C46200000F091FCDFF869
:10253000D042DFF8D00220600F2060600020A06051
:1025400042F20F70E0600020A061200001F008FA64
:10255000002801D000F068F90020009000200190D0
:102560006946200001F06AFB002801D000F05CF908
:1025700013BD80B5DFF89002DFF8901201605FF4C0
:10258000E1314160002181600021C16000210161D1
:102590000C214161002181610021C16101F0A6FB94
:1025A000002801D000F040F901BD80B5DFF86002DD
:1025B000DFF8601201605FF4E13141600021816069
:1025C0000021C160002101610C2141610021816174
:1025D0000021C16101F08AFB002801D000F024F93C
:1025E00001BD80B5DFF830025FF0A0410160062137
:1025F00041600221C160002101610221816100214D
:10260000C16100210162002141620021C1620021FB
:10261000016301F0E1FC002801D000F005F901BDE3
:1026200080B5002000905F48016851F4800101608E
:10263000006810F4800000900098002200213B20E8
:1026400000F0AEFB3B2000F0C0FB01BD10B586B032
:102650001421002201AC200000F0FAFB00200090C1
:102660005048016851F080010160016811F080015B
:102670000091009900210091016851F0040101606E
:10268000016811F004010091009900210091016896
:1026900051F001010160016811F001010091009900
:1026A00000210091016851F002010160006810F002
:1026B0000200009000983D4C00224FF48051200011
:1026C000FFF724FD4FF4805001900120029000207C
:1026D00003900020049001A92000FFF71BFC06B026
:1026E00010BD10B506244548FFF738FD21004B48C2
:1026F00000F001F810BD2DE9F04104000D000026A6
:10270000300080B2A84229D2284F00224FF48051D5
:102710003800FFF7FBFCDFF80881D8F800008007DD
:10272000F9D5300080B234F810103448FFF721FD9D
:10273000D8F800008007FBD5D8F800000006FBD4CD
:10274000022001F009FD01224FF480513800FFF70B
:10275000DDFC0A2001F000FD761CD1E70A2001F023
:10276000FBFCBDE8F0811CB504001648009014483D
:10277000036810480278114801780D48007800F08D
:1027800087FC13BD1CB50400264800900C48036864
:1027900008480278094801780548007800F078FC7C
:1027A00013BD0000303802404038024000040240AF
:1027B000D8010020F7480020B4480020F848002045
:1027C000E8480020DC010020F44800209C4700205D
:1027D000F5480020E4480020E0480020F2480020AE
:1027E000F648002048470020007000400054004098
:1027F000A08601000030014000080240003800407F
:10280000E4470020001000402C4800200010014048
:102810007048002000480040DC4100202C55000892
:1028200008380040DC11002072B6FEE770B50400E5
:102830000026FEF7A5FB0500002C01D1012066E073
:10284000606A0028022084F83500002084F83400F3
:10285000206800684008400021680860206800681F
:10286000C0070BD5FEF78CFB401B0628F6D32020B3
:102870006065032084F83500032048E02068016883
:10288000DFF88003014060680143A0680143E0680D
:1028900001432069014360690143A0690143E06984
:1028A0000143206A0143606A042804D1E06A0143BD
:1028B0000800216B01432068016020684669F60822
:1028C000F600606A0643606A042810D1A06A0643D5
:1028D000E06A00280BD0200000F09AF9002806D00A
:1028E00040206065012084F8350001200FE0206859
:1028F0004661200000F06DF901003F22E06D82404A
:102900008A6000206065012084F83500002070BDD9
:102910002DE9F84304000D0016001F005FF00008C9
:10292000D4F8589094F83400012801D1022033E003
:10293000012084F8340094F83500012825D10220C4
:1029400084F83500002060653B003200290020003B
:1029500000F028F93F21E06D8140C9F80810206897
:10296000006850F0160021680860206C002805D02F
:102970002068006850F0080021680860206800683E
:1029800050F001002168086004E0002084F8340061
:10299000022080464046C0B2BDE8F283F8B504008C
:1029A00000200090DFF8600200684FF41651B0FB81
:1029B000F1F5A66D37680821E06D11FA00F00742C5
:1029C00010D02068006840070CD52068006830F0FF
:1029D000040022681060E06D8140B160606D50F0CD
:1029E00001006065E06D3900C140C8070BD5206863
:1029F0004069000607D50121E06D8140B160606D3E
:102A000050F0020060650421E06D11FA00F0074209
:102A10000AD020680068800706D5E06D8140B1606B
:102A2000606D50F0040060651021E06D11FA00F057
:102A300007422CD020680068000728D5E06D81404F
:102A4000B16020680068400311D520680068000369
:102A500006D4206C00281AD02000216C884716E08C
:102A6000A06C002813D02000A16C88470FE02068DC
:102A70000068C00505D42068006830F008002168AF
:102A80000860206C002802D02000216C884720219B
:102A9000E06D11FA00F007425FD020680068C006C0
:102AA0005BD5E06D8140B16094F83500052828D1F0
:102AB0002068006830F016002168086020684069CE
:102AC00030F0800021684861206C002802D1A06CA1
:102AD000002805D02068006830F0080021680860F0
:102AE0003F21E06D8140B160012084F83500002075
:102AF00084F83400206D002802D02000216D884722
:102B00004FE020680068400311D52068006800038A
:102B100006D4606C002820D02000616C88471CE03F
:102B2000E06B002819D02000E16B884715E0206891
:102B30000068C0050BD42068006830F010002168E0
:102B40000860012084F83500002084F83400E06B30
:102B5000002802D02000E16B8847606D002820D05B
:102B6000606DC00717D5052084F83500206800681F
:102B700040084000216808600098401C0090854291
:102B800003D320680068C007F6D4012084F835001C
:102B9000002084F83400E06C002802D02000E16CB2
:102BA0008847F1BD30B40468246834F48024056893
:102BB0002C60046863608468402C04D10468A260BF
:102BC0000468E16003E00468A1600468E26030BC6E
:102BD0007047017801F0FF0110391822B1FBF2F1C2
:102BE0000A4A525CC265042905D30268920A92021D
:102BF000121D826503E00268920A92028265806D6E
:102C0000704700003F8010F0D401002038550008C4
:102C100010B402000020936A9169002916D1002B9C
:102C200005D0022B03D008D3032B0DD00DE0D16AC1
:102C3000C90101D50121080035E0D16AB1F1C07F99
:102C400001D1012108002EE02DE02CE09169B1F5C1
:102C5000005F18D1002B05D0022B03D005D3032B26
:102C600009D00FE0012108001DE0D16AC90101D59A
:102C70000121080017E0D16AB1F1C07F01D1012123
:102C8000080010E00FE019000029022902D9C91E2E
:102C900003D008E00121080005E0D16AC90101D58F
:102CA00001210800FFE7C0B210BC704710B410F05B
:102CB0000703DFF8304122684FF6FF010A4052EA6D
:102CC0000322DFF824110A43226010BC7047DFF8AA
:102CD00014010068C0F302207047010049B20029C6
:102CE00009D4012210F01F018A40404903005BB261
:102CF0005B0941F82320704710B4020052B2002A49
:102D000005D40A013A4B040064B21A5508E00A01DE
:102D1000384B040064B214F00F04234403F8042C6D
:102D200010BC704770B4030013F00704D4F107001F
:102D3000052801D3042001E0D4F10700251D072D4B
:102D400001D2002500E0E51E012616FA00F0401E23
:102D50000140A94016FA05F56D1E2A4011430800EE
:102D600070BC704710B50400601EB0F1807F01D3C5
:102D700001200EE0601E204908600F215FF0FF3047
:102D8000FFF7BAFF00201D49086007201C490860B2
:102D9000002010BD10B504002000FFF787FF10BD14
:102DA0002DE9F04104000D0016000027FFF78FFF0A
:102DB0008046320029004046FFF7B4FF01002000A2
:102DC00040B2FFF799FFBDE8F08110B50400200084
:102DD00040B2FFF782FF10BD10B504002000FFF7DE
:102DE000C1FF10BD0CED00E00000FA0500E100E0BD
:102DF00000E400E018ED00E014E000E018E000E07E
:102E000010E000E010B504004FF47A700D49097825
:102E1000B0FBF1F00C490968B1FBF0F0FFF7DCFF03
:102E2000002801D001200CE0102C09D20022210042
:102E30005FF0FF30FFF7B4FF04480460002000E0BB
:102E4000012010BDD9010020D4010020D0010020B4
:102E500062F30F2262F31F42401810F0030308D000
:102E6000C91A1FD3DB0748BF00F8012D28BF20F87F
:102E7000022D130030B414461546103928BF20E93E
:102E80003C00FAD8490728BF20E90C0048BF40F8A9
:102E9000042D890028BF20F8022D48BF00F8012D1D
:102EA00030BC7047C91818BF00F8012DCB0728BFE8
:102EB00000F8012D7047000080B50B48016851F4FF
:102EC00000710160016851F480610160016851F492
:102ED000807101600320FFF75DFF0F20FFF792FF75
:102EE000FEF780FD002002BD003C024001000A0CFC
:102EF00012048BB2180450EA12407047F8B506006D
:102F0000DFF84C74002038803888B0F5007F27DA6D
:102F1000300001F035F904000D00388801F030F977
:102F2000DFF83024DFF8303401F038F900225FF0A8
:102F3000814301F009FA41EC100B01F02CFB53EC3A
:102F4000102B2000290001F029F901F02BFBDFF8FC
:102F50000C143A8841F822003888401C3880D3E7A6
:102F6000F1BD10B4DFF8E81300220A800A88B2F538
:102F7000007F14DA0A8840F201139A4205D2DFF882
:102F8000E0230B8842F8230005E00022DFF8D0336D
:102F90000C8843F824200A88521C0A80E6E710BCFB
:102FA0007047000000EE100ADFF8A4030021018042
:102FB0000188B1F5007F25DA018840F2FF129142C5
:102FC00006D10021DFF89C23038842F8231015E086
:102FD000F8EE400A018801EE101AB8EE411ADFED52
:102FE0007D1A81EE211A60EE810AFDEEE00ADFF81B
:102FF0007413028801EB8201C1ED000A0188491CAB
:103000000180D5E77047000000EE100AD04800218B
:1030100001800188B1F5007F39DA018840F20112A0
:10302000914215DAF8EE400A018801EE101AB8EE66
:10303000411ADFED691A81EE211A60EE810AFDEE78
:10304000E00AC949028801EB8201C1ED000A1AE0D9
:10305000F8EE400A0188B1F5807101EE101AB8EE61
:10306000C11ADFED5D1A81EE211AF7EE001A31EE7A
:10307000C11A60EE810AFDEEE00ABB49028801EB4D
:103080008201C1ED000A0188491C0180C1E7704737
:103090002DE9F24F2DED028B040015001E000C9F50
:1030A000B249B34A2300DBB23020434302EB0300B2
:1030B0004A7E00EB820090ED008ADFF8B8829FED37
:1030C000450A28EE000ADFEDA00A80EE200A88ED0E
:1030D000000A087A10F00300002805D002280BD05F
:1030E00006D303280CD00FE09C48A34908600EE0EB
:1030F0009D48A14908600AE09A489F49086006E097
:1031000097489D49086002E094489B49086000F098
:1031100065F8DFF83C920020A9F80000B9F800003B
:10312000B0F5007F52DADFF854A29AED000A01F000
:1031300055FABDEEC00AF0EE408ADFF844B28E4880
:10314000006818EE901A00EB810090ED000AB8EECE
:10315000C00A8C48D0ED070A20EE200A01F03EFAA2
:10316000BDEEC00A8BED000ADBF80000FFF7BEFEE3
:10317000CBF80000DBF80000B9F8001047F8310088
:10318000DBF80000B9F8001007EBC10148609AEDC8
:10319000000AD8ED000A30EE200A8AED000A9AED06
:1031A000000ADFED0C0AB4EE600AF1EE10FA07DB5C
:1031B0009AED000ADFED650A30EE200A8AED000A7A
:1031C000B9F80000401CA9F80000A7E7BDEC028B8D
:1031D000BDE8F18F000000440000804338B52DEDBC
:1031E000028B6248847E14F00104664D2878002822
:1031F00006D0022835D010D304286FD061D39CE0CC
:103200002000C0B2012805D1FDF7BAFEA861012057
:10321000287096E00020E86193E0FDF7B1FE6A684F
:10322000A9698A18824205D2FDF7AAFEA861022088
:10323000287086E0FDF7A4FEA969401A00EE100A86
:10324000B8EE400A01F0E8F9B0EE408A95ED020AC6
:10325000B8EE400A01F0E0F988EE000A85ED070AB1
:103260006FE0FDF78DFEAA68A9698A18824205D22F
:10327000FDF786FEA8610320287062E0FDF780FE5E
:10328000A968081AA969081800EE100AB8EE400AE1
:10329000D5ED020AF8EE600AB7EE001AD5ED031A72
:1032A00031EE611A20EE000A21EE000A60EEA00A5B
:1032B00080EE200AD5ED030A30EE200A85ED070ADC
:1032C0003FE02000C0B2002805D1FDF759FEA861FB
:1032D0000420287035E0E868E86132E0FDF750FE30
:1032E0002A69A9698A18824201D200202870FDF754
:1032F00047FE2969081AA969081800EE100AB8EEF5
:10330000400AD5ED040AF8EE600A20EE000A95EDB9
:10331000031A20EE010A60EEA00A80EE200A85ED75
:10332000070A95ED030AD5ED070AB4EE600AF1EE3F
:1033300010FA01D50020E86103E000202870002089
:10334000E861BDEC028B31BD00803B47000000C44A
:10335000F04800206E861BF0F9211940DC21002086
:10336000DC290020DC310020DC390020B4480020BA
:1033700000000020D8480020D4480020DC4800206D
:10338000D0480020B00100202DE9F0410400002CBD
:1033900001D10120A0E094F84100002808D10020CC
:1033A00084F840000FF2F92060632000FEF76FFB05
:1033B000022084F84100DFF824812068C06918EAFF
:1033C00000002168C8610220216808626069022843
:1033D00048D0E068002802D11020050001E020203C
:1033E0000500A068212800D26D0020683C49884271
:1033F00003D020683B49884204D10120FDF737F90A
:10340000070003E00220FDF732F907002069B0F55C
:10341000007F16D1E068002809D0A800B7FBF0F1C2
:103420000A2041436069B1FBF0F0401D11E0E80063
:10343000B7FBF0F10A2041436069B1FBF0F0401D99
:1034400007E0B7FBF5F10A2041436069B1FBF0F0FA
:10345000401D0A21B0FBF1F616F00102B11A49082D
:10346000120201E002210022022902D3B1F5807F7D
:1034700005D3606C50F01000606401202CE052EA2B
:10348000010320690343206803622068C06918EAC9
:103490000008606850EA0808A06850EA0808E06878
:1034A00050EA0808A06950EA080858F40068206843
:1034B000C0F81C80A068302802D0A068B02805D1D0
:1034C0002068C06950F480502368D861002060648F
:1034D000012084F841000020BDE8F08140F0FFFFAA
:1034E00000380040003C0040F8B505000C00160014
:1034F000002C03D0300080B2002801D1012060E010
:1035000095F84000012801D102205AE0012085F8F9
:10351000400095F84100012804D0002085F84000C3
:1035200002204EE0032085F84100002068646C62B0
:103530002868C76917F00707032F01D0052F04D1AA
:10354000700028857000688501E02E856E850FF279
:10355000A100A96B08640FF26D00A96BC8630FF29C
:10356000A100A96BC8642B8D286810F10C02696A50
:10357000A86BFFF7CDF900280BD0686C50F008005D
:103580006864012085F84100002085F84000012092
:1035900017E02868C069400505D42868C06950F460
:1035A00080602968C86128684068800705D4286859
:1035B000406850F0020029684860002085F840000B
:1035C0000020F2BD38B50400A56BE06900280AD1DF
:1035D0002868406830F0020029684860002068854B
:1035E000012085F841002800FFF7CCF831BD00002C
:1035F00038B50400A56B2800FFF7B5F831BD000011
:1036000038B50400A56B28684068800880002968E8
:1036100048600020688500206886012085F8410008
:10362000686C50F008006864280001F004F831BDAF
:1036300010B50400606A00882168C860606A801C58
:103640006062608D401E6085608D00280BD120680F
:10365000406830F0A00021684860012084F84100F3
:103660002000FFF78FF810BD10B504002068C06877
:10367000E16A0880E06A801CE062608E401E60861D
:10368000608E00280BD12068406830F0600021680F
:103690004860012084F84100200000F0CDFF10BDFB
:1036A0001CB5040020688068009094F8410004284C
:1036B00029D10098C00706D520684068400602D589
:1036C0002000FFF7D1FF009840061CD52068406815
:1036D000800618D52068406830F060002168486096
:1036E000002001902068C0680190206880680190E7
:1036F0000198012084F84100606C50F00200606481
:10370000200000F098FF94F84100032826D100988B
:10371000800706D520684068000602D52000FFF724
:1037200087FF0098000719D520684068800615D5E6
:103730002068406830F0A0002168486000200190B7
:103740002068806801900198012084F84100606C35
:1037500050F004006064200000F06DFF13BD000015
:1037600030B4046891FAA1F3B3FA83F303255B0044
:103770009D40AC4391FAA1F3B3FA83F35B0012FAD4
:1037800003F31C43046030BC704710B444688C439E
:1037900002FB01F31C43446010BC704730B48468E2
:1037A00091FAA1F3B3FA83F303255B009D40AC4388
:1037B00091FAA1F3B3FA83F35B0012FA03F31C430B
:1037C000846030BC704730B4C46891FAA1F3B3FA96
:1037D00083F303255B009D40AC4391FAA1F3B3FA58
:1037E00083F35B0012FA03F31C43C46030BC7047E0
:1037F00030B4046A91FAA1F3B3FA83F30F259B0066
:103800009D40AC4391FAA1F3B3FA83F39B0012FA03
:1038100003F31C43046230BC704730B4446A0B00AD
:103820001B0A93FAA3F3B3FA83F30F259B009D4081
:10383000AC430B001B0A93FAA3F3B3FA83F39B0088
:1038400012FA03F31C43446230BC7047F8B505001C
:103850000E0000200024316891FAA1F1B1FA81F73D
:103860003068F840002836D030680121B94008405F
:103870000400002C2DD07068012802D07068022846
:1038800009D1B26821002800FFF788FFF268210003
:103890002800FFF77AFF326921002800FFF793FF25
:1038A0007068022810D194FAA4F0B0FA80F00828C9
:1038B00005D2726921002800FFF79AFF04E07269BF
:1038C00021002800FFF7A9FF726821002800FFF7F8
:1038D00047FF7F1CC4E70020F2BD0000006880099C
:1038E00010F0010070470A0092B20261704770B593
:1038F00004000D0001262000FFF7F0FF002826D16C
:103900002168164801402868014368680143A86897
:103910000143E86801432869014368690143A869D4
:103920000143E8690143286A01432160606830F07F
:103930000400696950EA11406060286AB0F5005FD0
:1039400003D1696A2000FFF7CEFF00200600E0697E
:1039500030F40060E0613000C0B270BD4000FFFF95
:1039600010B50400002C01D101202FE094F83D0097
:10397000002805D1002084F83C002000FEF714F94F
:10398000022084F83D00211D206800F0DBF80120B2
:1039900084F84600012084F83E00012084F83F00AE
:1039A000012084F84000012084F84100012084F8BF
:1039B0004200012084F84300012084F844000120E3
:1039C00084F84500012084F83D00002010BD10B5AA
:1039D00004002068006980071AD52068C068800745
:1039E00016D57FF002002168086101202077206849
:1039F000806910F0030F03D0200000F01EFE05E0E8
:103A0000200000F01BFE200000F019FE00202077AF
:103A10002068006940071AD52068C068400716D59D
:103A20007FF0040021680861022020772068806907
:103A300010F4407F03D0200000F0FFFD05E02000DF
:103A400000F0FCFD200000F0FAFD00202077206847
:103A5000006900071AD52068C068000716D57FF0F6
:103A6000080021680861042020772068C06910F0F0
:103A7000030F03D0200000F0E0FD05E0200000F07F
:103A8000DDFD200000F0DBFD0020207720680069CC
:103A9000C0061AD52068C068C00616D57FF0100091
:103AA00021680861082020772068C06910F4407FF1
:103AB00003D0200000F0C1FD05E0200000F0BEFDB5
:103AC000200000F0BCFD0020207720680069C007BE
:103AD0000AD52068C068C00706D57FF001002168BC
:103AE0000861200000F0ACFD2068006900060AD5DE
:103AF0002068C068000606D57FF080002168086154
:103B0000200000F09EFD2068006940060AD520686C
:103B1000C068400606D57FF040002168086120009B
:103B200000F090FD2068006980060AD52068C06812
:103B3000800606D57FF0200021680861200000F093
:103B400082FD10BD10B40468DFF8C430984212D072
:103B5000B0F1804F0FD0DFF8BC2090420BD0DFF8DF
:103B6000B820904207D0DFF8B420904203D0DFF8AD
:103B7000B020904204D134F0700422004C68144309
:103B800098422AD0B0F1804F27D0DFF888209042A9
:103B900023D0DFF8842090421FD0DFF880209042AD
:103BA0001BD0DFF87C20904217D0DFF878209042BD
:103BB00013D0DFF8742090420FD0DFF870209042CD
:103BC0000BD0DFF86C20904207D0DFF868209042DD
:103BD00003D0DFF86420904204D134F44074220012
:103BE000CC68144334F080044A69144304608A6842
:103BF000C2620A688262984202D0094A904201D1A8
:103C00000A6902630122426110BC70470000000093
:103C1000000001400004004000080040000C00408B
:103C200000040140004001400044014000480140C0
:103C300000180040001C00400020004030B402008A
:103C400092F83C00012801D102203DE0012082F8D9
:103C50003C00022082F83D001068436810688468C8
:103C600033F0700308680343106843601068184D10
:103C7000A8421BD01068B0F1804F17D01068154DC6
:103C8000A84213D01068144DA8420FD01068134DED
:103C9000A8420BD01068124DA84207D01068114DF1
:103CA000A84203D01068104DA84206D134F0800419
:103CB00020004C68044310688460012082F83D00B5
:103CC000002082F83C00002030BC7047000000005B
:103CD000000001400004004000080040000C0040CB
:103CE00000040140004001400018004010B50400ED
:103CF000002C01D1012033E0A0690028FFD194F805
:103D00003D00002805D1002084F83C002000FDF78C
:103D100066FF242084F83D002068C06830F400501D
:103D20002168C860200000F01CF82068006930F4A9
:103D30009040216808612068406930F02A002168BD
:103D400048612068C06850F400502168C8600020B5
:103D50002064202084F83D00202084F83E000020CC
:103D600010BD2DE9F84F05002868016931F4405174
:103D7000E868014328680161A96828690143686906
:103D80000143D5F81CA05AEA010A2868C1688F4887
:103D900001405AEA01012868C1602868416931F48C
:103DA0004071A869014328684161286888498842B0
:103DB00003D028688749884203D1FEF787F80400BA
:103DC00002E0FEF778F80400E869B0F5004F7DD115
:103DD0007FF063081926002722000023A6FB0201BA
:103DE00006FB031107FB02116A6800235B0043EA2C
:103DF000D2735200FDF7CAF86421B0FBF1FB220038
:103E00000023A6FB020106FB031107FB02116A68EF
:103E100000235B0043EAD2735200FDF7B7F88146F6
:103E200022000023A6FB020106FB031107FB02117F
:103E30006A6800235B0043EAD2735200FDF7A6F8DC
:103E40006421B0FBF1F008FB0090C0003230642127
:103E5000B0FBF1F0400010F4F87010EB0B1083464B
:103E600022000023A6FB020106FB031107FB02113F
:103E70006A6800235B0043EAD2735200FDF786F8BC
:103E800081462000002102000B00A6FB020106FB78
:103E9000031107FB02116A6800235B0043EAD27337
:103EA0005200FDF773F86421B0FBF1F008FB0098B5
:103EB0005FEAC80818F132086420B8FBF0F010F08F
:103EC000070010EB0B00296888607BE07FF0630837
:103ED0001926002722000023A6FB020106FB03117E
:103EE00007FB02116A6800239B0043EA9273920069
:103EF000FDF74CF86421B0FBF1FB22000023A6FB88
:103F0000020106FB031107FB02116A6800239B00F4
:103F100043EA92739200FDF739F8814622000023AC
:103F2000A6FB020106FB031107FB02116A680023CE
:103F30009B0043EA92739200FDF728F86421B0FBDE
:103F4000F1F008FB0090000132306421B0FBF1F089
:103F500010F0F00010EB0B10834622000023A6FBAC
:103F6000020106FB031107FB02116A6800239B0094
:103F700043EA92739200FDF709F881462000002180
:103F800002000B00A6FB020106FB031107FB021156
:103F90006A6800239B0043EA92739200FCF7F6FFE5
:103FA0006421B0FBF1F008FB00985FEA081818F1F3
:103FB00032086420B8FBF0F010F00F0010EB0B009B
:103FC00029688860BDE8F18F00000000F369FFFFF9
:103FD000001001400014014070B58AB00400002CAC
:103FE00001D10120B6E0266894F8BD04002805D16F
:103FF000002084F8BC042000FDF752FE032084F862
:10400000BD04F06BC00501D400202061206800F0E1
:104010005BFB211D83B06846342200F027FD0EBCF7
:10402000206800F011FB002804D0022084F8BD04B1
:1040300001208FE00021206800F04DFB00200100EE
:10404000C9B26268914231D224210200D2B24A43FD
:104050002244012382F83D300200D2B24A43224476
:1040600082F83C000200D2B24A4322440300DBB291
:10407000A2F844300200D2B24A432244002382F81C
:1040800040300200D2B24A4322440023936402002B
:10409000D2B24A4322440023D3640200D2B201FBCD
:1040A00002F1214400224A65401CC8E7002528008F
:1040B000C0B2616888422CD224202900C9B2414391
:1040C0002144002281F87D222900C9B241432144C4
:1040D00081F87C522900C9B241432144002281F871
:1040E00080222900C9B2414321440022C1F888221C
:1040F0002900C9B2414321440022C1F88C22290081
:10410000C9B200FB01F020440021C0F894126D1CDC
:10411000CDE7211D83B06846342200F0A7FC0EBC19
:10412000206800F010FB002804D0022084F8BD04B1
:1041300001200FE0002084F83800012084F8BD043D
:10414000606A012802D1200000F0D4FC206800F051
:104150004DFC00200AB070BD70B50400FCF710FFE4
:104160000500260016F1010F02D004480078361829
:10417000FCF706FF401BB042FAD370BDD901002006
:1041800050B1B0FA80F18840C91CC1F584610905BD
:1041900001EBD021400570470146704730B540F231
:1041A000FF7C1CEA11541DBF1CEA1355644565458C
:1041B0003FE0641981EA030C6FF35F530CF0004C8D
:1041C00043F48013C90241F0004141EA505EC50248
:1041D0001100A5FB020200284FF00000EEFB0120B9
:1041E0004FF00001E3FB052118BF42F00102401827
:1041F00000214941E3FB0E01A4F580640D0302D2C6
:1042000092184041494154F1010470DD450872F1B2
:10421000004250F1000051EB0451A1F5801102D48D
:1042200041EA0C0130BD40F2FF7E4CEA0E51002005
:1042300030BD0CEA1355644518BF654581EA030C8F
:104240000CF0004C41D050EA410E1CBF52EA430E24
:1042500002E06146002030BD24422C441BD15FEABD
:10426000050EF6D0090302BF01460020AEF1140E80
:10427000B1FA81F5AEEB050401FA05FE0C35C5F186
:10428000200100FA05F5C8404EEA000E6FF35F53B7
:1042900043F480139CE733F00043B3FA83F504BF83
:1042A000B2FA82FE75440B3D641BB5F1200E2FBFA0
:1042B00002FA0EF3AB40C5F1200E22FA0EFE38BF13
:1042C00043EA0E03AA40641C7CE750EA410E14BF87
:1042D00052EA430E6FF000014FF4001515EB430F47
:1042E0008EBF194615EB410F9DE7B4D830BDD4F110
:1042F0000104B4F120050FDAC4F12005520828BFEB
:1043000042F0010210FA05FE01FA05F57244E2BF1F
:10431000E0402843E1400FE0352C9ADCC5F1200451
:1043200052EA400220FA05F218BF42F0010231FAC7
:1043300005F0A1400A43002172F1004250F1000053
:1043400051EB0C0130BD0000F0B540F2FF7581EA81
:10435000030C0CF0004C15EA11541DBF15EA13575D
:10436000AC42AF42E5E0BC41C1F31301C3F3130318
:10437000801A994143F4801304D2641E0018494105
:1043800080185941C90241EA5051B1FBF3F603FBD1
:104390001611A2FB0675D7EBC020A94102D2761EEA
:1043A00080185941C90241EA5051B1FBF3FE03FBA9
:1043B0001E11A2FB0E75D7EBC020A94103D2AEF1AE
:1043C000010E80185941890241EA9051760546EA6A
:1043D0008E2EB1FBF3F603FB1611A2FB0675D7EB8D
:1043E0008020A94102D2761E80185941C90241EAB3
:1043F00050514EEA060EB1FBF3F603FB1611A2FB79
:104400000675D7EBC020A94102D2761E801859410B
:10441000C90241EA5051B1FBF3F703FB1711A2FBAC
:104420000735D3EBC020A94167F100070CBF00425C
:1044300047F0010766F3D5274FEA1E31B80814F597
:10444000806412DDBD0775F1004250EB0E5051EB58
:10445000045111F5801F5CBF41EA0C01F0BD4CF026
:104460007F6141F0E0410020F0BDBD076D0840EAEA
:104470000E5041F48011D4F10104B4F120060ADA9F
:10448000C4F120060200E04001FA06F3E1401843BF
:10449000B24015430EE0342C13DCC6F1200445EA8B
:1044A00040056D0820FA06F2154321FA06F0A140F6
:1044B0000D43002175F1004250F1000051EB0C0159
:1044C000F0BD00205FEA0C01F0BDCFB992185B414E
:1044D000B3FA83F704BFB2FA82F6BF190B3FB7F104
:1044E00020062FBF02FA06F3BB40C7F1200622FACE
:1044F00006F638BF3343BA401CB1E419641E33E7F3
:104500007F4231F00041B1FA81F404BFB0FA80F685
:10451000A4190B3CB4F120062FBF00FA06F1A1400C
:10452000C4F1200620FA06F638BF3143A0403C1BF8
:104530001AE7AC421ABF05EA1357AF4212E050EA3D
:1045400041061CBF52EA4306BFE750EA4107304626
:1045500061461CBF41EA0551F0BD52EA430C08BF59
:10456000C143F0BD00204FF4001616EB410F98BF79
:1045700016EB430F08BF16EB410F24BFC14305E004
:1045800016EB430F0CBF61464CEA0551F0BD00002D
:1045900041EC100B01BD80B551EC100B00F0BEFCDE
:1045A000F6E70000C1F30A5340F21E42D31A0CDDB5
:1045B000CA0283F3070342EA505242F00042DA4053
:1045C00002EBE17282EAE17070476FEAE17203F296
:1045D000E13008B182F000407047000010EE100A90
:1045E000F44600F003F800EE100A6047C0F3C7522B
:1045F0007E3A09DD182A0EDA6FF07F41D140004281
:1046000048BF401888437047C0421CBF0020CBF60B
:10461000807038BF00207047B5EEC00AF1EE10FA86
:1046200002D4B1EEC00A70476FF0004C00EE10CA21
:10463000AFF300807047704770477047704770470E
:1046400070477047704770470EB418B5040008985B
:10465000012817D1A06B30F48030A063E168DFF847
:1046600080030140E160E06830F44010E0600F98A2
:10467000012803D1E06850F48010E060200000F0D1
:10468000CDF912E0E06850F04000E060200000F05A
:10469000C5F90C99002904D1A16B51F48031A163B3
:1046A00003E0A16B31F48031A1630699012907D1A0
:1046B000A16851F00601A160A16851F02001A1603C
:1046C000C0B212BC5DF810FB0100886840084000D1
:1046D00088600020704770B504000D000026E06877
:1046E00030F0C040E0602800C0B201280FD1E0687F
:1046F00050F00050E0600120FFF72EFD761C2000F6
:1047000000F088F9012818D0322EF4D315E02800E3
:10471000C0B200280FD1E06850F08040E060012076
:10472000FFF71AFD761C200000F074F9002804D071
:10473000322EF4D301E0012004E0322E01D1012019
:1047400000E0002070BD0EB4F0B504000025260086
:1047500000270F2F06D2002004EB8701C1F80401C7
:104760007F1CF6E70F98002814D116F5006040680A
:1047700050F0020016F500614860A06B30F40010A4
:10478000A063206850F040002060206850F0800056
:10479000206003E0A06B50F40010A063002016F529
:1047A0006061086016F50060006816F50061086039
:1047B0000A9801280CD10798002804D10021200074
:1047C00000F0FFF808E00121200000F0FAF803E013
:1047D0000321200000F0F5F81021200000F0A9F8D6
:1047E000002801D001200500200000F0C7F80028B3
:1047F00001D001200500002016F5006108610020AD
:1048000016F500614861002016F50061C8610020BE
:10481000059988422DD216EB401111F510610968F7
:10482000002911D5002807D15FF0006116EB401276
:1048300012F5106211600DE05FF0904116EB40122E
:1048400012F51062116005E0002116EB401212F51E
:104850001062116016EB401111F5106100220A611F
:1048600016EB401111F510614FF67F328A60401C43
:10487000CEE70021059881422DD216EB411010F5AC
:1048800030600068002811D5002907D15FF0006072
:1048900016EB411212F5306210600DE05FF09040AF
:1048A00016EB411212F53062106005E0002016EBA5
:1048B000411212F53062106016EB411010F53060B5
:1048C0000022026116EB411010F530604FF67F3286
:1048D0008260491CCEE716F50060006930F48070F4
:1048E00016F5006210610020A0617FF080406061D9
:1048F0000898002803D1A06950F01000A061A269B7
:10490000DFF8E0000243A2610B98002803D0A06901
:1049100050F00800A0610F98012805D1A06940F06F
:10492000804050F00400A0612800C0B2F0BC5DF8E7
:1049300010FB81B00200002000900098401C009005
:10494000DFF8A400009B834201D3032014E0136925
:10495000002BF2D5002300938B0153F02003136149
:10496000009B5B1C0093009B834201D3032003E068
:1049700013699B06F4D4002001B0704781B0010098
:10498000002000900098401C0090DFF85C00009A26
:10499000824201D3032012E00A69002AF2D50022E4
:1049A000009210220A61009A521C0092009A8242E0
:1049B00001D3032003E00A69D206F4D4002001B039
:1049C000704710B40200130013F50060046808007B
:1049D000C0B2044313F500600460002010BC7047AF
:1049E000BFFFBDFF00383C80410D030001000A00FD
:1049F00012F5606000688008800012F5606318603E
:104A000012F50060406850F0020012F50063586033
:104A100000207047406910F00100704781B001002C
:104A2000002000900098401C0090DFF83C00009AA5
:104A3000824201D3032014E00A69002AF2D5002241
:104A400000920A6952F001020A61009A521C009217
:104A5000009A824201D3032003E00A69D207F4D40A
:104A6000002001B070470000410D0300103A07D349
:104A700030B4B1E83810103AA0E83810F9D230BCA0
:104A8000530724BFB1E80810A0E8081044BF51F84C
:104A9000043B40F8043BD20724BF31F8022B20F836
:104AA000022B44BF0B7803707047121F17D35B00B3
:104AB00009D151F8043B20F8023B1B0C121F20F8CF
:104AC000023BF6D20BE051F8043B00F8013B1B0A15
:104AD00020F8023B1B0C121F00F8013BF3D238BF39
:104AE000121D521E24BF11F8013B00F8013BF8D8FB
:104AF0007047000001000A680120C1F8000500208D
:104B000081F8F404906950F000609061506D40F0BD
:104B1000805050F00300506500207047F8B52DED2F
:104B2000068B174641EC180BDFF86023DFF8603383
:104B3000FFF734FB41EC190B0C4624F00041DFF881
:104B40005423DFF8543300F0EBF958D29FEDCD0B2E
:104B500051EC100B04F00044214353EC192B00F0EE
:104B6000F9F9FFF71FFD060045D000F01BFB0022FE
:104B7000CB4BFFF713FB41EC190B4FF0A042C94B95
:104B8000FFF70CFB53EC182B00F0E4F904460D463C
:104B900051EC190B4FF0C042C34BFFF7FFFA22460E
:104BA0002B4600F0D7F904460D4651EC190B4FF097
:104BB0000052BE4BFFF7F2FA22462B4600F0CAF92C
:104BC00004460D4651EC190B0022B94BFFF7E6FAEB
:104BD00022462B4600F0BEF904460D4651EC190B57
:104BE0004FF00052AD4BFFF7D9FA22462B4600F0AA
:104BF000B1F941EC180B06F00306F719AEE053ECDF
:104C0000182B590041EAD2714815C91710F1010F4C
:104C100014D14FF0FF34A14208BFA04208D11B03BA
:104C200043EA12531203002B08BF002A40F02581EB
:104C3000BDEC068B20466FF00041F4BD22F0000071
:104C400033F0004108BF002805D1002F00F0158186
:104C50009FED988B11E19FED8B0B51EC100B04F045
:104C60000044214353EC192B00F074F94B0043EA44
:104C7000D073420041EC190B002B08BF002A19D059
:104C800040F23344A4EB5354352C04DB00F0000015
:104C900001F000410CE0202C03DD203CE140A1406C
:104CA00000E001D1002003E0002CC4BFE040A040A0
:104CB00041EC190B51EC190B20F0000231F00043CC
:104CC00008BF002A43D00022754BFFF767FA41EC7A
:104CD0001A0B4FF0A042734BFFF760FA53EC182BFE
:104CE00000F038F904460D4651EC1A0B4FF0C04263
:104CF0006D4BFFF753FA22462B4600F02BF9044682
:104D00000D4651EC1A0B4FF00052684BFFF746FA74
:104D100022462B4600F01EF904460D4651EC1A0BB4
:104D20000022634BFFF73AFA22462B4600F012F9B5
:104D300004460D4651EC1A0B4FF00052574BFFF74B
:104D40002DFA22462B4600F005F941EC180B51ECE8
:104D5000190BFFF727FC00F00300C71951EC180BE3
:104D600021F0004100224FF0795300F0D9F804D22D
:104D7000F8077AD59FED4F8B77E051EC180B53EC89
:104D8000182BFFF70BFA41EC190BF80731D551EC52
:104D9000190B4A4A4A4BFFF701FA4A4A4A4B00F0BC
:104DA000D9F853EC192BFFF7F9F9484A484B00F0B2
:104DB000D1F853EC192BFFF7F1F9464A464B00F0B6
:104DC000C9F853EC192BFFF7E9F9444A444B00F0BA
:104DD000C1F853EC192BFFF7E1F96FF05102414B89
:104DE00000F0B8F853EC192BFFF7D8F900223E4B2E
:104DF00037E051EC180B53EC192BFFF7CFF90446B1
:104E00000D4651EC190B394A394BFFF7C7F9394AAE
:104E1000394B00F09FF853EC192BFFF7BFF9374AD5
:104E2000374B00F097F853EC192BFFF7B7F9354AD9
:104E3000354B00F08FF853EC192BFFF7AFF9334ADD
:104E4000334B00F087F853EC192BFFF7A7F9314AE1
:104E5000314B00F07FF822462B46FFF79FF953ECC9
:104E6000182B00F077F841EC180BB80705D551EC7A
:104E7000180B81F0004141EC180B51EC180BBDEC04
:104E8000068BF4BD000000000000E03F83C8C96D40
:104E9000305FE43F0000A0FFFFFFDF419A833BBB90
:104EA0000000303EFB21B9C1B41011C026A651BE8E
:104EB0005C14D3BC000000000000F03F09260A107B
:104EC00039BA213E3BA861C6F97D92BE63AC3090F1
:104ED0009F01FA3EF6FB51166CC156BFB102555503
:104EE0005555A53FFFFFDFBF0000F03FB08F2FC338
:104EF00010D8E53D8F0C73A1E1E55ABE4DADE44FEE
:104F0000E31DC73E3EE3B519A0012ABFFAF0101118
:104F10001111813F425555555555C5BF0022FDE53C
:104F200041EA030C50EA4C0C52EA0C0C4FF4001C02
:104F300009D307D01CEB410F9CBF1CEB430F8B42E6
:104F400008BF824270471CEB430FFBD8994208BF51
:104F50009042704770B491EA030F4FF0004540F162
:104F6000B7806B40841A71EB030604D26E40001BBD
:104F7000B141121973414FF4001C1CEB410F34BFB7
:104F80007CEB430683E00C0DA4EB1356362E00F3A6
:104F90007C80012E45EAC32341DC43EA525312BF11
:104FA000D20292025B08240545EAC12141EA505130
:104FB000D2EBC020994125D407D1B0FA80F610FA7F
:104FC00006F162D00020203608E0B1FA81F6B14047
:104FD000C6F1200220FA02F21143B0404FEAF47405
:104FE000B4EB465434F001064FEA74040AD8D6F5FF
:104FF0000016760D04F00044F04061FA06F25040CD
:10500000F1404840C00A40EA415021F0004128BF29
:105010005FEA500550F1000044EBD12135E0DB0A96
:1050200045EAC121C90AB6F120050EDD42EA024275
:10503000120CC5F1200603FA06F6EB4042EA06051B
:105040006D42984161F100010DE062FA06F5F2400F
:10505000554063FA06FC82EA0C02F3405A406D4266
:10506000904161EB030111F4801F05D1641E6205BC
:1050700002D06D004041494121F48011430875F18F
:10508000004350F1000041EB045170BC70471CEB31
:10509000410F15D223F0004352EA43060BD04FEAEA
:1050A0004C0CBCEB410F04D80C0D661E342EB7DD42
:1050B000EBE7801A994150EA410608BF0021E4E776
:1050C00008BF1CEB430F28BF6FF00001DDE70000B5
:1050D000841A71EB030603D2001BB141121973410C
:1050E0004FF4001C1CEB410F34BF7CEB430442E047
:1050F0000C0DA4EB1356352E4FDC45EAC323DB0A17
:1051000045EAC121C912B6F120050DDD63FA05F6A5
:10511000EB4086EA0305124218BF45F00105C018AE
:1051200051F100010CD213E062FA06F5F24055404D
:10513000F3415A40B340F3405A408018594107D3D5
:1051400049085FEA30005FEA350528BF45F00105F0
:1051500001F58011420875F1004250F1000041EB69
:1051600004514E0016F5001F70BC38BF7047002078
:10517000090D090570471CEB410F10D252EA430696
:105180000BD0BCEB410F05D80C0DAB43661E342E83
:10519000B6DD02E0AB438018594170BC704770BC6B
:1051A0007047000010F0004160B148BF4042B0FAC3
:1051B00080F29040D21CC2F5846241EA025202EBB6
:1051C000D021400570470000CDCC82415C8F8A41E0
:1051D000CDCC92419A999B41CDCCA441D7A3AE416D
:1051E000C3F5B8410000C44114AECF410000DC411A
:1051F000B81EE941C3F5F641CDCC02429A990A4264
:105200000AD712425C8F1B42CDCC24429A992E427F
:105210000000394200004442D7A34F4200005C42E4
:105220007B146942C3F57642ECD182429A998A4254
:105230000AD792425C8F9B42ECD1A442B89EAE4208
:105240000000B9420000C442F6A8CF420000DC4290
:105250007B14E942A4F0F6425CCF02430A970A436A
:105260007BD412435C8F1B435CCF2443299C2E4389
:10527000000039430000444366A64F4300005C43EE
:105280007B146943A4F07643A4D082430A978A43EF
:105290007BD49243A4909B43A4D0A443719DAE437E
:1052A000B8FEB8430000C44366A6CF430000DC4309
:1052B0007B14E943A4F0F64300D00244AE970A44BD
:1052C0001FD5124400901B4400D02444719D2E44ED
:1052D0005CFF38445CFF43440AA74F4400005C4431
:1052E0001F15694448F1764400D082445C978A4493
:1052F0001FD5924452909B4452D0A4441F9DAE446B
:105300005CFFB8445CFFC3440AA7CF440000DC4400
:105310001F15E944F6F0F64400D002455C970A45B3
:105320001FD5124552901B4552D02445489D2E450D
:105330005CFF38455CFF43450AA74F4500005C45CC
:10534000F61469451FF1764514D082455C978A456D
:105350000AD592453D909B4552D0A445339DAE451C
:1053600048FFB84571FFC3450AA7CF450000DC459B
:10537000F614E9450AF1F64500000000E8030000D4
:10538000E80300000000003FE80300000000000008
:105390000000000000000000100000000024F400E5
:1053A0000401000030B4002512E050F8042BD307AC
:1053B00044BF4A44521E091F042942F8045BFAD232
:1053C00013468C0744BF15809B1CC90748BF1D703E
:1053D00050F8041B0029E8D130BC7047FEE7FEE717
:1053E000FEE7FEE7FEE770477047704780B500F0C4
:1053F0000FF801BD80B50448FEF7E9FA01BD80B59C
:105400000248FDF7CBFA01BDE4470020E846002042
:1054100003480168034A127889180160704700BF89
:10542000EC480020D901002010B507497944183113
:10543000064C7C44163404E00A68081D1144884771
:105440000146A142F8D110BD2C0000004C00000024
:105450004EF68851CEF20001086840F470000860F2
:10546000BFF34F8FBFF36F8F4FF00170E1EE100A63
:105470007047000031FFFFFF20470000DC010020E3
:10548000000000003BBDFFFFDC0100003CFDFFFF12
:10549000000000200000000000F00DF8002801D0FE
:1054A000FFF7C2FFAFF300800020AFF30080FCF7EE
:1054B0007CFE00F002F80120704700F001B8000007
:1054C0000746384600F002F8FBE7000080B5AFF36E
:1054D0000080024A11001820ABBEFBE72600020044
:1054E0000548014603B4684680F30988AFF300809D
:1054F000FFF7AEFFFFF7D0FFA5EDF5FE00000000BF
:105500000000000001020304060708090148804763
:10551000014800471D550008E15400080248016891
:1055200051F470010160704788ED00E0FF10FF1139
:1055300000120013051400160006101600061016BF
:105540000000000001020304FFF7FEBFFFF7FEBFEB
:10555000FFF7FEBFFFF7FEBFFFF7FEBFFFF7FEBF7F
:10556000FFF7FEBFFFF7FEBFFFF7FEBFFFF7FEBF6F
:10557000FFF7FEBFFFF7FEBFFFF7FEBFFFF7FEBF5F
:10558000FFF7FEBFFFF7FEBFFFF7FEBFFFF7FEBF4F
:10559000FFF7FEBFFFF7FEBFFFF7FEBFFFF7FEBF3F
:1055A000FFF7FEBFFFF7FEBFFFF7FEBFFFF7FEBF2F
:1055B000FFF7FEBFFFF7FEBFFFF7FEBFFFF7FEBF1F
:1055C000FFF7FEBFFFF7FEBFFFF7FEBFFFF7FEBF0F
:1055D000FFF7FEBFFFF7FEBFFFF7FEBFFFF7FEBFFF
:1055E000FFF7FEBFFFF7FEBFFFF7FEBFFFF7FEBFEF
:1055F000FFF7FEBFFFF7FEBFFFF7FEBFFFF7FEBFDF
:10560000FFF7FEBFFFF7FEBFFFF7FEBFFFF7FEBFCE
:10561000FFF7FEBFFFF7FEBFFFF7FEBFFFF7FEBFBE
:10562000FFF7FEBFFFF7FEBFFFF7FEBFFFF7FEBFAE
:10563000FFF7FEBFFFF7FEBFFFF7FEBFFFF7FEBF9E
:10564000FFF7FEBFFFF7FEBFFFF7FEBFFFF7FEBF8E
:10565000FFF7FEBFFFF7FEBFFFF7FEBFFFF7FEBF7E
:10566000FFF7FEBFFFF7FEBFFFF7FEBFFFF7FEBF6E
:10567000FFF7FEBFFFF7FEBFFFF7FEBFFFF7FEBF5E
:10568000FFF7FEBFFFF7FEBFFFF7FEBFFFF7FEBF4E
:08569000FFF7FEBFFFF7FEBFAC
:04000005080054E1BA
:00000001FF
