:020000040800F2
:1000000018050020991800080118000803180008B6
:1000100000000000000000000000000000000000E0
:1000200000000000000000000000000005180008AB
:100030000000000000000000071800080918000870
:10004000D30600080000000023070008AB120008D8
:100050007F1600085B18000867180008C918000818
:1000600000000000CB180008CD180008CF180008C9
:10007000D1180008D3180008D518000800000000A7
:10008000D718000800000000000000001118000848
:1000900000000000D9180008DB180008DD1800086F
:1000A000DF180008E1180008E3180008E518000848
:1000B000E718000800000000000000000000000039
:1000C000FEB507001BD0A84C3878C00719D5A16829
:1000D00038200840E1688025AD02102808D1880743
:1000E000800F032806D079686808814234D13BE04C
:1000F0000828F8D12068054003D07868002800D18E
:10010000B5E1387880077BD5A06838210140E268E6
:10011000B948BA4D10294ED19207920F022A4CD0FD
:10012000F968002900D196E0216808403969014347
:1001300021602068A10D0143216000F0A9FA3E0072
:1001400007002068400500D57DE000F0A1FAC01B43
:100150000328F6D30320FEBDA022D202914207D18C
:10016000216882000A43226021680843206007E07A
:100170002068A349014021602068A2490140216014
:10018000786800280BD000F083FA06002068284029
:10019000B7D100F07DFA801B6528F7D3DAE700F0CD
:1001A00077FA060020682840ABD000F071FA801B77
:1001B0006528F7D3CEE70029B2D12268520502D5CF
:1001C000FA68002A3ED0626815407A6912022A4312
:1001D000626000290ED1216808403969014321601D
:1001E000A448012122689204520F914000F056FA6F
:1001F000A1490860A148006800F06CFA002821D1EC
:100200000225387800070AD5A0683821014018294E
:1002100031D1206E284002D0B869002812D0387839
:10022000400700D4A9E000200190A06838210140D7
:10023000202942D1E06D054000D19EE0B868002839
:1002400000D09AE013E1606805407069000228431D
:1002500060603700D4E7206889490140216000F0E0
:1002600017FA050020684005CAD500F011FA401BB6
:100270000328F7D36EE7B8690028206E0ED001215D
:100280000143216600F004FA0600206E2840C6D122
:1002900000F0FEF9801B0328F7D35BE701218843B8
:1002A000206600F0F5F90600206E2840B7D000F077
:1002B000EFF9801B0328F7D34CE7E806E16B014018
:1002C00008D1E16B0143E163E16B084000900098C5
:1002D000012001906B4D2868C00512D4A00D00903C
:1002E000286800990143296000F0D2F906002868C7
:1002F0000099014005D100F0CBF9801B0328F6D30B
:1003000028E7B8680121012805D00528E06D06D14D
:1003100004220243E265E06D0143E16505E08843A4
:10032000E065E06D04218843E0650226B868002896
:100330000CD000F0ADF90500E06D304016D100F0B2
:10034000A7F9401BA4498842F6D303E700F0A0F9BF
:100350000500E06D304009D000F09AF9401B9E493D
:100360008842F6D3F6E600BF00100240019800284C
:1003700003D0E06B99490140E163F869002855D04A
:10038000A16838220A40102A52D08026B604944927
:100390000228206838D10140216000F079F9050079
:1003A0002068304005D000F073F9401B0328F7D3D4
:1003B000D0E6E0688B490140386A0843796A014316
:1003C000B86A00020843F96A0143386B0843E060E9
:1003D0002068710801432160E068F1000143E16099
:1003E00000F056F90500206830401FD100F050F9A8
:1003F000401B0328F7D3ADE6FFC7FFFFFF80FFFFD9
:10040000FFFFFEFFFFFFFBFF0140216000F040F90E
:1004100005002068304005D000F03AF9401B032861
:10042000F7D397E6E06891490140E1600020FEBD06
:1004300001281CD0E0688107890F3A6A914216D1E1
:10044000702101407A6A914211D1FE21C901014017
:10045000BA6A120291420AD1F82189030140FA6A6C
:10046000914204D1400F4007396B8842DED0012011
:10047000FEBD00000024F4000C0000200800002055
:10048000FFFEFFFF00700040F8B5070066D0009146
:10049000774800684007400F884218D2744C2068A3
:1004A0000721884300990143216000F0F1F8009D85
:1004B000060020684007400FA84207D000F0E8F887
:1004C000801B45498842F4D30320F2BD009539686A
:1004D000694C022001420CD0490704D5A168E022F2
:1004E000D2010A43A260A168624A0A40B968114376
:1004F000A1600725ED433978C90732D5796801290C
:1005000018D12068800329D5A06828400143A16044
:1005100000F0BEF83E000700A06838210140706876
:10052000C00081421CD000F0B3F8C01B2A498842A9
:10053000F2D3C9E7022902D12068800103E0002933
:1005400003D120684005DFD408E0032903D1226EDF
:100550001040D9D102E0E26D1040D5D10120F2BDAA
:1005600037000098424909684907490F884217D265
:100570003F4800680540009828433D49086000F066
:1005800087F8009D06003A4800684007400FA842DF
:1005900006D000F07DF8801B0F498842F3D393E723
:1005A0003878400705D5A06834490140F868084309
:1005B000A06000F019F83249A2681205120F9200EB
:1005C000895CC906C90EC8402E4908602E480068DB
:1005D00000F080F8F2BD000089130000FFFFFFEF7C
:1005E000FFFFFFFE8C80C11F30B507212748224C3A
:1005F0003823A2681A4006D123680122DB0A194079
:100600008A4011001EE04208A5681D40082D01D156
:10061000100030BDA5681D40102D16D1E368E568B7
:100620002D092940491C7F259B079B0F032B00D1D7
:10063000100000F033F8E168090A0D406843E168F2
:10064000490F491C00F02AF830BDA0681840202846
:1006500002D18020000230BDA0680340182B02D1D7
:10066000FA20C00130BD002030BD0000FCFFFEEFCD
:1006700000200240FFF0FFFF00100240FF8FFFFF4D
:10068000081700080C000020080000200024F400D7
:1006900001484068704700BF00000020094214D0A4
:1006A00088420FD30122030C01D10004120400235D
:1006B00000185B418B4200D35B1A5241F8D31900FA
:1006C0001000704701000020704708B500F028F8BE
:1006D00008BDFEE770B5060000240F4D29780029FB
:1006E00016D0FA208000FFF7D9FF01000B48006800
:1006F000FFF7D4FF00F041F8002809D1042E07D2FB
:10070000002231000020C04300F029F8AE6000E074
:100710000124200070BD00BF000000200C0000205C
:100720007047FEE710B5C20018231340FF249C4019
:10073000E2438907090E9940030004D419489B0835
:100740009B00C01806E0184B0007000F083880080F
:100750008000181803681A401143016010BD80B56D
:10076000FFF7E0FF01BD0000010005D40121C00634
:10077000C00E81400D480160704710B5401E8021B9
:100780004904884201D3012010BD094C6060032157
:100790000020C043FFF7C6FF0020A06007212160B2
:1007A00010BD000000E400E01CED00E000E100E00E
:1007B00010E000E070B5040001D1012070BD2500FB
:1007C000403500266878002803D12E70200000F004
:1007D0001CFA24206870206801680122914301609E
:1007E00060681E4901402068016121681C488A68D0
:1007F00002408A60E1680129A16801D1C24301E099
:10080000842212020A4321688A60E168022903D126
:10081000802109012268516021684A68114B134305
:100820004B602168CA681040C86020696169014353
:10083000A069000208432168C860E069216A014399
:10084000206801602068016801220A4302606E602E
:10085000202068702663AE70002070BDFFFFFFF09F
:10086000FF7FFFFF00800002FEB5040040304078AB
:10087000202800D095E00D0001D0160005D1802081
:10088000800021004031486088E04020205C012841
:1008900000D186E00293012040216054FFF7F8FE6A
:1008A000019021202100403148702020210040315A
:1008B0008870002021004031486065626685606371
:1008C000206841683E4A0A40426080273F02019802
:1008D0000090029B00220821200000F081F80028EF
:1008E00049D108252068C561E06802280BD101982C
:1008F0000090029B00220821200000F071F80028DF
:10090000206839D1C56101980090029B00226903DB
:10091000200000F065F800282DD1029E019D09E01D
:10092000606A007821688862606A401C6062608D3D
:10093000401E6085608D002807D02A00310020000D
:1009400000F07BF80028EBD015E000953300002282
:100950001021200000F044F800280CD1200000F005
:1009600031F810202168C8612A003100200000F011
:100970008EF8002802D0206841680DE02020216810
:10098000C8610095330001223900200000F028F8EA
:1009900000282068416803D00F4347600120FEBD56
:1009A00002E00220FEBD00000F43476021004031FD
:1009B00020204870002000228A700870FEBD0000D0
:1009C000FF7FFFFF00688169890701D500218162EF
:1009D000012182690A4002D1826911438161704715
:1009E000F8B5002405000F00684602701E00286854
:1009F00080693840B84201D1012000E000206946FA
:100A00000978884217D10020C0438642EFD0FFF713
:100A10003FFE0699401A864201D3002EE7D12800F6
:100A20004030202142680A434260417000218170B9
:100A300004700120F2BD0020F2BD70B504000D006D
:100A400016002068806980071FD43200290020002A
:100A500000F044F8002801D0012070BD0020C04300
:100A60008542EED0FFF714FE801B854201D3002D96
:100A7000E7D120004030202142680A4342604170A3
:100A80000021002282700170E6E7002070BDF8B5F9
:100A9000202504000E0017002068806928401BD123
:100AA0003A003100200000F019F8002807D1FFF7C4
:100AB000EFFDC01B864204D3002EEDD101E00120E2
:100AC000F2BD20004030416829434160457000215B
:100AD000002282700170F2E70020F2BDFEB5060030
:100AE000002430688369002517001022134042D08B
:100AF000C261009133E0210035D100980021C94343
:100B000088422CD0FFF7C4FDC01B0099814201D35D
:100B1000002924D1306841683200403292788369DC
:100B20001B040BD58023DB01194007D1202A05D0F7
:100B300041680B434360FFF7ABFD07000196202699
:100B4000019800688069304008D1FFF7A1FDC01B03
:100B50001A28F5D32800202505430124019E30687A
:100B600081698906C7D5002C01D12021C1612800E7
:100B70000425054301243268906901210B021842C3
:100B800002D00D43D36101248A02104205D02B000C
:100B900008251D433368DA6101244A02104006D05B
:100BA0002800022505433068C261012401E02000CD
:100BB00012D03000FFF706FF30684168074A0A404C
:100BC000426031004031486805434D602020487044
:100BD000002000228A7008702000FEBD00E800FEA0
:100BE00081B04248012142680A4342604268114094
:100BF000009100998021490502680A43026000685B
:100C000001400091009801B07047F8B58CB0040025
:100C100014220021684600F075F81822002106A869
:100C200000F070F8206812270125314C0026314968
:100C3000884220D120200690089606A800F06CF883
:100C4000002801D000F03EFA206828432060206888
:100C5000054005950598C020C000009001970296B8
:100C60000396062004906946A020C00500F02CFAE7
:100C70008020800318E0204988421CD12068284346
:100C800020602068054005950598C020400100902F
:100C9000019702960396062004906946A020C0059D
:100CA00000F012FA8020C003A1680143A160A1688E
:100CB0000840009000980DB0F0BD00680F498842D0
:100CC00000D0704780B5C80B0D490A6802430A601E
:100CD0000968084000900098002200211320FFF7C7
:100CE0003EFD1320FFF740FD01BD00003C10024017
:100CF00034100240005400400058004000200040E2
:100D00004010024010B5040008001100020020004D
:100D100000F0A4FA200010BDFEB5040000206A46D1
:100D20001070494D2168890355D5019080204005F8
:100D3000296B014008D1296B01432963296B0840C5
:100D4000019001980120019040480068A90D0143DD
:100D50003E480160FFF79CFC06003C480068C00567
:100D600005D4FFF795FC801B0328F6D323E0296DFB
:100D7000C02080000840364F00280ED061698842AC
:100D80000BD0286D3840296D802252020A432A6513
:100D9000296D304A0A402A652865C0070FD5FFF73C
:100DA00077FC0600286D800709D4FFF771FC801BD3
:100DB00029498842F6D303206946087004E0286D6B
:100DC00007406069384328650198002803D0286BE4
:100DD0002249014029632078C00705D5A86C03216A
:100DE000884361680143A9642078800605D5A86C12
:100DF0001B490140A0680843A8648020C001216805
:100E000001400DD0A96C8900890822690A43AA64AF
:100E100021690204914203D1296882000A432A60B1
:100E2000216809050DD5A96C0E4A0A40E1681143F5
:100E3000A964E168814204D1286880214902014304
:100E4000296068460078FEBD0C100240007000402A
:100E5000FFFCFFFFFFFFFEFF89130000FFFFFFEF16
:100E6000FFCFFFFFFF3FFFFF70B586B000F01EFA17
:100E700000F0A3F8142200216846FFF743FF8448DE
:100E8000016801220A4302600168CA07D20F059275
:100E90000599022102680A43026000680140059139
:100EA00005987C4C00224021200000F0C4F97A48CB
:100EB00000900020019002906946A020C00500F03B
:100EC00003F907200090002001900290694620005D
:100ED00000F0FAF8402000900120019000200290DC
:100EE00003906946200000F0EFF800F095F86B4899
:100EF0006B4948606B4888600020C8600120086129
:100F0000002048618861C861086248626648FFF74E
:100F100051FC002801D000F0D5F8614C0021201DC3
:100F200000F0D8F9002801D000F0CCF80021201DF5
:100F300000F0EDF9002801D000F0C4F85B48A0658E
:100F40000F20E06500202066594860660020A066FA
:100F500020672000583000F003FA002801D000F08C
:100F6000B1F8544800F00BFA002400250FE00026E9
:100F7000FFF78EFB2900FA3181428041C00F3040DB
:100F80002100014003D04C4800F06EF80024444E8C
:100F9000642302223100A4314748FFF765FC30701A
:100FA0000028E4D0210006D10124FFF771FB0500E1
:100FB0003678002EDCD00126DAE718B591B034225D
:100FC000002104A8FFF79EFE102200216846FFF7CB
:100FD00099FE8020800000F015FB02200490FE3076
:100FE000079000240894402009900B9404A8FFF770
:100FF00067F8002801D000F065F807200090019400
:101000000294039400216846FFF73EFA002801D0BD
:1010100000F058F812B010BD10B5274C27482060DA
:10102000204860602820A0600120E060002020614E
:101030006061A061E06120622000FFF7BBFB002837
:1010400001D000F03FF80021200000F043F9002813
:1010500001D000F037F80021200000F058F90028F6
:1010600001D000F02FF810BD10B504002068016811
:10107000802292010A4302600A2000F0E9FA206807
:1010800001680F4A0A400260FFF7C6FF10BD00006A
:101090003410024000040050FF01000000580040DE
:1010A000100000205B3D30001400002000200040B4
:1010B0000F27000068000020B80000200054004006
:1010C000FFDFFFFF72B6FEE7FFB500220F2302939A
:1010D0002CE0052602E05B4FB842FAD1AE40264331
:1010E000009C2660584C2568DC4325404E68F6027B
:1010F00000D51D43544E3560756825404F68BF02CA
:1011000000D51D437560514D6E6826404D68AD0396
:1011100000D51E434D4D6E602E6834404E68F60378
:1011200002D526001C0034432C60521C0B681C00A6
:10113000D44079D0012595402B40F6D054000327A8
:10114000A740FE4301964E68B707BF0F012F03D09B
:10115000B607B60F022E0ED18768019E3E40CF68BB
:10116000A740374387604668AE434D68EF06FF0FE0
:101170009740374347600D79AD07AD0F032D25D05C
:10118000C568019E2E408D68A5403543C5600D7928
:10119000AD07AD0F022D19D1D508AD0045192E6A46
:1011A000039697001C263E406F463E70039EB44651
:1011B000029F6E463678B7406646BE43B4460F6916
:1011C0006E463678B740664637432F620768032677
:1011D000019D3D404F683740BC4627006446BC40F7
:1011E0002C4304604C68350425409ED0184C95086B
:1011F000AD0064190094009C2468D70018253D4078
:10120000029FAF40BC43A027FF05B84201D1002692
:1012100064E7104FB84201D101265FE70E4FB84294
:1012200000D058E7022659E7FFBD0069084000D00A
:101230000120C0B27047002A01D0816170478162ED
:1012400070470000000C0050001802408018024057
:101250006018024000040050000800501206130AF3
:101260001A43130C1A4300BF094205D0830705D067
:101270000270401C491EF9D170470000130010395C
:1012800006D330B41400150010393CC0FCD230BC79
:10129000490700D30CC000D504C0890002D30280E6
:1012A000801C002900D502707047FEE710B50024AD
:1012B00007480168820D0A4302600320FFF70AFA1B
:1012C000002801D0012401E0FFF78AFC200010BDB6
:1012D0000020024070B5020040325378202B14D118
:1012E0004023C35C012B10D00123137024245470BD
:1012F000046825689D43256004682568164E2E40C5
:1013000026600468256829431CE0022070BD70B582
:10131000020040325378202B12D14023C35C012BB2
:101320000ED00123137024245470046825689D4353
:10133000256004682568094E2E400902314301E00A
:10134000022070BD2160006801680B43036020200B
:1013500050700020107070BDFFEFFFFFFFF0FFFF27
:1013600010B5040001D1012010BD3D20205C0028F3
:1013700004D13C2160542000FFF79FFC23E03D2175
:10138000415C012901D00120704702213D22815496
:1013900002680121D3680B43D36002681B4B9A4259
:1013A00002D01B4B9A4208D193681A4A1A40062A67
:1013B00007D00B049A4204D00268126811430068F7
:1013C00001600020704702203D216054211D2068EB
:1013D00000F0DAF80120482160543E2160543F219A
:1013E00060544021605441216054422160544321A3
:1013F0006054442160544521605446216054472183
:1014000060543D216054002010BD0000002C0140BC
:101410000004004007000100F8B504002068002522
:1014200002260169314015D0C168314012D0022135
:10143000C9430161012121778069800703D0200021
:1014400000F01AF905E0200000F017F9200000F084
:1014500015F92577206804270169394016D0C1683D
:10146000394013D00421C943016126778069C02126
:101470008900014003D0200000F0FEF805E02000C4
:1014800000F0FBF8200000F0F9F825772068082626
:101490000169314014D0C168314011D00821C943DD
:1014A00001612777C069800703D0200000F0E4F8CD
:1014B00005E0200000F0E1F8200000F0DFF82577DB
:1014C0002068102102690A4016D0C268114013D06A
:1014D0001021C94301612677C069C02189000140FC
:1014E00003D0200000F0C8F805E0200000F0C5F8A7
:1014F000200000F0C3F825772068012102690A4026
:1015000008D0C268114005D00121C9430161200003
:1015100000F0B6F8206880250169294008D0C1682C
:10152000294005D08021C9430161200000F0E8F87E
:1015300020680169C90507D5C1680D4004D011496B
:101540000161200000F0DDF82068402102690A40B6
:1015500008D0C268114005D04021C9430161200074
:1015600000F0D0F82068202102690A4008D0C26843
:10157000114005D02021C9430161200000F0C3F8CB
:10158000F1BD0000FFFEFFFFF0B50668174A184BDB
:10159000184C194DA84201D0A04206D17027BE4375
:1015A00037004E683E43A84208D0A04206D0134CF4
:1015B000A04203D0984201D0904203D1104C344055
:1015C000CE6826438024A6434C69344304608C686B
:1015D000C4620C688462A84203D0984201D0904251
:1015E00001D10969016301214161F0BD0048014059
:1015F0000044014000040040002C01400020004055
:10160000FFFCFFFF10B50E4C21680E4A0A40024352
:101610002260610D884210D10B48006806214843C2
:101620000A49FFF73BF8401C00E0401E616949058C
:1016300003D50028F9D1032010BD002010BD000003
:1016400000700040FFF9FFFF0C00002040420F0037
:1016500038B50500FFF71CF804000020C0438542A0
:1016600002D0044800782D18FFF712F8001BA8429A
:10167000FAD331BD00000020704770477047FEE785
:10168000F8B501261C4C3102A020C005FFF7CDFDA6
:10169000002815D12078002812D12670FEF7F8FF17
:1016A0006060FEF7F5FF6168401AFAD172B6134820
:1016B0004178FE220A4021781143417062B6F1BDA3
:1016C00000272078012801D1012500E00025310202
:1016D000A020C005FFF7A9FD012800D00026354253
:1016E000E4D02770FEF7D4FF6060FEF7D1FF616899
:1016F000401AFAD1DAE700BF0C010020B400002044
:1017000070477047704770470000000000000000FD
:1017100000000000000000000000000000000000C9
:1017200000000000000000000100000002000000B6
:101730000300000004000000060000000700000095
:10174000080000000900000070B40123002413E029
:101750000168001D194202D04D466918491E0C60EF
:10176000091D121F042AFAD20D00960701D50C801C
:10177000AD1C1A4000D02C700268001D002AE7D171
:1017800070BC704730B401220EE00368C31844688F
:101790000830144202D04D462C19641E1D68256085
:1017A0001B1D241D091FF9D10168001D0029ECD162
:1017B00030BC704710B5074979441831064C7C4459
:1017C000163404E0081D0A68891888470100A14200
:1017D000F8D110BD08000000280000006DFFFFFFD9
:1017E00004010000100000200000000099FFFFFF2E
:1017F00010000000C40000000000002000000000F5
:10180000FEE7FEE77047704780B500F009F801BDBC
:1018100080B50248FFF700FE01BD0000680000200F
:101820000248416802788918416070470000002032
:1018300000F00DF8002801D0FFF7BCFF00BF00BF8B
:10184000002000BF00BFFFF70FFB00F002F80120EF
:10185000704780B500F002F801BDFEE70746384644
:1018600000F002F8FBE7FEE780B500BF00BF024AC8
:1018700011001820ABBEFBE7260002000548014618
:1018800003B4684680F3098800BF00BF00BF00BFF3
:10189000FFF7CEFFA5EDF5FE014880470148004760
:1018A000A91800087D18000880200005014908607B
:1018B0007047000008ED00E001000000000000009B
:1018C000040000000024F400FEE7FEE7FEE7FEE768
:1018D000FEE7FEE7FEE7FEE7FEE7FEE7FEE7FEE7E0
:0818E000FEE7FEE7FEE7FEE76C
:040000050800187D5A
:00000001FF
