:020000040800F2
:10000000900500208D220008F5210008F721000846
:1000100000000000000000000000000000000000E0
:10002000000000000000000000000000F9210008AE
:100030000000000000000000FB210008FD21000876
:10004000B311000800000000AB140008E320000812
:100050004F2200085B220008AD220008AF220008F2
:100060000000000005220008B1220008B3220008A9
:10007000B5220008B7220008B922000800000000DD
:10008000BB2200080000000000000000BD220008A4
:1000900000000000BF220008C1220008C32200089F
:1000A000C5220008C7220008C9220008CB22000888
:1000B000CD22000800000000000000000000000049
:1000C00010B504231940436907248C40A3438A4098
:1000D0001A43426110BDC068C02109010140481E99
:1000E0008041C00F7047FEB505000026002000903B
:1000F000002D01D10120FEBD2C0054346068002881
:1001000005D1280000F061FB0020A0602070286865
:100110008168C90014D48168724A0A408021490567
:100120001143816070480068704900F0FFFB401C7B
:10013000400001E00098401E009000980028F9D18E
:10014000296888681027C00007D460683843606059
:10015000A06801220243A2600126886862683A40D2
:1001600000D0B9E0400700D5B6E06068604A0240C0
:100170000220104360608868C00772D4286B002892
:1001800001D03A0200E000222869002802D5400090
:10019000400800E078040190A87E6B461870AB68B8
:1001A000287E800318436B7EDB0303436846007898
:1001B000400318430243E8681043019A02432C208D
:1001C000285C400010432022AA5C012A0FD16A4615
:1001D0001278002A03D102003803104307E0626856
:1001E000202313436360A26801231343A3606A6A58
:1001F000002A05D0E0235B0013400343A86A18439C
:10020000CA683C4B13401843C8606868810F89076F
:10021000E86C08433C21695C012907D1296C014342
:10022000686C0843A96C01430120084329680A69E6
:10023000314B1340184308616868C02109068842A1
:100240000FD0494288420CD080210906884208D04C
:100250002A490B682A4A1A40F0239B0303401343A0
:100260000B606A6B00212868FFF72AFFAA6B2549FB
:100270002868FFF725FF29690F20C043002904D112
:1002800029688A6A104388620CE07A04914209D195
:1002900029688A6AEA69521E5207D20E9040E268C3
:1002A00002438A62286841690220C0434907490F16
:1002B0006A6B914207D10021A16061680840012169
:1002C000014361600CE061680840074367600126F4
:1002D000A0683043A06003E06068074367600126C0
:1002E0003000FEBDE8FFFF7FBC000020400D030092
:1002F000FFFEFFFF0102FEFF02FCFF1F0827014077
:10030000FFFFC3FF04FFFF07F3B581B00400160031
:1003100021688A68042702203A4043D15422A25C13
:10032000012A3FD0012254256255204DCB6813404D
:100330000AD18B68134003D08B682B401843886028
:100340002068C1680A43C260200000F081F9010002
:1003500028D10096029A200054304168124B0B407D
:10036000B9011943416000218160114B266DF36290
:10037000104B266D3363104B266D73631C23266868
:10038000336001702068416810230B434360009B79
:1003900021684031206D00F055FB21688A681540C6
:1003A0002F438F60FEBD0000FEF1FFFFE8FFFF7FDF
:1003B000E70600087D07000887070008F1B585B04B
:1003C00000206A465070019005985422805C0128F4
:1003D00001D1022021E105985430029001250570D9
:1003E00005980668B068400700D509E101910598B5
:1003F000006903900198406804908949894A8A48B5
:1004000080231B06049C022C039C00D1CEE09C425E
:1004100001D0844207D101980068B46A4003400BC0
:100420002043B06280E0019800680F24470302D1A6
:100430004000C50E47E0284244D1870743D4042535
:10044000284201D002253EE0070701D503253AE006
:10045000C70638D4850601D5052534E0450601D503
:10046000062530E0050601D507252CE0C50501D598
:10047000082528E0850501D5092524E0450501D595
:100480000A2520E0050501D50B251CE0C50401D592
:100490000C2518E0850401D50D2514E0450401D58F
:1004A0000E2510E0050401D50F250CE0C50301D58C
:1004B000102508E0850301D5112504E0400301D58E
:1004C000122500E000250498C006C00E6F46387063
:1004D0000298C768BC46684607780F20B840674650
:1004E00087436846007885403D430298C56001987F
:1004F0004068059DED6987087F1CBD4214D3019DAE
:100500002D68C006C00E6F463870B76ABC46684694
:1005100007780F20B84067468743A80E0440684616
:10052000007884403C43B46201988068019C25684F
:10053000059C24682D026669AE4328403B4D05406A
:100540003543656101980468234061D01368C8434E
:100550001840374B9C4217D180231B04184257D1B7
:10056000146821400843034313603248006832494D
:1005700000F0DCF9401C0C21484301900198002850
:1005800046D00198401EF8E72C4B9C4202D18023B4
:100590005B0404E02A4B9C423AD18023DB031842DF
:1005A00036D1146821400843034327E09C4201D020
:1005B000844206D101980068B46A4003400B84432A
:1005C000B46201980468234022D01368C8431840DD
:1005D000174B9C4203D1136819401A4B0CE0174B80
:1005E0009C4203D113681940174B05E0144B9C4201
:1005F0000ED113681940154B03400B43136007E0FD
:100600000298406820210143029841606846457085
:100610000020029908706846407806B0F0BD0000DE
:10062000FFFF3FFE082701400400008000FFFF0796
:10063000001000B0BC000020400D0300004000B8D6
:10064000002000B4FFFF7FFFFFFFFFFEFFFFBFFFA3
:10065000F8B5050000200090286881680124214039
:100660003FD110278168414A0A4032D181683E4A11
:100670000A40224382603E48006800020CD53D4893
:1006800000683D4900F052F9401C01E00098401E0E
:10069000009000980028F9D1687E012821D000F050
:1006A000E3FA06002868006820401AD128688068AC
:1006B000204005D1286881682B4A0A402243826085
:1006C00000F0D2FA801B0328ECD328680068204091
:1006D000E8D1A86D0743AF65E86D0443EC650120E0
:1006E000F2BD0020F2BD10B5846AA16D50220A400F
:1006F0002CD1A06D802189000143A1652068FFF7FE
:10070000EAFC00281ED0A07E00281BD120680068CB
:10071000000717D520688168012049070BD421689C
:1007200049680C22914322685160A16D0D4A0A402C
:100730001043A06506E0A16D20220A43A265E16D89
:100740000843E065200000F003FD10BDA16DC9065F
:1007500003D5200000F022FD10BD216D496B8847B4
:1007600010BD0000FFFEFFFFE8FFFF7F17000080C5
:1007700008270140BC000020400D030080B5806ABE
:1007800000F0CEFC01BD80B5806A816D40220A4335
:100790008265C16D04220A43C26500F0FFFC01BD01
:1007A00081B05A48012142680A43426042681140C0
:1007B000009100998021490502680A43026000689F
:1007C00001400091009801B0704770B58CB00600F0
:1007D0001422002101A800F0E2FC1822002106A842
:1007E00000F0DDFC30684A4988424ED18020C001CB
:1007F000069000240A9406A800F0DCFC002801D032
:1008000000F0CAFC434880214903C2680A43C26021
:10081000C268114000910099012102680A430260F8
:100820000268114000910099022102680A430260A7
:100830000068014000910098374801900325029517
:10084000039401A9A020C00500F05CFD07200190E1
:100850000295039401A9314800F054FD304D314810
:10086000286005206860AC60EC60802028616C61C5
:10087000AC612020E8612C62280000F091F800288B
:1008800001D000F089FC3565AE620CB070BD38B5A2
:100890008CB004001422002101A800F080FC182272
:1008A000002106A800F07BFC20681F4988422AD15D
:1008B000202006900025089506A800F07BFC002863
:1008C00001D000F069FC0120124C21680143216035
:1008D0002168084000900098C020C00001901220BC
:1008E0000290039504950620059001A9A020C0055B
:1008F00000F008FD80208003A1680143A160A16889
:100900000840009000980DB030BD00003C1002403F
:100910000024014034100240FF1000000004005089
:10092000C00000200800024000540040094214D0DA
:1009300088420FD30122030C01D1000412040023CA
:1009400000185B418B4200D35B1A5241F8D3190067
:100950001000704701000020704708B500F0A4FDAA
:1009600008BD30B501684118446862088A18836878
:10097000E40704D54C461B1901E0641C09D19142DF
:1009800003D00C7864B2491C01E00C3030BD0D7806
:10099000491C1D705B1C002CEFD4641EF7D5EEE7DC
:1009A00038B5040001D1012032BD20684949401802
:1009B0001421FFF7BBFF8000206402202521605432
:1009C000206800684449014020680160206801688F
:1009D000A2680A43E168114322690A43616911432D
:1009E000A2690A43E1691143226A0A4302602000B6
:1009F00000F008F90025A0688021C901884200D1D3
:100A0000656020798006800E616C0860E06CA16CE6
:100A10004860606800280AD0052808D2200000F04D
:100A200006F9206D0560A06D616D486002E02565E6
:100A30006565A565E56301202521605424202554C2
:100A4000002032BDF2B50400002000262421615CA4
:100A5000012901D10220F2BD2100243101250D70B0
:100A60002527E75D012F2ED102212527E155E063DF
:100A700020680168A94301600099200000F0A3F8F4
:100A80002068216B0029016801D00E2205E00422B4
:100A900091430160206801680A220A430260616C88
:100AA00028020A68D20302D50A6802430A60216D4F
:100AB000002903D009680843216D08602068016897
:100AC0000D43056003E08022E263087001263000D8
:100AD000F2BD0000F8FFFDBF0F80FFFFFEB55C49CF
:100AE0000A6802920268136801934023C35C1C24C5
:100AF0001C406B461C7020230424029D6E463678F1
:100B00000427B7402F4015D0019D254012D015680D
:100B10002B4002D11368A34313604A684023C35C8F
:100B20001C251D40AC4014434C60016B002949D08A
:100B30008847F7BD01240025029EB44602276E4671
:100B40003678B740664637401BD00226019F3740B3
:100B500017D017683B4005D113680A27BB431360C1
:100B6000252284544A684023C35C1C241C40A640B0
:100B700016434E6024214554C16A002922D088477B
:100B8000F7BD08236E4636780827B74066463740DB
:100B900018D0019E334015D013680E26B34313605E
:100BA0004A684023C35C1C261E400123B340134304
:100BB0004B60C4632521445424214554416B0029D2
:100BC00000D08847F7BDF0B5C46C856C6C60046DCF
:100BD000002C02D0846D456D6C601E4C266840254B
:100BE000475D1C253D400127AF403743276004681F
:100BF00063608068102802D1A260E160F0BDA1604E
:100C0000E260F0BD10B50400206C03218843124956
:100C100040186064207808381421FFF787FE0F49D8
:100C2000A1640121C006C00E8140E16410BD0179BC
:100C30008906890E8A000A4BD2180265094A426564
:100C40000122491E8907890F8A408265704700008A
:100C500000000240040002400008024080080240F8
:100C6000FC0802404009024001484068704700BF4C
:100C7000B0000020F8B586B000F018FC00F0DEF9F6
:100C800014220021684600F08AFA964C206802215E
:100C900001432160206802210840059005982068E2
:100CA0000121014321602068C107C90F0591059802
:100CB0002068042101432160206804210840059038
:100CC00005980022C901D24800F0D3FB600D0090C6
:100CD000012001900026029603966946CC4800F058
:100CE00011FBA00D0090019602966946A020C00558
:100CF00000F008FB40200090019602966946C54826
:100D000000F000FBFC20400000900196029669462E
:100D1000BF4800F0F7FA6068012101436160606834
:100D2000C107C90F0091009800220021092000F09E
:100D3000EEFB092000F0F0FB0C220021684600F0D9
:100D40002EFAB548B54908608020C00248601020DE
:100D50008860CE60802080030861042048610E8393
:100D6000012088760820C861AD490E70AB48466204
:100D700086620120AB490870A84806630520A74990
:100D8000486308468663A8490E70C664FFF7ABF94E
:100D9000002801D000F000FA012000900196029690
:100DA00069469E48FFF70AFB002801D000F0F4F9DD
:100DB0009E4800900420019069469848FFF7FEFA8B
:100DC000002801D000F0E8F999480090082001902F
:100DD00069469248FFF7F2FA002801D000F0DCF9EA
:100DE000944800900C20019069468C48FFF7E6FA81
:100DF000002801D000F0D0F98F4800901020019019
:100E000069468648FFF7DAFA002801D000F0C4F9F5
:100E1000B64800901420019069468048FFF7CEFA4A
:100E2000002801D000F0B8F9BB48009018200190CC
:100E300069467A48FFF7C2FA002801D000F0ACF901
:100E4000B64800901C20019069467448FFF7B6FA36
:100E5000002801D000F0A0F900F01FF9BA4D0D22D2
:100E6000BA49280000F07EFB1022C3496B48FFF707
:100E70004BFAC24CFFF7F8FE6064FFF7F5FEA06482
:100E800069460E700196654F1E230D222900BC484D
:100E900000F0DCFB20706420385C00280FD068462E
:100EA0000078002809D1012069460870FFF7DCFEB0
:100EB000019064203F5C002F02D0012700E0002752
:100EC000FFF7D2FE0199FA3181428041C00F3840CC
:100ED0006946097801400FD0A94800F009F9694630
:100EE0000E7009E03410024080218900484800F06B
:100EF000C6FAFFF7B9FE6064FFF7B6FEA14F616C5A
:100F0000401AB842F0D2A18A606A00F0ACFA012817
:100F100000D00020297BFE220A401043287316E0EF
:100F200000200CE00020297BBF220A4010432873D8
:100F3000618C206C00F097FA0128F1D18020297B88
:100F40004906490E08432873FFF78EFEA064FFF799
:100F50008BFEA16C401AB84295D3A18A606A00F05A
:100F600082FA012800D00020297BFE220A4010438B
:100F70002873E18AA06A00F076FA012801D10220E4
:100F800000E00020297BFD220A4010432873218BBA
:100F9000E06A00F068FA012801D1042000E0002096
:100FA000297BFB220A4010432873618B206B00F0E1
:100FB0005AFA012801D1082000E00020297BF722FD
:100FC0000A4010432873A18B606B00F04CFA012893
:100FD00001D1102000E00020297BEF220A401043BD
:100FE0002873E18BA06B00F03EFA012801D120208C
:100FF00000E00020297BDF220A4010432873218C67
:10100000E06B00F030FA01288CD140208BE700BF64
:10101000000400500008005000240140000000209F
:10102000200000202C0000203C00002002000004D2
:10103000040000080800000C1000001018B591B062
:101040003422002104A800F0AAF8102200216846EA
:1010500000F0A5F88020800000F0B4FC022004908D
:10106000FE30079000240894402009900B9404A8B7
:1010700000F0CEFC002801D000F08EF80720009090
:101080000194029403940021684600F0A5FE002814
:1010900001D000F081F812B010BD10B5384C3A48BC
:1010A00020603A4860602620A0600120E0600020B7
:1010B00020616061A061E0612062200000F06CFAB4
:1010C000002801D000F068F80021200000F088FF1F
:1010D000002801D000F060F80021200000F09DFF02
:1010E000002801D000F058F810BD000020000014C6
:1010F00010B5040020680168802292010A43026052
:101100000A2000F0B3FF20680168214A0A4002600B
:10111000FFF7C3FF10BD0000400000188000001C56
:10112000094815490A7802704A7842708A788270B4
:10113000CA78C2700A7902714A7942718A798271D9
:10114000C979C1717047000070010020680000205B
:10115000104809490A7A02704A7A42708A7A827083
:10116000CA7AC2700A7B02714A7B42718A7B8271A1
:10117000C97BC1717047000080010020640000201D
:101180001C010020E9030000005400405B3D3000DA
:10119000FFDFFFFF7001002072B6FEE7704710B559
:1011A0000400080011000200200000F073FF20007E
:1011B00010BDFEE7FEB5040000206A461070494DE0
:1011C0002168890355D5019080204005296B014095
:1011D00008D1296B01432963296B084001900198CC
:1011E0000120019040480068A90D01433E4801607C
:1011F000FFF73AFD06003C480068C00505D4FFF73C
:1012000033FD801B0328F6D323E0296DC020800026
:101210000840364F00280ED0616988420BD0286DF7
:101220003840296D802252020A432A65296D304ACE
:101230000A402A652865C0070FD5FFF715FD06008F
:10124000286D800709D4FFF70FFD801B29498842CC
:10125000F6D303206946087004E0286D07406069F2
:10126000384328650198002803D0286B22490140A3
:1012700029632078C00705D5A86C032188436168DD
:101280000143A9642078800605D5A86C1B4901405C
:10129000A0680843A8648020C001216801400DD0E7
:1012A000A96C8900890822690A43AA642169020499
:1012B000914203D1296882000A432A602168090506
:1012C0000DD5A96C0E4A0A40E1681143A964E16892
:1012D000814204D12868802149020143296068467F
:1012E0000078FEBD0C10024000700040FFFCFFFFC4
:1012F000FFFFFEFF89130000FFFFFFEFFFCFFFFF9F
:10130000FF3FFFFFFFB500220F2302932CE00526CD
:1013100002E05F4FB842FAD1AE402643009C2660FF
:101320005C4C2568DC4325404E68F60200D51D4321
:10133000584E3560756825404F68BF0200D51D4383
:101340007560554D6E6826404D68AD0300D51E434F
:10135000514D6E602E6834404E68F60302D526006B
:101360001C0034432C60521C0B681C00D44079D004
:10137000012595402B40F6D054000327A740FE439B
:1013800001964E68B707BF0F012F03D0B607B60FFF
:10139000022E0ED18768019E3E40CF68A74037439A
:1013A00087604668AE434D68EF06FF0F97403743AE
:1013B00047600D79AD07AD0F032D25D0C568019E9F
:1013C0002E408D68A5403543C5600D79AD07AD0F42
:1013D000022D19D1D508AD0045192E6A0396970044
:1013E0001C263E406F463E70039EB446029F6E46EA
:1013F0003678B7406646BE43B4460F696E463678C7
:10140000B740664637432F6207680326019D3D407B
:101410004F683740BC4627006446BC402C430460FC
:101420004C68350425409ED01C4C9508AD006419CD
:101430000094009C2468D70018253D40029FAF40CF
:10144000BC43A027FF05B84201D1002664E7144F32
:10145000B84201D101265FE7124FB84200D058E7E9
:10146000022659E7FFBD0069084000D00120C0B244
:101470007047002A01D081617047816270474269DC
:101480000B0013401B049143194381617047000016
:10149000000C005000180240801802406018024002
:1014A00000040050000800507047FEE710B500240B
:1014B00007480168820D0A430260032000F012FE13
:1014C000002801D0012401E0FFF76AF9200010BDD7
:1014D0000020024010B5C20018231340FF249C4096
:1014E000E2438907090E9940030004D419489B0878
:1014F0009B00C01806E0184B0007000F0838800852
:101500008000181803681A401143016010BD80B5AF
:10151000FFF7E0FF01BD0000010005D40121C00676
:10152000C00E81400D480160704710B5401E8021FB
:101530004904884201D3012010BD094C6060032199
:101540000020C043FFF7C6FF0020A06007212160F4
:1015500010BD000000E400E01CED00E000E100E050
:1015600010E000E070B4103A03D378C9103A78C0A4
:10157000FBD2530701D318C918C001D508C908C048
:10158000D20704D30B880380891C801C002A01D554
:101590000B78037070BC704770B5040001D1012056
:1015A00070BD2500403500266878002803D12E70D4
:1015B0002000FFF76CF92420687020680168012280
:1015C0009143016060681E49014020680161216803
:1015D0001C488A6802408A60E1680129A16801D13B
:1015E000C24301E0842212020A4321688A60E16852
:1015F000022903D1802109012268516021684A68CB
:10160000114B13434B602168CA681040C8602069C1
:1016100061690143A069000208432168C860E0696C
:10162000216A0143206801602068016801220A43A1
:1016300002606E60202068702663AE70002070BD6E
:10164000FFFFFFF0FF7FFFFF00800002FEB50400F8
:1016500040304078202800D095E00D0001D01600E1
:1016600005D18020800021004031486088E0402082
:10167000205C012800D186E00293012040216054C3
:10168000FFF7F2FA0190212021004031487020201C
:10169000210040318870002021004031486065629F
:1016A00066856063206841683E4A0A404260802740
:1016B0003F0201980090029B00220821200000F0C8
:1016C00081F8002849D108252068C561E068022812
:1016D0000BD101980090029B00220821200000F00D
:1016E00071F80028206839D1C56101980090029BEB
:1016F00000226903200000F065F800282DD1029E29
:10170000019D09E0606A007821688862606A401C77
:101710006062608D401E6085608D002807D02A00C1
:101720003100200000F07BF80028EBD015E0009598
:10173000330000221021200000F044F800280CD1D2
:10174000200000F031F810202168C8612A00310023
:10175000200000F08EF8002802D0206841680DE0DB
:1017600020202168C8610095330001223900200043
:1017700000F028F800282068416803D00F43476034
:101780000120FEBD02E00220FEBD00000F434760C5
:101790002100403120204870002000228A7008700B
:1017A000FEBD0000FF7FFFFF00688169890701D54A
:1017B00000218162012182690A4002D182691143BC
:1017C00081617047F8B5002405000F00684602707B
:1017D0001E00286880693840B84201D1012000E02D
:1017E000002069460978884217D10020C04386420C
:1017F000EFD0FFF739FA0699401A864201D3002E3E
:10180000E7D128004030202142680A4342604170FD
:101810000021817004700120F2BD0020F2BD70B57E
:1018200004000D0016002068806980071FD4320074
:101830002900200000F044F8002801D0012070BDEC
:101840000020C0438542EED0FFF70EFA801B854290
:1018500001D3002DE7D120004030202142680A4307
:10186000426041700021002282700170E6E7002092
:1018700070BDF8B5202504000E00170020688069AF
:1018800028401BD13A003100200000F019F8002850
:1018900007D1FFF7E9F9C01B864204D3002EEDD132
:1018A00001E00120F2BD2000403041682943416041
:1018B00045700021002282700170F2E70020F2BD25
:1018C000FEB5060000243068836900251700102249
:1018D000134042D0C261009133E0210035D100981D
:1018E0000021C94388422CD0FFF7BEF9C01B0099E4
:1018F000814201D3002924D130684168320040324E
:10190000927883691B040BD58023DB01194007D132
:10191000202A05D041680B434360FFF7A5F9070073
:1019200001962026019800688069304008D1FFF7B1
:101930009BF9C01B1A28F5D3280020250543012454
:10194000019E306881698906C7D5002C01D120210C
:10195000C1612800042505430124326890690121F2
:101960000B02184202D00D43D36101248A021042B7
:1019700005D02B0008251D433368DA6101244A0293
:10198000104006D02800022505433068C2610124BA
:1019900001E0200012D03000FFF706FF30684168F8
:1019A000074A0A40426031004031486805434D60B3
:1019B00020204870002000228A7008702000FEBDA0
:1019C00000E800FE10B50E4C21680E4A0A400243A2
:1019D0002260610D884210D10B48006806214843FF
:1019E0000A49FEF7A3FF401C00E0401E616949055B
:1019F00003D50028F9D1032010BD002010BD000040
:101A000000700040FFF9FFFFBC00002040420F00C3
:101A1000FEB507001BD0A84C3878C00719D5A168BF
:101A200038200840E1688025AD02102808D18807D9
:101A3000800F032806D079686808814234D13BE0E2
:101A40000828F8D12068054003D07868002800D124
:101A5000B5E1387880077BD5A06838210140E2687D
:101A6000B948BA4D10294ED19207920F022A4CD094
:101A7000F968002900D196E02168084039690143DE
:101A800021602068A10D01432160FFF7EDF83E00C1
:101A900007002068400500D57DE0FFF7E5F8C01B92
:101AA0000328F6D30320FEBDA022D202914207D123
:101AB000216882000A43226021680843206007E011
:101AC0002068A349014021602068A24901402160AB
:101AD000786800280BD0FFF7C7F806002068284078
:101AE000B7D1FFF7C1F8801B6528F7D3DAE7FFF716
:101AF000BBF8060020682840ABD0FFF7B5F8801B84
:101B00006528F7D3CEE70029B2D12268520502D565
:101B1000FA68002A3ED0626815407A6912022A43A8
:101B2000626000290ED121680840396901432160B3
:101B3000A448012122689204520F9140FEF7F6FE5C
:101B4000A1490860A148006800F0CCFA002821D122
:101B50000225387800070AD5A068382101401829E5
:101B600031D1206E284002D0B869002812D03878D0
:101B7000400700D4A9E000200190A068382101406E
:101B8000202942D1E06D054000D19EE0B8680028D0
:101B900000D09AE013E160680540706900022843B4
:101BA00060603700D4E72068894901402160FFF771
:101BB0005BF8050020684005CAD5FFF755F8401BC3
:101BC0000328F7D36EE7B8690028206E0ED00121F4
:101BD00001432166FFF748F80600206E2840C6D171
:101BE000FFF742F8801B0328F7D35BE70121884306
:101BF0002066FFF739F80600206E2840B7D0FFF7BF
:101C000033F8801B0328F7D34CE7E806E16B01406B
:101C100008D1E16B0143E163E16B0840009000985B
:101C2000012001906B4D2868C00512D4A00D0090D2
:101C30002868009901432960FFF716F80600286814
:101C40000099014005D1FFF70FF8801B0328F6D358
:101C500028E7B8680121012805D00528E06D06D1E4
:101C600004220243E265E06D0143E16505E088433B
:101C7000E065E06D04218843E0650226B86800282D
:101C80000CD0FEF7F1FF0500E06D304016D1FEF7F5
:101C9000EBFF401BA4498842F6D303E7FEF7E4FFBD
:101CA0000500E06D304009D0FEF7DEFF401B9E4985
:101CB0008842F6D3F6E600BF0010024001980028E3
:101CC00003D0E06B99490140E163F869002855D0E1
:101CD000A16838220A40102A52D08026B6049449BE
:101CE0000228206838D101402160FEF7BDFF0500C1
:101CF0002068304005D0FEF7B7FF401B0328F7D31C
:101D0000D0E6E0688B490140386A0843796A0143AC
:101D1000B86A00020843F96A0143386B0843E0607F
:101D20002068710801432160E068F1000143E1602F
:101D3000FEF79AFF0500206830401FD1FEF794FFA0
:101D4000401B0328F7D3ADE6FFC7FFFFFF80FFFF6F
:101D5000FFFFFEFFFFFFFBFF01402160FEF784FF56
:101D600005002068304005D0FEF77EFF401B0328A9
:101D7000F7D397E6E06891490140E1600020FEBD9D
:101D800001281CD0E0688107890F3A6A914216D178
:101D9000702101407A6A914211D1FE21C9010140AE
:101DA000BA6A120291420AD1F82189030140FA6A03
:101DB000914204D1400F4007396B8842DED00120A8
:101DC000FEBD00000024F400BC000020B80000208C
:101DD000FFFEFFFF00700040F8B5070066D00091DD
:101DE000774800684007400F884218D2744C20683A
:101DF00007218843009901432160FEF735FF009DCC
:101E0000060020684007400FA84207D0FEF72CFFCD
:101E1000801B45498842F4D30320F2BD0095396800
:101E2000694C022001420CD0490704D5A168E02288
:101E3000D2010A43A260A168624A0A40B96811430C
:101E4000A1600725ED433978C90732D579680129A2
:101E500018D12068800329D5A06828400143A160DB
:101E6000FEF702FF3E000700A068382101407068BD
:101E7000C00081421CD0FEF7F7FEC01B2A498842F1
:101E8000F2D3C9E7022902D12068800103E00029CA
:101E900003D120684005DFD408E0032903D1226E76
:101EA0001040D9D102E0E26D1040D5D10120F2BD41
:101EB00037000098424909684907490F884217D2FC
:101EC0003F4800680540009828433D490860FEF7F8
:101ED000CBFE009D06003A4800684007400FA8422C
:101EE00006D0FEF7C1FE801B0F498842F3D393E76B
:101EF0003878400705D5A06834490140F8680843A0
:101F0000A06000F019F83249A2681205120F920081
:101F1000895CC906C90EC8402E4908602E48006871
:101F200000F0E0F8F2BD000089130000FFFFFFEFB2
:101F3000FFFFFFFE8C80C11F30B507212748224CD0
:101F40003823A2681A4006D123680122DB0A19400F
:101F50008A4011001EE04208A5681D40082D01D1ED
:101F6000100030BDA5681D40102D16D1E368E5684E
:101F70002D092940491C7F259B079B0F032B00D16E
:101F80001000FEF7D3FCE168090A0D406843E168E0
:101F9000490F491CFEF7CAFC30BDA0681840202834
:101FA00002D18020000230BDA0680340182B02D16E
:101FB000FA20C00130BD002030BD0000FCFFFEEF64
:101FC00000200240FFF0FFFF00100240FF8FFFFFE4
:101FD00030210008BC000020B80000200024F400DC
:101FE00070B5020040325378202B14D14023C35CDB
:101FF000012B10D001231370242454700468256829
:102000009D43256004682568164E2E4026600468AE
:10201000256829431CE0022070BD70B502004032E3
:102020005378202B12D14023C35C012B0ED0012307
:10203000137024245470046825689D432560046847
:102040002568094E2E400902314301E0022070BD8F
:102050002160006801680B4303602020507000205D
:10206000107070BDFFEFFFFFFFF0FFFF38B50500F8
:10207000FEF7FAFD04000020C043854202D0044868
:1020800000782D18FEF7F0FD001BA842FAD331BDF1
:10209000B00000201206130A1A43130C1A4300BFA3
:1020A000094205D0830705D00270401C491EF9D1B2
:1020B000704700001300103906D330B41400150027
:1020C00010393CC0FCD230BC490700D30CC000D54D
:1020D00004C0890002D30280801C002900D5027050
:1020E0007047FEE770B5060000240F4D29780029DF
:1020F00016D0FA208000FEF719FC01000B4800689A
:10210000FEF714FCFFF711FA002809D1042E07D2BC
:10211000002231000020C043FFF7F9F9AE6000E073
:102120000124200070BD00BFB0000020BC000020D2
:10213000000000000000000000000000000000009F
:10214000000000000000000000000000000000008F
:102150000100000002000000030000000400000075
:102160000600000007000000080000000900000051
:1021700070B40123002413E00168001D194202D04D
:102180004D466918491E0C60091D121F042AFAD217
:102190000D00960701D50C80AD1C1A4000D02C70A4
:1021A0000268001D002AE7D170BC704710B50749CE
:1021B00079441831064C7C44163404E0081D0A6842
:1021C000891888470100A142F8D110BD080000001D
:1021D000240000009DFFFFFFD0000000C000002091
:1021E000000000007FE7FFFFE6000000A000000005
:1021F00000000020FEE7FEE77047704780B500F062
:1022000009F801BD80B50248FEF768FC01BD000079
:10221000C000002002484168027889184160704778
:10222000B000002000F00DF8002801D0FFF7BEFF3D
:1022300000BF00BF002000BF00BFFEF71BFD00F085
:1022400002F80120704780B500F002F801BDFEE7FA
:102250000746384600F002F8FBE7FEE780B500BF0E
:1022600000BF024A11001820ABBEFBE726000200A7
:102270000548014603B4684680F3098800BF00BFE3
:1022800000BF00BFFFF7CEFFA5EDF5FE0148804778
:10229000014800479D2200087122000880200005A7
:1022A000014908607047000008ED00E0FEE7FEE726
:1022B000FEE7FEE7FEE7FEE7FEE7FEE7FEE7FEE7F6
:1022C000FEE7FEE7FEE7FEE7FEE7FEE7FEE7980033
:1022D0000C01000100010001000100010001FC00EF
:1022E0000E014000080010002000400080000001A6
:1022F000FD001C5000080050000400500004005075
:10230000000400500004005000040050000400507D
:0E231000F8000001F9000004FC000224F400B3
:04000005080022715C
:00000001FF
