:020000040800F2
:10000000F8040020691B0008891B00088B1B0008EE
:1000100000000000000000000000000000000000E0
:100020000000000000000000000000008D1B000820
:1000300000000000000000008F1B0008911B00085A
:100040005F07000800000000B31400082B1B000825
:10005000371B0008A91B0008AB1B0008AD1B0008DC
:1000600000000000AF1B0008B11B0008B31B000814
:10007000B51B0008B71B0008B91B000800000000F2
:10008000BB1B00080000000000000000BD1B0008B2
:1000900000000000BF1B0008C11B0008C31B0008B4
:1000A000C51B0008C71B0008C91B0008CB1B0008A4
:1000B000CD1B000800000000000000000000000050
:1000C000FEB507001BD0A84C3878C00719D5A16829
:1000D00038200840E1688025AD02102808D1880743
:1000E000800F032806D079686808814234D13BE04C
:1000F0000828F8D12068054003D07868002800D18E
:10010000B5E1387880077BD5A06838210140E268E6
:10011000B948BA4D10294ED19207920F022A4CD0FD
:10012000F968002900D196E0216808403969014347
:1001300021602068A10D0143216000F0A9FA3E0072
:1001400007002068400500D57DE000F0A1FAC01B43
:100150000328F6D30320FEBDA022D202914207D18C
:10016000216882000A43226021680843206007E07A
:100170002068A349014021602068A2490140216014
:10018000786800280BD000F083FA06002068284029
:10019000B7D100F07DFA801B6528F7D3DAE700F0CD
:1001A00077FA060020682840ABD000F071FA801B77
:1001B0006528F7D3CEE70029B2D12268520502D5CF
:1001C000FA68002A3ED0626815407A6912022A4312
:1001D000626000290ED1216808403969014321601D
:1001E000A448012122689204520F914000F056FA6F
:1001F000A1490860A148006800F08AFA002821D1CE
:100200000225387800070AD5A0683821014018294E
:1002100031D1206E284002D0B869002812D0387839
:10022000400700D4A9E000200190A06838210140D7
:10023000202942D1E06D054000D19EE0B868002839
:1002400000D09AE013E1606805407069000228431D
:1002500060603700D4E7206889490140216000F0E0
:1002600017FA050020684005CAD500F011FA401BB6
:100270000328F7D36EE7B8690028206E0ED001215D
:100280000143216600F004FA0600206E2840C6D122
:1002900000F0FEF9801B0328F7D35BE701218843B8
:1002A000206600F0F5F90600206E2840B7D000F077
:1002B000EFF9801B0328F7D34CE7E806E16B014018
:1002C00008D1E16B0143E163E16B084000900098C5
:1002D000012001906B4D2868C00512D4A00D00903C
:1002E000286800990143296000F0D2F906002868C7
:1002F0000099014005D100F0CBF9801B0328F6D30B
:1003000028E7B8680121012805D00528E06D06D14D
:1003100004220243E265E06D0143E16505E08843A4
:10032000E065E06D04218843E0650226B868002896
:100330000CD000F0ADF90500E06D304016D100F0B2
:10034000A7F9401BA4498842F6D303E700F0A0F9BF
:100350000500E06D304009D000F09AF9401B9E493D
:100360008842F6D3F6E600BF00100240019800284C
:1003700003D0E06B99490140E163F869002855D04A
:10038000A16838220A40102A52D08026B604944927
:100390000228206838D10140216000F079F9050079
:1003A0002068304005D000F073F9401B0328F7D3D4
:1003B000D0E6E0688B490140386A0843796A014316
:1003C000B86A00020843F96A0143386B0843E060E9
:1003D0002068710801432160E068F1000143E16099
:1003E00000F056F90500206830401FD100F050F9A8
:1003F000401B0328F7D3ADE6FFC7FFFFFF80FFFFD9
:10040000FFFFFEFFFFFFFBFF0140216000F040F90E
:1004100005002068304005D000F03AF9401B032861
:10042000F7D397E6E06891490140E1600020FEBD06
:1004300001281CD0E0688107890F3A6A914216D1E1
:10044000702101407A6A914211D1FE21C901014017
:10045000BA6A120291420AD1F82189030140FA6A6C
:10046000914204D1400F4007396B8842DED0012011
:10047000FEBD00000024F4009C0000209800002035
:10048000FFFEFFFF00700040F8B5070066D0009146
:10049000774800684007400F884218D2744C2068A3
:1004A0000721884300990143216000F0F1F8009D85
:1004B000060020684007400FA84207D000F0E8F887
:1004C000801B45498842F4D30320F2BD009539686A
:1004D000694C022001420CD0490704D5A168E022F2
:1004E000D2010A43A260A168624A0A40B968114376
:1004F000A1600725ED433978C90732D5796801290C
:1005000018D12068800329D5A06828400143A16044
:1005100000F0BEF83E000700A06838210140706876
:10052000C00081421CD000F0B3F8C01B2A498842A9
:10053000F2D3C9E7022902D12068800103E0002933
:1005400003D120684005DFD408E0032903D1226EDF
:100550001040D9D102E0E26D1040D5D10120F2BDAA
:1005600037000098424909684907490F884217D265
:100570003F4800680540009828433D49086000F066
:1005800087F8009D06003A4800684007400FA842DF
:1005900006D000F07DF8801B0F498842F3D393E723
:1005A0003878400705D5A06834490140F868084309
:1005B000A06000F019F83249A2681205120F9200EB
:1005C000895CC906C90EC8402E4908602E480068DB
:1005D00000F09EF8F2BD000089130000FFFFFFEF5E
:1005E000FFFFFFFE8C80C11F30B507212748224C3A
:1005F0003823A2681A4006D123680122DB0A194079
:100600008A4011001EE04208A5681D40082D01D156
:10061000100030BDA5681D40102D16D1E368E568B7
:100620002D092940491C7F259B079B0F032B00D1D7
:10063000100000F033F8E168090A0D406843E168F2
:10064000490F491C00F02AF830BDA0681840202846
:1006500002D18020000230BDA0680340182B02D1D7
:10066000FA20C00130BD002030BD0000FCFFFEEFCD
:1006700000200240FFF0FFFF00100240FF8FFFFF4D
:100680003C1A00089C000020980000200024F40080
:1006900001484068704700BF90000020094214D014
:1006A00088420FD30122030C01D10004120400235D
:1006B00000185B418B4200D35B1A5241F8D31900FA
:1006C0001000704701000020704708B500F046F8A0
:1006D00008BD30B501684118446862088A1883680B
:1006E000E40704D54C461B1901E0641C09D1914272
:1006F00003D00C7864B2491C01E00C3030BD0D7899
:10070000491C1D705B1C002CEFD4641EF7D5EEE76E
:1007100070B5060000240F4D2978002916D0FA2064
:100720008000FFF7BBFF01000B480068FFF7B6FF32
:1007300000F038F8002809D1042E07D20022310039
:100740000020C04300F029F8AE6000E00124200042
:1007500070BD00BF900000209C0000207047FEE7A5
:1007600010B5C20018231340FF249C40E2438907C0
:10077000090E9940030004D414489B089B00C0183C
:1007800006E0134B0007000F083880088000181897
:1007900003681A401143016010BD80B5FFF7E0FF08
:1007A00001BD000010B5401E80214904884201D3DC
:1007B000012010BD074C606003210020C043FFF7FB
:1007C000CFFF0020A0600721216010BD00E400E001
:1007D0001CED00E010E000E010B50423194043696F
:1007E00007248C40A3438A401A43426110BDFEB5E2
:1007F0000500002600200090002D01D10120FEBD43
:100800002C0054346068002805D1280000F05FFAFD
:100810000020A060207028688168C90014D4816815
:10082000724A0A408021490511438160704800687E
:100830007049FFF733FF401C400001E00098401E64
:10084000009000980028F9D1296888681027C00016
:1008500007D4606838436060A06801220243A26048
:100860000126886862683A4000D0B9E0400700D5A8
:10087000B6E06068604A0240022010436060886809
:10088000C00772D4286B002801D03A0200E0002291
:100890002869002802D54000400800E07804019053
:1008A000A87E6B461870AB68287E800318436B7E69
:1008B000DB03034368460078400318430243E868BB
:1008C0001043019A02432C20285C40001043202250
:1008D000AA5C012A0FD16A461278002A03D10200CD
:1008E0003803104307E06268202313436360A26863
:1008F00001231343A3606A6A002A05D0E0235B004A
:1009000013400343A86A1843CA683C4B134018437A
:10091000C8606868810F8907E86C08433C21695CFE
:10092000012907D1296C0143686C0843A96C014374
:100930000120084329680A69314B134018430861B4
:100940006868C021090688420FD0494288420CD00D
:1009500080210906884208D02A490B682A4A1A4091
:10096000F0239B03034013430B606A6B002128684C
:10097000FFF732FFAA6B25492868FFF72DFF296989
:100980000F20C043002904D129688A6A1043886275
:100990000CE07A04914209D129688A6AEA69521EF8
:1009A0005207D20E9040E26802438A622868416989
:1009B0000220C0434907490F6A6B914207D10021C9
:1009C000A160616808400121014361600CE0616839
:1009D0000840074367600126A0683043A06003E039
:1009E00060680743676001263000FEBDE8FFFF7FB7
:1009F0009C000020400D0300FFFEFFFF0102FEFFF0
:100A000002FCFF1F08270140FFFFC3FF04FFFF0791
:100A1000F1B585B000206A465070019005985422C7
:100A2000805C012801D1022021E105985430029018
:100A30000125057005980668B068400700D509E1F2
:100A400001910598006903900198406804908949D4
:100A5000894A8A4880231B06049C022C039C00D1EF
:100A6000CEE09C4201D0844207D101980068B46A6C
:100A70004003400B2043B06280E0019800680F24DF
:100A8000470302D14000C50E47E0284244D1870702
:100A900043D40425284201D002253EE0070701D5B2
:100AA00003253AE0C70638D4850601D5052534E08C
:100AB000450601D5062530E0050601D507252CE0C1
:100AC000C50501D5082528E0850501D5092524E0BF
:100AD000450501D50A2520E0050501D50B251CE0BB
:100AE000C50401D50C2518E0850401D50D2514E0B9
:100AF000450401D50E2510E0050401D50F250CE0B5
:100B0000C50301D5102508E0850301D5112504E0B2
:100B1000400301D5122500E000250498C006C00E50
:100B20006F4638700298C768BC46684607780F2041
:100B3000B840674687436846007885403D43029841
:100B4000C56001984068059DED6987087F1CBD421E
:100B500014D3019D2D68C006C00E6F463870B76A69
:100B6000BC46684607780F20B84067468743A80E02
:100B700004406846007884403C43B4620198806831
:100B8000019C2568059C24682D026669AE432840B7
:100B90003B4D05403543656101980468234061D0B1
:100BA0001368C8431840374B9C4217D180231B045D
:100BB000184257D114682140084303431360324858
:100BC00000683249FFF76AFD401C0C214843019040
:100BD0000198002846D00198401EF8E72C4B9C4213
:100BE00002D180235B0404E02A4B9C423AD180234B
:100BF000DB03184236D1146821400843034327E041
:100C00009C4201D0844206D101980068B46A400336
:100C1000400B8443B46201980468234022D01368D7
:100C2000C8431840174B9C4203D1136819401A4B14
:100C30000CE0174B9C4203D113681940174B05E099
:100C4000144B9C420ED113681940154B03400B43C3
:100C5000136007E002984068202101430298416038
:100C6000684645700020029908706846407806B0D2
:100C7000F0BD0000FFFF3FFE082701400400008098
:100C800000FFFF07001000B09C000020400D030093
:100C9000004000B8002000B4FFFF7FFFFFFFFFFE11
:100CA000FFFFBFFF81B04648012142680A4342600E
:100CB00042681140009100998021490502680A4369
:100CC0000260006801400091009801B0704738B59B
:100CD00086B004001422002101A800F07DF82068ED
:100CE000384988422CD1384880214903C2680A43D8
:100CF000C260C268114000910099012102680A4354
:100D000002600268114000910099022102680A43C2
:100D1000026000680140009100982C480190032473
:100D200002940025039501A9A020C00500F05EF8FB
:100D3000072001900294039501A9254800F056F878
:100D400007B030BD38B58CB004001422002101A8D2
:100D500000F042F81822002106A800F03DF82068B3
:100D60001C4988422AD1202006900025089506A813
:100D700000F008F9002801D000F072FB0120124CAD
:100D80002168014321602168084000900098C0203C
:100D9000C000019012200290039504950620059052
:100DA00001A9A020C00500F021F880208003A168DF
:100DB0000143A160A1680840009000980DB030BDCB
:100DC0003C1002400024014034100240FF080000A3
:100DD000000400500054004010B504000800110049
:100DE0000200200000F03EFB200010BDFFB50022F5
:100DF0000F2302932CE0052602E05C4FB842FAD1A3
:100E0000AE402643009C2660594C2568DC432540B3
:100E10004E68F60200D51D43554E35607568254075
:100E20004F68BF0200D51D437560524D6E68264065
:100E30004D68AD0300D51E434E4D6E602E683440A4
:100E40004E68F60302D526001C0034432C60521C69
:100E50000B681C00D44079D0012595402B40F6D07A
:100E600054000327A740FE4301964E68B707BF0F03
:100E7000012F03D0B607B60F022E0ED18768019E50
:100E80003E40CF68A740374387604668AE434D6811
:100E9000EF06FF0F9740374347600D79AD07AD0F61
:100EA000032D25D0C568019E2E408D68A540354391
:100EB000C5600D79AD07AD0F022D19D1D508AD0074
:100EC00045192E6A039697001C263E406F463E70D9
:100ED000039EB446029F6E463678B7406646BE43D0
:100EE000B4460F696E463678B740664637432F6280
:100EF00007680326019D3D404F683740BC462700E8
:100F00006446BC402C4304604C68350425409ED0A8
:100F1000194C9508AD0064190094009C2468D70012
:100F200018253D40029FAF40BC43A027FF05B842B3
:100F300001D1002664E7114FB84201D101265FE7D5
:100F40000F4FB84200D058E7022659E7FFBD002AEC
:100F500001D0816170478162704742690B00134084
:100F60001B0491431943816170470000000C00503D
:100F7000001802408018024060180240000400502F
:100F800000080050FEB5040000206A461070494D6C
:100F90002168890355D5019080204005296B0140C7
:100FA00008D1296B01432963296B084001900198FE
:100FB0000120019040480068A90D01433E480160AE
:100FC000FFF766FB06003C480068C00505D4FFF744
:100FD0005FFB801B0328F6D323E0296DC02080002F
:100FE0000840364F00280ED0616988420BD0286D2A
:100FF0003840296D802252020A432A65296D304A01
:101000000A402A652865C0070FD5FFF741FB060097
:10101000286D800709D4FFF73BFB801B29498842D4
:10102000F6D303206946087004E0286D0740606924
:10103000384328650198002803D0286B22490140D5
:1010400029632078C00705D5A86C0321884361680F
:101050000143A9642078800605D5A86C1B4901408E
:10106000A0680843A8648020C001216801400DD019
:10107000A96C8900890822690A43AA6421690204CB
:10108000914203D1296882000A432A602168090538
:101090000DD5A96C0E4A0A40E1681143A964E168C4
:1010A000814204D1286880214902014329606846B1
:1010B0000078FEBD0C10024000700040FFFCFFFFF6
:1010C000FFFFFEFF89130000FFFFFFEFFFCFFFFFD1
:1010D000FF3FFFFFF8B586B000F0ECF900F02EF905
:1010E000142200216846FFF777FE02219248026829
:1010F0000A430260026811400591059901260168C2
:101100003143016001683140059105990427016868
:101110003943016000683840059005987402002248
:101120002100BB48FFF713FF0094019600250295AC
:1011300003956946B648FFF759FE6008009001958F
:1011400002956946A020C005FFF750FE40200090A0
:10115000019502956946AF48FFF748FEFC20400024
:101160000090019502956946A948FFF73FFE0C22C1
:1011700000216846FFF730FEA74CA8482060B00762
:1011800060601020A060E56080200006206167613B
:101190002583A576E661202165546562A5622C2130
:1011A0006554256365633C216554E5642000FFF7C1
:1011B0001EFB002801D000F053F900960196694605
:1011C0002000FFF725FC002801D000F049F99448E1
:1011D000009069462000FFF71BFC002801D000F0BA
:1011E0003FF99048009069462000FFF711FC002865
:1011F00001D000F035F98C48009069462000FFF7D7
:1012000007FC002801D000F02BF9884800906946BF
:101210002000FFF7FDFB002801D000F021F98448F1
:10122000009069462000FFF7F3FB002801D000F092
:1012300017F98048009069462000FFF7E9FB002875
:1012400001D000F00DF97C48009069462000FFF7BE
:10125000DFFB002801D000F003F9784800906946D0
:101260002000FFF7D5FB002801D000F0F9F8744802
:10127000009069462000FFF7CBFB002801D000F06A
:10128000EFF87048009069462000FFF7C1FB002886
:1012900001D000F0E5F86C48009069462000FFF7A7
:1012A000B7FB002801D000F0DBF800F076F80D2243
:1012B000210068312000783000F010F925006435F5
:1012C000FFF7E6F96862FFF7E3F9A862504EFF0105
:1012D000FFF7DEF95D490091696A401A14281CD9AC
:1012E0001E230D2221007831594800F06BF9287037
:1012F000FFF7CEF9696A401A0099884203D3390092
:101300003000FFF72AFE6420205C002802D05048FD
:1013100000F06BF8FFF7BCF96862FFF7B9F9A96A4A
:10132000401A00998842D3D339003000FFF715FEE8
:10133000FFF7AEF9A862F0E73410024018B591B09B
:101340003422002104A8FFF747FD1022002168463F
:10135000FFF742FD8020800000F0F0FA02200490A8
:10136000FE30079000240894402009900B9404A8B4
:10137000FEF7A6FE002801D000F072F807200090CA
:1013800001940294039400216846FFF77DF8002839
:1013900001D000F065F812B010BD10B52C4C2D48EE
:1013A00020602D4860602620A0600120E0600020C1
:1013B00020616061A061E0612062200000F0A8F877
:1013C000002801D000F04CF80021200000F0DCFAE9
:1013D000002801D000F044F80021200000F0F1FACC
:1013E000002801D000F03CF810BD10B504002068C2
:1013F0000168802292010A4302600A2000F00AFB81
:1014000020680168154A0A400260FFF7C6FF10BD58
:10141000000400500008005000000020002401409B
:1014200002000004040000080800000C1000001076
:1014300020000014400000188000001C0001002063
:1014400000020024000400280080003CE9030000A2
:10145000A0000020005400405B3D3000FFDFFFFF94
:1014600072B6FEE71206130A1A43130C1A4300BFA2
:10147000094205D0830705D00270401C491EF9D1EE
:10148000704700001300103906D330B41400150063
:1014900010393CC0FCD230BC490700D30CC000D589
:1014A00004C0890002D30280801C002900D502708C
:1014B0007047FEE710B5002407480168820D0A4313
:1014C00002600320FFF724F9002801D0012401E085
:1014D000FFF7E8FB200010BD0020024070B4103A76
:1014E00003D378C9103A78C0FBD2530701D318C987
:1014F00018C001D508C908C0D20704D30B880380DF
:10150000891C801C002A01D50B78037070BC7047C1
:1015100070B5040001D1012070BD250040350026C2
:101520006878002803D12E702000FFF70BFC2420E0
:1015300068702068016801229143016060681E495B
:1015400001402068016121681C488A6802408A6065
:10155000E1680129A16801D1C24301E0842212029D
:101560000A4321688A60E168022903D180210901C8
:101570002268516021684A68114B13434B6021680F
:10158000CA681040C860206961690143A06900020F
:1015900008432168C860E069216A0143206801604E
:1015A0002068016801220A4302606E602020687092
:1015B0002663AE70002070BDFFFFFFF0FF7FFFFFCE
:1015C00000800002FEB5040040304078202800D0A2
:1015D00095E00D0001D0160005D18020800021008B
:1015E0004031486088E04020205C012800D186E03E
:1015F0000293012040216054FFF74AF80190212016
:1016000021004031487020202100403188700020A6
:1016100021004031486065626685606320684168EA
:101620003E4A0A40426080273F0201980090029B98
:1016300000220821200000F081F8002849D1082567
:101640002068C561E06802280BD101980090029BD8
:1016500000220821200000F071F80028206839D10C
:10166000C56101980090029B00226903200000F0F0
:1016700065F800282DD1029E019D09E0606A00787E
:1016800021688862606A401C6062608D401E6085CF
:10169000608D002807D02A003100200000F07BF880
:1016A0000028EBD015E00095330000221021200027
:1016B00000F044F800280CD1200000F031F8102090
:1016C0002168C8612A003100200000F08EF800284F
:1016D00002D0206841680DE020202168C861009593
:1016E000330001223900200000F028F8002820688B
:1016F000416803D00F4347600120FEBD02E0022095
:10170000FEBD00000F43476021004031202048709B
:10171000002000228A700870FEBD0000FF7FFFFFDE
:1017200000688169890701D50021816201218269F0
:101730000A4002D18269114381617047F8B50024E3
:1017400005000F00684602701E0028688069384056
:10175000B84201D1012000E00020694609788842A2
:1017600017D10020C0438642EFD0FEF791FF0699C3
:10177000401A864201D3002EE7D1280040302021B4
:1017800042680A4342604170002181700470012068
:10179000F2BD0020F2BD70B504000D0016002068F7
:1017A000806980071FD432002900200000F044F82F
:1017B000002801D0012070BD0020C0438542EED03A
:1017C000FEF766FF801B854201D3002DE7D1200084
:1017D0004030202142680A434260417000210022CB
:1017E00082700170E6E7002070BDF8B52025040086
:1017F0000E0017002068806928401BD13A00310094
:10180000200000F019F8002807D1FEF741FFC01BA7
:10181000864204D3002EEDD101E00120F2BD20006C
:1018200040304168294341604570002100228270A8
:101830000170F2E70020F2BDFEB50600002430681A
:101840008369002517001022134042D0C261009125
:1018500033E0210035D100980021C94388422CD0C3
:10186000FEF716FFC01B0099814201D3002924D145
:101870003068416832004032927883691B040BD58E
:101880008023DB01194007D1202A05D041680B4392
:101890004360FEF7FDFE07000196202601980068D0
:1018A0008069304008D1FEF7F3FEC01B1A28F5D33B
:1018B0002800202505430124019E3068816989069E
:1018C000C7D5002C01D12021C16128000425054382
:1018D00001243268906901210B02184202D00D43A5
:1018E000D36101248A02104205D02B0008251D4334
:1018F0003368DA6101244A02104006D0280002252C
:1019000005433068C261012401E0200012D030009C
:10191000FFF706FF30684168074A0A40426031001D
:101920004031486805434D60202048700020002267
:101930008A7008702000FEBD00E800FE10B50E4C55
:1019400021680E4A0A4002432260610D884210D18C
:101950000B480068062148430A49FEF79FFE401CD9
:1019600000E0401E6169490503D50028F9D1032034
:1019700010BD002010BD000000700040FFF9FFFF07
:101980009C00002040420F0070B5020040325378A6
:10199000202B14D14023C35C012B10D001231370E2
:1019A00024245470046825689D43256004682568D4
:1019B000164E2E4026600468256829431CE002204C
:1019C00070BD70B5020040325378202B12D14023F5
:1019D000C35C012B0ED001231370242454700468BF
:1019E00025689D43256004682568094E2E4009023C
:1019F000314301E0022070BD2160006801680B43A3
:101A00000360202050700020107070BDFFEFFFFFBA
:101A1000FFF0FFFF38B50500FEF73AFE0400002096
:101A2000C043854202D0044800782D18FEF730FEEE
:101A3000001BA842FAD331BD900000200000000036
:101A40000000000000000000000000000000000096
:101A50000000000000000000000000000100000085
:101A60000200000003000000040000000600000067
:101A700007000000080000000900000070B4012306
:101A8000002413E00168001D194202D04D46691878
:101A9000491E0C60091D121F042AFAD20D00960778
:101AA00001D50C80AD1C1A4000D02C700268001DBE
:101AB000002AE7D170BC704710B507497944183146
:101AC000064C7C44163404E0081D0A6889188847CF
:101AD0000100A142F8D110BD080000002400000060
:101AE0009DFFFFFF54000000A00000200000000048
:101AF000E3EBFFFFDA0000003C00000000000020E4
:101B000000F00DF8002801D0FFF7D6FF00BF00BF9E
:101B1000002000BF00BFFFF7DDFA00F002F801204F
:101B2000704780B500F002F801BDFEE70746384671
:101B300000F002F8FBE7FEE780B500BF00BF024AF5
:101B400011001820ABBEFBE7260002000548014645
:101B500003B4684680F3098800BF00BF00BF00BF20
:101B6000FFF7CEFFA5EDF5FE01488047014800478D
:101B7000991B00084D1B000802484168027889182B
:101B80004160704790000020FEE7FEE77047704715
:101B900080B5FFF7F1FF01BD802000050149086015
:101BA0007047000008ED00E0FEE7FEE7FEE7FEE715
:101BB000FEE7FEE7FEE7FEE7FEE7FEE7FEE7FEE7FD
:101BC000FEE7FEE7FEE7FEE7FEE7FEE7FEE798003A
:101BD0000C01000100010001000100010001E5000D
:0C1BE0000001F9000004FC000224F400E5
:0400000508001B4D87
:00000001FF
